@ba12 ; Affinity 
@bb02 ; MemBank 
@bc03 ; Command 
:020000020900F3
:1000000087C0FFCFFFC7FFCFFFC7FFCFFFC7FFCF1F
:10001000FFC7FFCFFFC7FFCFFFC7FFCFFFC7FFCF90
:10002000FFC7FFCFFFC7FFCFFFC7FFCFFFC7FFCF80
:10003000FFC7FFCFFFC7FFCFFFC7FFCFFFC7FFCF70
:10004000FFC7FFCFFFC7FFCFFFC7FFCFFFC7FFCF60
:10005000FFC7FFCFFFC7FFCFFFC7FFCFFFC7FFCF50
:10006000FFC7FFCFFFC7FFCFFFC7FFCFFFC7FFCF40
:10007000FFC7FFCFFFC7FFCFFFC7FFCFFFC7FFCF30
:10008000FFC7FFCFFFC7FFCFFFC7FFCFFFC7FFCF20
:10009000FFC7FFCFFFC7FFCFFFC7FFCFFFC7FFCF10
:1000A000FFC7FFCFFFC7FFCFFFC7FFCFFFC7FFCF00
:1000B000FFC7FFCFFFC7FFCFFFC7FFCFFFC7FFCFF0
:1000C000FFC7FFCFFFC7FFCFFFC7FFCFFFC7FFCFE0
:1000D000FFC7FFCFFFC7FFCFFFC7FFCFFFC7FFCFD0
:1000E000FFC7FFCFFFC7FFCFFFC7FFCFFFC7FFCFC0
:1000F000FFC7FFCFFFC7FFCFFFC7FFCFFFC7FFCFB0
:1001000001002BD1010000004444444491BE713FE2
:10011000A895F8942224E8EDE4BF20921001E8EDC0
:10012000F1E0E4BFF0936200EFE1F9E6EDBFFEBF5E
:100130000DD41ED44F98479AAC9AA49AE0E4F8E004
:100140002682A0E8B1E0A087B1872582A3E0A7833B
:10015000A0E4A683A9E0A093000A2092200A20929E
:10016000210AA1E0A093000B2092010BAFEFA09316
:100170000C0BA0930D0B209252042092B3044298D2
:10018000A398A895E8EDE4BFE7E0E093000104D46C
:1001900006D49AD36ED4B3D380911B688211B4D3A2
:1001A000EFB3E0931C68E0911B68E21105C0E09199
:1001B0001168E2113EC200C0C0E0D8E610D3F99346
:1001C000E9930FD3F993E9931AD3E4E0F8E6D193D6
:1001D000C193B193A19320924E69AF77A160A09390
:1001E0004F69A6D2A0910091B0910191B883A983E3
:1001F000A09100A1B09101A1BA83AB832C829BD2C4
:10020000A0910091B0910191B883A9832A822B8299
:100210002C8221E066C180E50DD48D814DD123E093
:1002200067C2D6D184E406D48E8180930A688F8118
:1002300080930B6888858093086889858093096816
:100240008A853AD127E058C2C8D180E7F3D327E0A6
:100250005BC2C3D181E4EED3888580930C68898525
:1002600080930D688A8582FDEAD18370809311683E
:1002700028E04DD2809111688211D4D132C1909181
:100280003469953011F0983011F4EA8116C0973036
:1002900011F09A3019F4A6D1EC810FC0993011F009
:1002A0009C3019F495D1EE8108C09B3011F09E303E
:1002B00019F493D1E88501C00FC1E93068F4F0E08A
:1002C000ED59F64F0994E0C0E0C0E1C0E1C0E0C0E4
:1002D000DFC0E1C0E2C0E7C004C184D182E4AAD398
:1002E0008C8180939D6B38854985823011F430FD77
:1002F000F8C028E1E19A30FD0DD230FF0ED2C7E000
:10030000EDE7FBE6A8D2C0919D6BCCD1A4D2D1D0B1
:100310008E819F81C0D1EDEEDE2EE8EBCE2EE3E89C
:10032000BE2EE0E2AE2EEFEF9E2E8E2E7E2E6E2E95
:100330009FD1D7C057D183E47DD30C8009140D80A1
:1003400008040E8007040F80060428E211F428E454
:100350008FD1BCC147D182E56DD328E794D1BDC10F
:1003600041D184E567D328E5B8C13CD185E462D3A7
:1003700028E03E7F4427AAC135D186E45BD392D1E1
:1003800090913469963019F08C8130FD6CD230FD3B
:100390006ED2A7C030FD9AC090913469933009F4B1
:1003A00005C0953011F41ED101C096C082E742D33A
:1003B00079D13BD28093466911D037D28093476977
:1003C0000DD033D28093486909D02FD280934969E8
:1003D00005D09295909590934A69BAC1991F90FD66
:1003E00008950894879561D18695E9F7089530FFBF
:1003F0006DC090913469933009F422C0953011F4A6
:10040000F1D01EC09B3011F4229606C09D3019F425
:10041000E9D0249601C060C087E70CD378E06991E9
:100420000894679542D16695E9F77A95C1F7A8E0F7
:10043000B0E02897EDE7FBE610D2A8E0B0E01BC0E3
:10044000A8D081F478F0A0E0B2E760E8A2D011F47F
:10045000E8F748F08FB729D18FBF6795B8F76D934C
:10046000A13898F33EC0A050B247C0E0D2E7EDE714
:10047000FBE6F3D100C0CDE7DBE614D130FDF1D1CE
:1004800030FDFBD12EC02DC03CC13AD1F4C139C1E1
:1004900037D1C8D026C034D124C09E3009F021C045
:1004A0002FD1F7D11EC09E3009F01BC029D1EFD14A
:1004B00018C0C4E2D9E6089590910A0B89238211ED
:1004C00010C0089584E40CC082E50AC08DE408C021
:1004D00083E406C085E404C08CE402C084E500C067
:1004E000A9D2EFE1F9E6EDBFFEBF4FD289D2AED07F
:1004F0002CBA6AE04ED01130A1F76A95D9F749D0ED
:1005000081F7E8F3913808F43094D3DF7727EE27AA
:1005100061E03FD019F7661FE0F769937627C23391
:10052000D8F637D0D9F620F0E627FFE8E081F0CF03
:100530008EE280D27211CECFE09335693D7FE21119
:100540003260C452C0933469C0912369C395C0938B
:10055000236909F49ECFADDFE881ED3F11F62092CB
:1005600023696981603F08F4BCCF6F70E8E9F7E95F
:10057000660F660FE60FF21D0190022209F4A6CF66
:10058000019000FE02C031FDA3CF01901080F00168
:100590000994A89511270AB0032402FEFCCF90917C
:1005A000200A2092200A2092210A0AB0032402FC89
:1005B000FCCF8091200A2092200A2092210A8D31BE
:1005C000111F813810FD8F30111F012E06940895E0
:1005D000E0E0F8E684E01DD00CC0E4E0F8E686E058
:1005E00018D007C00FD029F00AD019F005D009F0B3
:1005F0000CD0821176CF0895EAE0F8E609C0E8E071
:10060000F8E606C0ECE0F8E603C0EEE0F8E600C06D
:1006100082E0DE01129601901D90011411F48A957A
:10062000D1F70895C1E060D1CF3211F4D13D09F086
:100630000895E6D1E09105A1E0FD01D0E1C4E8ED27
:10064000E0933400E5E8E09301100895E091060B93
:10065000E0FF0895E093060BE0912269E395E093B3
:100660002269E6FF01C002C071D182C171D184C18B
:1006700017D00E011EDF6A8A7B8A8C8A9D8A0F8AB8
:10068000188E298E089515DF6A887B888C889D884E
:100690008F89988D00C006D0C4D0C80FD91FBBC0A9
:1006A00001D0F1C0EDE5FBE6089530F09694879413
:1006B0007794679430F009C0969487947794679400
:1006C00020F09D248C247B246A24089537D09882BE
:1006D00089827A826B822C823CC0E2DFDE018091CB
:1006E0009D6B2CD088832982BA83AB832C8231C046
:1006F000E0E0F8E690E028C0E4E0F8E690E024C00E
:10070000E19AC8E5D9E625C0CEE4D9E622C0E19A4F
:100710000FD01FC0C8EDD7E91CC0C0919D6BB1D0F0
:10072000DE010CD00882B983AA832B822C8211C0EF
:10073000C3E5D9E60895C8E5D9E60895C6E4D9E643
:100740000895AEE3B9E60895F9DF84E0B4D0988364
:10075000F5DFF7DFA4D000C097E712D09AEA10D0F7
:10076000F0DF86E09091440895FFFCCF9D91909337
:1007700042088A95B9F78AE25DD1E19BB2CE08952D
:100780000090200A0916E0F32092200A2092210A04
:10079000529BB39999CE089501010B0902011109E9
:1007A00004012409040129090000430A0000430A46
:1007B0000000430AFF013F0908016D0970019A0911
:1007C0002001AA094001B0091001B5091001BC09B6
:1007D0001000CA091000F70902003214FFFF0C9440
:1007E00008000C9409000C940A000C940B000C9463
:1007F0000C000C940D000C940E000C940F000C9443
:1008000010000C9411000C9412000C9413000C9422
:1008100014000C9415000C9416000C9417000C9402
:1008200018000C9419000C941A000C941B000C94E2
:100830001C000C941D000C941E000C941F000C94C2
:1008400020000C9421000C9422000C9423000C94A2
:1008500024000C9425000C9426000C9427000C9482
:1008600028000C9429000C942A000C942B000C9462
:100870002C000C942D000C942E000C942F000C9442
:1008800030000C9431000C9432000C9433000C9422
:1008900034000C9435000C9436000C9437000C9402
:1008A00038000C9439000C943A000C943B000C94E2
:1008B0003C000C943D00019009928A95E1F708955F
:1008C00029928A95E9F70895EDE7FBE60E94270C47
:1008D000CDE5D9E60E94290CEDE5FBE60E94270C48
:1008E000CDE5D9E60C94290CEDE7FBE60E942B0C34
:1008F0000C941B0CC0E0D8E6A6E1B0E00EC0C0E04E
:10090000D8E6AAE1B0E014C0C0E0D8E680E0D8DFC5
:1009100000C0EFEFE0931B6808956DDFF001A09534
:10092000B095C095D095A083B183C283D383089539
:1009300062DFF00180830895E2E0F2E000C0EF237F
:10094000F095009020690F22E02904C0E0E002C089
:10095000EFEF00C0E093206900C0E09120690C94A3
:10096000F90BEF23F095009021690F22E02906C0D2
:10097000E0E004C0E5E502C0EFEF00C0E0932169CC
:1009800000C0E09121690C94F70BB69904C0E5E52D
:10099000119B0C94250C07C0442455240895AD9850
:1009A0000895AD9A0895E0910408E7FF0895E09155
:1009B0000008E0930070089502D08CE23BC001D0A3
:1009C00003C08F93829501C08F938F70805D8A33AF
:1009D00008F0895F2FD08F9108958AE02BD08DE0A9
:1009E00029C00F01451451F0F0910408F5FF06C02D
:1009F000F1E7E52DF081F09302085394F00108959A
:100A0000451459F0F0910408F5FFFACFF1E7E52D10
:100A1000F081F09302085394F3CF0895C42DD1E7E9
:100A20000190002029F00882C395C511F9CFCA951D
:100A30004C2ED8CF0F01F201FA95EF1719F0F1E71C
:100A400080834394CFCF8F938E2FF201FA95EF17C7
:100A500019F0F1E7808343948F9108958991ACDF79
:100A60009A95E1F708958991821188130895E2DF3C
:100A7000FACFC6E8DAE9F7DF80911C68A0DFC6E9A3
:100A8000DAE9F1DFBDCF0A0D1B5B34346D2E2E2E5B
:100A90005B424C442D005D1B5B6D0A0D0000C6EAF5
:100AA000DAE9E1DFADCF0A0D1B5B34336D2E2E2E5C
:100AB0005B5550445D1B5B6D0A0D0000CEECDAE91E
:100AC000D2DFC0E0D8E690E1C9DF87DF99CF0A0D19
:100AD0001B5B34326D2E2E2E5B4150505D1B5B6DC7
:100AE000202D2000FFFFFFFFFFFFFFFFFFFFFFFFA5
:00000001FF
; 
@bf00 ; Bootloader backup 
; *** EOF 
