@ba12 ; Affinity 
@bb01 ; MemBank 
@bc03 ; Command 
:020000020A00F2
:1000000055C1FFCF81E084C082E082C083E080C020
:10001000F0D0F3C085E07CC086E07AC087E078C08D
:1000200088E076C089E074C08AE072C08BE070C05E
:1000300071C000008BD09DC08EE06AC08FE068C0A8
:1000400080E166C081E164C082E162C083E160C09A
:1000500084E15EC085E15CC086E15AC087E158C09A
:10006000CEC0000089E154C08AE152C08BE150C08B
:100070008CE14EC08DE14CC08EE14AC0F9C0000059
:1000800002C1000082E244C082E242C0EBC0000034
:1000900084E23EC085E23CC086E23AC087E238C0D6
:1000A00088E236C089E234C08AE232C08BE230C0D6
:1000B0008CE22EC08DE22CC08EE22AC08FE228C0D6
:1000C00080E326C081E324C082E322C083E320C012
:1000D00084E31EC085E31CC086E31AC087E318C012
:1000E00088E316C089E314C08AE312C08BE310C012
:1000F0008CE30EC08DE30CC08EE30AC08FE308C012
:1001000001002FD10201000044444444C9826CC460
:10011000C0D2FFCF0FB73F014001E091686AE3957D
:10012000ED3008F0EE27E093686AF0E0E756FF4E06
:10013000099406C311C317C347C3CAC3CDC3D0C3F1
:10014000D3C3D6C3D9C3DCC3DFC3E2C3E89B08C0B3
:10015000E89820921301C0924208CF90CF90189552
:10016000209252010091160B0093160B2092150B52
:100170001895FF93EF93EFB7EF93DF93CF93BF9370
:10018000AF93F894E0911C0BF0911D0B7894A09123
:10019000E469B091E569E093E469F093E569EA1BED
:1001A000E093E669FB0BF093E7696894B2E0E0370F
:1001B000FB0708F4ED9AB2E0E43FFB0730F0E89467
:1001C000B4E0E833FB0708F4ED9AF1E4E091FF694D
:1001D000E21104C05299F061E3E003C0B399F06109
:1001E000E5E0E0934102F093140BE091E869FBE154
:1001F000099401E00093530118950C940A223F01E1
:10020000E091536AF091546A0091100601930091B5
:1002100011060083E091556AF091566A01910093AE
:100220000C060191009308060191009309060191C3
:100230000093000601910093010601910093A00034
:1002400001910093536A01910093546A01910093C4
:100250000B06019100930A06E093556AF093566AE3
:10026000F30118950FB72092031021600FBF189566
:100270003F0100912008E0916E6AF5E70193E09359
:100280006E6AF30118953F01E0916F6AF091706A10
:10029000EF1304C0E0E8E093250806C0F6E70191FB
:1002A00000932208E0936F6AF3011895A895F894DB
:1002B00022242DBAE8EDE0933400E5E8E093011044
:1002C000EFE1F9E6EDBFFEBFE0E0F9E6C0EADBE012
:1002D00021922197E9F720920508A2E4A093120247
:1002E000ABE4A0931402A3E0A0934102A8E0A09382
:1002F0001604A4E0A0937104A0937704A093720461
:100300000D98059A0C98049A0B9A0398A998A19AAB
:100310000698629869986F9861986798E0E0FBE0AA
:100320002082218222862386A0EEBEE22486B58723
:10033000A1E0A683A1E0A583A3E0A083E0E1FBE028
:100340002082A2E0A183A1E4A483A1E0A683A583E7
:10035000A3E0A083A3E0A0932002A5E0A093210244
:10036000E1E0E093C001E3E4E093C901EEEEE09345
:10037000CB01E1E0E093C801A0E1A0931102E0E825
:10038000FBE0A2E0A0934902A0934A02A4E0A08B64
:10039000A18BA1E8A087A187E0E8FBE0B8EDA0E091
:1003A000A183A0E0A283A3E3B0933400A28BAFEFBC
:1003B000A2A723A6A6A727A6A0A7A1A7A4A7A5A7EB
:1003C000A685A0FFFDCFA1E0B0933400A083A0914B
:1003D0005101A0FDFCCFA9E1A0935001A1E0A093A1
:1003E0005301A0935201E0E0F6E0A1E1A083A0E078
:1003F000A183ABE0A283A0E0A383A0E0A483A2E05A
:10040000A0930506A7E0A087A1E0A1870F98079A0F
:10041000A8E0A0935004A0935104A0935704E0E2F5
:10042000F8E02682A5E8B6E0A087B187A0E0A58322
:10043000A3E0A783A2ECA68347984F9A479A489ACD
:10044000409A9CD3E8EDE4BFE8E0E09300010E940D
:10045000D21D0E94CB1AB8D3BAD34FD1CFD456D61F
:100460000E94CD1F0E94021D0E94EB200E9480214D
:100470000E94272045D4E1E0E0931168E0911068E4
:10048000E395E09310684ED30C9499210895A881C8
:10049000A3700E94851DB9810E94401DEA2FABC741
:1004A000AA81B9810E94861DE881E370E0939F6A6A
:1004B000BB810E94401DA093A06AB3950E94401D7D
:1004C000A093A16AB3950E94401DA093A26AB39520
:1004D0000E94401DA093A36ACFE9DAE68EC779F4A3
:1004E0000E94D21FE53058F0A881A3700E94851D9C
:1004F000B981AA810E94431D2160EA2F7CC791C760
:1005000077C7E9F70E94D21FE131C8F3B981AA8108
:100510000E94861DEFE9FAE6A881A370A083AC8152
:10052000A183BD81B283BE81B383BF81B483BB810C
:100530000E94431DA093A06AB395A091A16A0E9456
:10054000431DA093A16AB395A091A26A0E94431D86
:10055000A093A26AB395A091A36A0E94431DA093A1
:10056000A36A2160CFE9DAE648C70C9408000C942E
:1005700009000C940A000C940B000C940C000C94D1
:100580000D000C940E000C940F000C9410000C94B1
:1005900011000C9412000C9413000C9414000C9491
:1005A00015000C9416000C9417000C9418000C9471
:1005B00019000C941A000C941B000C941C000C9451
:1005C0001D000C941E000C941F000C9420000C9431
:1005D00021000C9422000C9423000C9424000C9411
:1005E00025000C9426000C9427000C9428000C94F1
:1005F00029000C942A000C942B000C942C000C94D1
:100600002D000C942E000C942F000C9430000C94B0
:1006100031000C9432000C9433000C9434000C9490
:1006200035000C9436000C9437000C9438000C9470
:1006300039000C943A000C943B000C943C000C9450
:100640003D00E0E003C0E0E101C0EFEFE095E49998
:100650000AC0E093A80B2092A90BEFEFE093AC0B3C
:10066000E093AD0B09C0E093AC0B2092AD0BEFEF24
:10067000E093A80BE093A90BEFEFE093AA0B209275
:10068000AB0BE093AE0B2092AF0BE1E0E093840B59
:10069000089500240A94E0E8FBE000A601A604A661
:1006A00005A6EACF0024E0E8FBE000A601A604A628
:1006B00005A6E2CFE0912F70E1FF03C000C0E0E0AB
:1006C00001C0E1E8E093880BE093890B0895E1E035
:1006D000F2E02092A80B2092A90B2092AC0BE093A1
:1006E000AD0B2092AA0BE093AB0B2092AE0BF093D4
:1006F000AF0BE1E0E093840B0895AF9AA79AE091E5
:100700002268E211EE13EFEFE09322680E945A1381
:100710002CBAE0E000C0FE2FFF7721F0EA9509F443
:10072000E29A09F0E298E0935C6A0895E09108701B
:10073000E09321680895E0915C6AE078ECCF089539
:100740002092686AA6DFE0910770FCE0EF9FE0E589
:10075000F7E0E00DF11DE0C0E1996198E19B679839
:10076000E0EBF4E0D9C061986798E39928C0E09184
:10077000696AF3E700906A6A10906B6AF0810F1A59
:100780001208F091586A0F0E121C00926A6A1092B9
:100790006B6A0F2EF3E70192E093696A20920506D7
:1007A000E19904C0E19AE6E8F7EC03C0E198E6EBD2
:1007B000F7EC00902F7002FC7896CAD202C020920B
:1007C000686AE0ECF3E0A8C0619A679AE091626A17
:1007D000F091636AF7FF05C0F095E195FF4FF7FDD3
:1007E000FFE7EE0FFF1FEE0FF21D08F4FFEFF0938F
:1007F000596AE0910470E095E6950E2E0694E00D9E
:100800000694E00DE05FEF9FF001EE0FFF1F08F48C
:10081000FFEFFF2321F4E091596AE211F1E0F09338
:10082000586AE0915A6AEE2321F0FE1769F068F0E9
:1008300022C02092586A2092596AEFEFE093686ACA
:1008400000DFE0ECFDE568C07BCFE091576AF091F6
:100850003270EF1720F4E395E093576A71CF009060
:100860005A6A10906B6AE0E0101410F4E091317055
:10087000E0935E6A29C0E091576AE211EA95E0933D
:10088000576A5ECFF0915A6AEF0F08F4EFEFF091DC
:100890005E6AEF0F08F4EFEFF0912268EF9FE12D11
:1008A000E03F08F0EFEFD2CEF091606AF695F69552
:1008B000F45F07C0F0915A6AF695F695F45F01C0AF
:1008C000FCE0EF9FF00128C0EFEBDCDFE0E5F8CFC4
:1008D000ECECD8DFE4E6F4CFE8EDD4DFE4E6F0CFEB
:1008E000E5EED0DFE4E6ECCFE2EFCCDFE4E6E8CF04
:1008F000E2EFC8DFE8ECD8CFE2EFC4DFE8ECDACF14
:10090000E2EFC0DFE8ECD6CFE2EFBCDFE8ECD8CF17
:10091000EFEBB8DFE4E6D4CFE0930C0BF0930D0BD4
:10092000E1E0E093060B0401F3010FBF1895E09B93
:1009300080913870E09980913A70E09B9091377087
:10094000E09990913970E0912F70E0FF04C0E09140
:10095000EF6AE1FD38C0E0915A6AEE23A1F1E85256
:100960008058E802000C111C812D8058E091596AD2
:10097000E99FF001E89FE001F89F0D0E121CCC0FDB
:10098000001C111C80E0881FE0911D68F0911E681A
:10099000C0911F68D091206800929A6A10929B6A59
:1009A000E09B05C0E019F109C80BD20904C0E00DB5
:1009B000F11DC81FD21DE0931D68F0931E68C093FF
:1009C0001F68D0932068E091606AF0913070EF1B4F
:1009D000E093606AC0915D6AE0915B6AF0915C6A45
:1009E000CF01982797FDF078CF018F779F77E29915
:1009F000CC27891721F4903089F0891769F030F0FD
:100A0000C150F0F4C0910370EA9509C0C150C0F420
:100A1000C0910270E39503C0CC2701C0EF2FE7FF20
:100A2000E09AE7FDE098E0935B6AEF77E0935A6A1B
:100A3000E099E498E09BE49AE099E598E09BE59AD8
:100A4000C0935D6A0895E0912168E211EA95E09310
:100A50002168E211EE136FDEE0910470E195E0345D
:100A600008F4E0E4E03C08F0E0ECE093616AE09137
:100A70005A6AF0916B6AFE17E091226830F0F091AB
:100A80003370EF1730F0EA9502C0E39511F0E09370
:100A900022680895019009928A95E1F708952992B4
:100AA0008A95E9F70895799FE001689FD001699FD1
:100AB000B00DC11DD21D789FB00DC11DD21D08956E
:100AC00080E404C080E202C080E100C0C083D18322
:100AD0008283238224822582E2CF0DD007C00BD0EF
:100AE00003C009D0AA0FBB1FAA0FBB1FAA0FBB1FB1
:100AF000AA0FBB1F0895B381A081AB0FB181B21DB6
:100B0000DC91CC93A481B581AD1BB209AC0FB21DB1
:100B1000A483B583C281D381D395DC1708F0DD2788
:100B2000D3830895C0E0D8E6A6E1B0E00EC0C0E0EF
:100B3000D8E6AAE1B0E014C0C0E0D8E680E0AFDFBC
:100B400000C0EFEFE0931B6808951BDDF001A09556
:100B5000B095C095D095A083B183C283D383089507
:100B600010DDF00180830895E2E0F2E000C0EF23A1
:100B7000F0950090986A0F22E02904C0E0E002C0DE
:100B8000EFEF00C0E093986A00C0E091986A0C947F
:100B9000BF12EF23F0950090996A0F22E02906C05A
:100BA000E0E004C0E5E502C0EFEF00C0E093996A21
:100BB00000C0E091996A0C94BD12B69904C0E5E5B5
:100BC000119B0C94EB1207C0442455240895AD9852
:100BD0000895AD9A0895E0910408E7FF0895E09123
:100BE0000008E093007108958F93892F0AD08F91A8
:100BF00008C08F93892F05D08F9100C002D08CE25E
:100C00003BC001D003C08F93829501C08F938F703A
:100C1000805D8A3308F0895F2FD08F9108958AE034
:100C20002BD08DE029C00F01451451F0F09104083C
:100C3000F5FF06C0F2E7E52DF081F093020853942A
:100C4000F0010895451459F0F0910408F5FFFACF2A
:100C5000F2E7E52DF081F09302085394F3CF089565
:100C6000C42DD2E70190002029F00882C395C51158
:100C7000F9CFCA954C2ED8CF0F01F201FA95EF1794
:100C800019F0F2E780834394CFCF8F938E2FF20138
:100C9000FA95EF1719F0F2E7808343948F91089546
:100CA0008991ACDF9A95E1F70895899182118813B3
:100CB0000895E2DFFACFCAECDCEAF7DF80911C6826
:100CC000A0DFCAEDDCEAF1DFBDCF0A0D1B5B3434D7
:100CD0006D2E2E2E5B424C442D005D1B5B6D0A0D6C
:100CE0000000CAEEDCEAE1DFADCF0A0D1B5B343356
:100CF0006D2E2E2E5B5550445D1B5B6D0A0D000062
:100D0000C2E1DDEAD2DFC0E0D8E690E1C9DF87DFEB
:100D100099CF0A0D1B5B34326D2E2E2E5B41505045
:100D20005D1B5B6D202D2000E091536AF091546AA9
:100D3000EF2B0895CF93C091536AC21106C0C091A2
:100D4000546AC21102C0CF9103C0CF918894089514
:100D5000CF93C2E0C0930A06C1E0C0930D06C191D3
:100D6000C0930006C191C0930206C191C0930306CF
:100D7000C191C0930406C191C0930C06C191C09368
:100D80000806C191C0930906C191C0930006C191A4
:100D9000C0930106C191C093A000C191C093536A52
:100DA000C191C093546AC191C0930B06C191C09385
:100DB0000A06E093556AF093566ACF910894089515
:100DC0007695679576956795769567957695679507
:100DD0008091061190910711861B970B6091041169
:100DE0007091051160DEC695B795C695B795C69505
:100DF000B795C695B7957C2F6B2F0895E0E8FAE676
:100E0000C0E0D4E75FDEE4E7FAE6C0E2D4E75ADE0A
:100E1000EAE7FAE6C0E4D4E755DEE6E8FAE6C0E63B
:100E2000D4E750CE80911368FFE0E0E080FF0AC075
:100E3000E59BE160E599E26081FF04C0E599E4602B
:100E4000E59BE8600E94C9150895F894E0912A6A2C
:100E500020922A6A7894E03009F40895EB3208F081
:100E600015CBC091286AD9E6E65CF0E0F84E09950A
:100E70000C9466170BCB0ACB97C09FC007CB06CB51
:100E800005CB04CB03CBC7C0D4C0E6C0F1C000C1C2
:100E9000FDCAFCCAFBCAFACAF9CAF8CAF7CAF6CA36
:100EA000F5CAF4CAF3CAF2CAF1CAF0CAEFCAEECA66
:100EB000EDCAECCAEBCAEACAE9CAE8CAE7CAE6CA96
:100EC000E5CAE4CAE3CAE2CA03C10895A895F89442
:100ED0006091A86A7091A96A789472DFEB01CF5D86
:100EE000D040E0E8FAE6FBDDB0939C6AC091A46ACA
:100EF000CC0FC091A56ACC1F08F4CC27E4E7FAE632
:100F0000EEDDB093AA6AC091A66ACC0FC091A76A21
:100F1000CC1F08F4CC27EAE7FAE6E1DDB093AB6A30
:100F2000A091AA6AAB0FA795A093006AA25308F4F8
:100F3000A0E0A0939D6AC091646AD091656AD6953D
:100F4000C795D695C795D695C795D695C795E6E822
:100F5000FAE6C5DDB093AC6A80911A70A091347046
:100F6000B091AC6ABA1708F08160A0913570B09169
:100F70009C6ABA1708F08460A0913670B0919D6A9F
:100F8000BA1708F0886080931A700895E091FF699D
:100F9000E03039F0E6EEF7ECCDCEE091FF69E030DD
:100FA000C9F3EEEFF7ECC6CEC1DB898190911268F0
:100FB000809312688913B6DDABC0B8DB8981F091EC
:100FC000126880931268F8278A8190911368809341
:100FD00013688927F82BE0912B6AE530C8F08B81E4
:100FE00090911468809314688927F82BE63080F07C
:100FF0008C8190911568809315688927F82BE730CC
:1010000038F08D8190911668809316688927F82BA7
:10101000F21188DD7BC0FF27888184FB880F80F96F
:1010200090911368EFE14DD080931368F2117ADD4F
:1010300073C0FF278881909113683AD0809313681A
:101040008881880F829590911468E1E03AD080936E
:101050001468F21167DD60C0FF278881880F9091C6
:101060001468EEE12ED080931468F2115BDD54C059
:10107000FF278981909114681BD08093146889811F
:101080009091156819D080931568F2114BDD44C01A
:10109000FF278981909115680BD08093156889810D
:1010A0009091166809D080931668F2113BDD34C028
:1010B0008295880FE0EE05C0869586958695EFE1CE
:1010C00000C08E23E095E9238E2B9827F92B0895F5
:1010D000E881E93068F4F0E0E159F74E099409C07D
:1010E0000BC00BC00AC009C008C008950895089538
:1010F000089580E50C943C1684CAE157E09311688A
:1011000011DDE0911168E130B9F7089501D004C014
:10111000E09112680C948B1380911368E0E0F0E189
:1011200083FDE0E10E94C91584FF08C020921D687C
:1011300020921E6820921F682092206885FF08C0B8
:10114000E0911C77E0932C68E0911E77E0932B6888
:101150008091146808958F93E9E1FAE6A0912B6AD3
:101160008A2F8C0FB081A193BA17A081B991BA07C9
:10117000B1938C13FACFC091286A8F910895E3E25E
:10118000AAC0EB99FCCFE881E03011F0ECE1A3C0FC
:10119000EB99F5CFEDE19FC0EB99F1CF29D1E1E0DB
:1011A0009AC0EB99ECCF3DD1E2E095C0EB99E7CF47
:1011B00038D1E3E090C0EB99E2CF1AD1E4E08BC0E4
:1011C000EB99DDCFEFE187C0EB99D9CF0ED1E0E20B
:1011D00082C0EB99D4CF0CD1E1E27DC0EB99CFCFA7
:1011E000E5E079C0EB99CBCFE6E075C0EB99C7CFCE
:1011F000FFD0E7E070C0EB99C2CFFAD0E8E06BC057
:10120000EB99BDCF0ED1E9E066C0EB99B8CF09D11B
:10121000EAE061C0EB99B3CF04D1EBE05CC0EB999D
:10122000AECFFFD0ECE057C0EB99A9CFFAD0EDE0FC
:1012300052C0EB99A4CFF5D0EEE04DC0EB999FCF13
:10124000F0D0EFE048C0EB999ACFEBD0E0E143C09B
:10125000EB9995CFE6D0E1E13EC0EB9990CFE1D09C
:10126000E2E139C0EB998BCFC3D0E3E134C0EB9915
:1012700086CFBED0E4E12FC0BBD0E5E12CC0E09129
:101280002B6AE43011F058F41CC0E881E3FD03C080
:10129000FED8E6E120C05FDF22D9E7E11CC0E8818B
:1012A000FE2FE370F3FD05C0F2FF07C0F9D8E8E1B7
:1012B00012C051DF26D9E9E10EC0EB9960CFEBE116
:1012C0000AC0EB995CCFE2E206C0EB9958CFEEE1A1
:1012D00002C0EAE100C0E0932A6AE091EE69E0937F
:1012E000296A20620895E0912B6AE350EB30C0F444
:1012F000E0932B6AF0E0EF56F64E099589F4E09101
:101300002B6AA8E3B3EBAE0FB21DBC91CB0FAE2F8F
:10131000AB1BA0932B6AC093286A7ED0EAE2DBCF96
:101320002ECF12C00FC010C020C00CC018C01DC0EE
:1013300019C015C009C016C0000000020004020652
:10134000040006001894089598940895E8E0F8E6DB
:1013500021C0ECE0F8E61EC0EEE0F8E61BC0E0E0DD
:10136000F8E610C0E4E0F8E605C0F3DFD1F0EEDF08
:10137000C1F0F2CFA581BD81AB1799F4A481BC81E6
:10138000AB1779F4A381BB81AB1759F4A281BA8161
:10139000AB1739F4A181B981AB1719F4A081B881D9
:1013A000AB170895E091AD6AE395E23008F0E0E014
:1013B000E093AD6AF0E0E252F64E099401C00BC032
:1013C000E0911970E5FF05C0E0910D70EF73E068E2
:1013D0008BC0E0E089C0E0911970E5FF03C0E091A7
:1013E0000E7087C0E09100707FC079D087D0DACFCF
:1013F00076D088D0D7CF88D0D5CFE991DE0162D022
:10140000E85FE883ED91E983ED91EA83ED91EB8369
:10141000ED91EC837ED0C6CFE0910100F0E07FD06B
:1014200085C05DD0E091AE6AE395E63008F0E0E07B
:10143000E093AE6AF0E0E05EF54E44D00995B2CF9D
:1014400005C006C007C008C009C00AC00BD00EC046
:1014500029D02CC02FD032C00DD010C013D016C050
:1014600019D01CC0E0916B6AF0E054C0E09126688E
:10147000F7E050C0E091AC6AF8E04CC0E091106831
:10148000F9E048C0E091F46AFAE044C0E091F06A03
:10149000FBE040C0E091726AFCE03CC0E091736AFE
:1014A000FDE038C0E0911F68F8E134C0E0912068A9
:1014B000F9E130C0E0919C6AFAE12CC0E0919D6AAC
:1014C000FEE228C0CAE0DAE60895A2E0BAE608958E
:1014D000A4E0BAE60895A091016ABAE60895F8DF9B
:1014E000A093016A089522C0EDDFF1E0F883E9835B
:1014F00024C0E8DFF2E0F883E9831FC0CFE021C019
:10150000C0EF1FC0CCE31DC0DDDFE9DF2882E98327
:101510001EC026C0E983FA83F7E0F8831DC0D2DF3E
:10152000E883F9832A822B822C821FC0F091126AF1
:10153000FF0F28F1FF0F18F12BC0C7DFE3E021D028
:1015400078C8C9DFE1E01DD0CD93CACFC4DFE3E0A6
:1015500018D06FD8C5CFBFDFE7E013D068D8C0CFB1
:10156000B7DFFFE315D05FD8BBCFB2DFFFE310D00A
:101570005CD8B6CFAADFFFEF0BD053D8B1CFF0E0E5
:1015800007C0F091126A02C0FF1FC8F3E695E0F3AE
:10159000F093126A0895E0E0E093E8692092126AFD
:1015A0000895FFFFFFFFFFFFFFFFFFFFFFFFFFFFAC
:1016000026C03FC01EC13AC170C180C1A2C1ABC1DA
:10161000BBC1C3C1CBC1D3C1DEC13DC042C06BC0E1
:10162000B7C0C9C0E3C0E5C0E6C0E7C0E8C0E9C0D4
:10163000EAC0EBC0ECC0EDC0EEC0EFC0F0C0F1C03E
:10164000F2C0F3C0E0912368E395E0932368EC993E
:101650000C94151DE2E0E093110BF89420921A0B04
:1016600020921B0B78942092E4692092E569332440
:1016700003C0E3E03E2E00C0E398E998ED98E1E076
:10168000B0C1ED99E4CF1EF43394E1E0AAC1E32D9B
:10169000E43108F4ECCF3092EE69E39A77DCEEE0C7
:1016A000A0C1ED99D4CF1EF3E39A77DCEE27529BCD
:1016B000E395E093FF69E998EA98EB982092EF6947
:1016C0002092ED69E0EFF9E6CFE02192CA95E9F7C3
:1016D000E0912468E395E43650F0E0912368F091BE
:1016E0002568E0932568EF1BE0932668E0E0E0932F
:1016F0002468E2E176C1ED99A5CFE091EF69EF3082
:1017000008F0A0CFF0EFEF0FF9E6F21D3192E05FA5
:10171000E093EF69E091ED69E325E093ED6946F52B
:1017200009F090CFE3E0E093110BE0912768F0918E
:1017300028683196E0932768F0932868E09129683B
:10174000F0912A68E21DF21DE0932968F0932A685F
:10175000E091E669F091E769F695E795F695E795EA
:10176000F695E795F211EFEFE093166AE1E139C1E2
:10177000E091E669F091E769F695E795F695E795CA
:10178000F695E795F211EFEFE093146AE0E129C1D5
:10179000ED9B0EF457CFE091E669F091E769F6957D
:1017A000E795F695E795F695E795F211EFEFE0935B
:1017B000156AE2E116C1ED9B0EF044CFE2E0E09342
:1017C000110B2092E4692092E569E091E669F091BD
:1017D000E769F695E795F695E795F695E795F211A1
:1017E000EFEFE093176ADFD1E2E0FBC0E398E3E1BB
:1017F0001EC0E4E11FC0E5E11AC0E6E11BC0E7E15D
:1018000016C0E8E117C0E9E112C0EAE113C0EBE15C
:101810000EC0ECE10FC0EDE10AC0EEE10BC0EFE15C
:1018200006C0E0E207C0E1E202C0EFE003C0330C13
:1018300030F8D7C01EF030FC05CFD3C030FE02CF49
:10184000D0C0E39AE6E1F8EC83DA0EF000CFC09165
:10185000126AD0911970EB99D860D3FFC070D09103
:101860001870EB99D260EA99D0FFCC7FD1FFC3709A
:10187000C093126A529BB399FCCE00C0E99AD091F2
:101880002A70C0910A0BCD23D0912970CD0FCF7053
:10189000C093136AC15BDCE0F001CD9FF894009225
:1018A0001C0B10921D0B78940F01E091E669F091EA
:1018B000E769F695E795F695E795F695E795F211C0
:1018C000EFEFE093186AE0E00E94BD12E0E0E093E1
:1018D000110BE091126AE0FF06C0C090026AE89A1C
:1018E000EDE0E0931301E4E07CC0F091126AE09136
:1018F000036AF1FDE0934208E8E6F1E0F894E09332
:101900001C0BF0931D0B7894E5E06BC0D0912C700C
:10191000C0910A0BCD23D0912B70CD0FCF70CE5A32
:10192000D091136ACD1BDCE0F001CD9FF8940092BA
:101930001C0B10921D0B78940F01E091126AE2FFCC
:1019400006C0C090046AE89AEDE0E0931301E6E077
:1019500048C0E0EFF0E0F894E0931C0BF0931D0B0F
:101960007894E7E03EC0F091126AE091056AF3FDD9
:10197000E0934208E0EEF1E0F894E0931C0BF09362
:101980001D0B7894E8E02DC0F091126AE091066A90
:10199000F4FDE0934208E9E024C0F091126AE0917E
:1019A000076AF5FDE0934208EAE01BC0F091126A75
:1019B000E091086AF6FDE0934208EBE012C0F09176
:1019C000126AE091096AF7FDE0934208E2E0E093D1
:1019D000110BECE006C02092126A0E94D915E0E0DB
:1019E00000C0E093E869AF91BF91CF91DF91E1E052
:1019F000E093150BE1E0E0935201EF91EFBFEF911F
:101A0000FF91089520D016D0F0910C68E0910D68F8
:101A1000EF01CD2B49F0F0930D70E0930E70E09143
:101A20001970E062E09319700895F8940E940720FD
:101A30000C94011369D0B0E029D0B395A0912D6A20
:101A4000BA17D1F70895E091FF15E030A9F0EF3F04
:101A500009F0DDD259D0B0E0A8950FD020F4CE2FF8
:101A6000D4E18A2FD7D2B395A0912D6ABA17A9F7DE
:101A7000CFEFD5E180E0D0D208952AD033960994F3
:101A800027D03196099424D03296099421D03096EB
:101A90000994A0E01BC0EA81A98116C0EA81F4E1A3
:101AA000A081F0E7A08310C0EA81F0E7A0810CC01C
:101AB000EA81F0E78CD208C0E981FA81A08104C0F4
:101AC000E981FA81A08300C008940895889408955C
:101AD000CB2FD0912D6ACD1778F4D0E0CC0FDD1F3D
:101AE000CC0FDD1FF0912E6ADF0FE881E43149F061
:101AF000F0E0EF5DFB4D0895C0E0DCECE1E2F4E2E4
:101B00000895E981FA810895A0E0B0E0B03059F479
:101B1000A03019F0A13021F006C0AEE6BAEC05C045
:101B2000A3E5BCEC02C0A0E0BAECA0932D6AB09390
:101B30002E6A089503C007C009C010C0A091001408
:101B4000A0930070C1CFA0910070BECFAA2329F04E
:101B500022F0E0E0F0E73BD2B7CF9BCFE0E0A3E09C
:101B6000B3CF97CF02C003C094CFADE0ADCFA830C4
:101B700011F4EC9AA9CF8DCF03C007C009C00FC0E4
:101B8000A0912F14A0932F709FCFA0912F709CCF66
:101B9000EA2F0E945C13EFE2F0E719D295CFEFE253
:101BA000A0E092CF0895C0EFD9E6A091EF6920920E
:101BB0002A6AE881E252F0E0F24E0994FFC010C1B7
:101BC0000FC10EC10DC10CC10BC10AC109C108C1B1
:101BD00007C106C105C104C103C102C101C100C1E1
:101BE000FFC0FEC0FDC0FCC0FBC0FAC0F9C0F8C019
:101BF000F7C0F6C0F5C0F4C0F3C0F2C0F1C0F0C049
:101C0000EFC0EEC0EDC0ECC0EBC0EAC0E9C0E8C078
:101C1000E7C0E6C0E5C0E4C0E3C0E2C0E1C0E0C0A8
:101C2000DFC0DEC0DDC0DCC0DBC0DAC0D9C0D8C0D8
:101C3000D7C0D6C0D5C0D4C0D3C0D2C0D1C0D0C008
:101C4000CFC0CEC0CDC0CCC0CBC0CAC0C9C0C8C038
:101C5000C7C0C6C0C5C0C4C0C3C0C2C0C1C0C0C068
:101C6000BFC0BEC0BDC0BCC0BBC0BAC0B9C0B8C098
:101C7000B7C0B6C0B5C0B4C0B3C0B2C0B1C0B0C0C8
:101C8000AFC0AEC0ADC0ACC0ABC0AAC0A9C0A8C0F8
:101C9000A7C0A6C0A5C0A4C0A3C0A2C0A0C09FC02A
:101CA0009EC09DC09CC09BC09AC099C098C097C060
:101CB00096C095C094C093C092C091C09FC09EC072
:101CC0009DC09CC09BC09AC099C098C097C096C048
:101CD00095C094C093C092C091C090C08FC08EC078
:101CE0008DC08CC08BC08AC089C088C087C086C0A8
:101CF00085C084C083C082C081C080C07FC07EC0D8
:101D00007DC07CC07BC07AC079C078C077C076C007
:101D100075C074C073C072C071C070C06FC06EC037
:101D20006DC06CC06BC06AC069C068C067C066C067
:101D300065C064C063C062C061C060C060C05FC095
:101D40005EC05DC05CC05BC05AC059C058C057C0BF
:101D500056C055C054C053C052C051C050C04FC0EF
:101D60004EC04DC04CC04BC04AC049C048C047C01F
:101D700046C045C044C043C042C041C040C03FC04F
:101D80003EC03DC03CC03BC03AC039C01AC019C0BB
:101D900018C017C016C015C014C013C012C011C09F
:101DA00010C00FC00EC00DC00CC00BC00AC009C0CF
:101DB00008C007C006C00DC009C00EC0A1502196C2
:101DC00036C0A0932B6AC093286A7BCAA150219683
:101DD000C6C0A1502196C4C0A1502196BBC000C06E
:101DE000EA9AE881F0910070B0911970B5FFEF1395
:101DF000C6C9A15021961BC0EB9AFBCF62CAEA9AD2
:101E0000E981E330E88111F4E03C79F0F0910D7064
:101E1000B0911970B5FDEF13B2C9E981F0910E7060
:101E2000EF13ADC9A250229602C0EB9AFBCFA0934C
:101E30002B6AC093286AE881E295EF70EE5DF0E0CE
:101E4000F04E09940FC024C039C038C0A5C9A4C938
:101E5000A3C9A2C9D5C9D4C9DDC9D7C955C054C001
:101E60000ECA0ACAE991EF70E85CF0E0F04E0994FE
:101E7000F9C9FDC92ACA29CA20CA1FCA1ECA1DCA51
:101E80001CCA1BCAA6C9A5C918CA17CA16CA9CC9A2
:101E9000E991EF70E25BF0E0F04E09940ECA0DCAD2
:101EA0008FC98EC90ACA09CA08CA07CA06CA05CA9A
:101EB00004CA03CA02CA01CA00CAFFC9E991EF7184
:101EC000EC59F0E0F04E0994F8C9F7C9F6C9F5C924
:101ED000F4C9F3C9F2C9F1C9F0C9EFC9EEC9EDC936
:101EE000ECC9EBC9EAC9E9C9E8C9E7C9E6C9E5C966
:101EF000E4C9E3C9E2C9E1C9E0C9DFC9DEC9DDC996
:101F000055C959C9DAC94DC9E991EF71E657F0E0F1
:101F1000F04E099470C962C965C9CFC9CEC9CDC98F
:101F2000CCC9CBC9CAC9C9C9C8C9C7C9C6C9C5C925
:101F3000C4C9C3C9C2C9C1C9C0C9BFC9BEC9BDC955
:101F4000BCC9BBC976C97AC97EC982C986C94EC90E
:101F500066C96AC9A0932B6AC093286A12C9ADC921
:101F6000A0932B6AC093286AE991E03F08F4A5C9C1
:101F7000EF70E354F0E0F04E09949FC99EC99DC9EB
:101F80009CC99BC99AC999C9AEC997C996C995C92F
:101F900094C993C992C991C990C920922F6A20927D
:101FA000306A089504D0FE2FE0E2EF1B0895E0911F
:101FB000306AF0912F6AEF1B08F4E1950895E091E3
:101FC000306AF0912F6A8894EF1308940895C091B5
:101FD000306ACF5CD0E0D549B993E993F993A993DE
:101FE000C153C03208F0CC27C093306A0895C09125
:101FF0002F6ACF5CD0E0D549B991E991F991A991C7
:10200000C153C03208F0CC27C0932F6A089590E3E3
:10201000889408C092E102C093E100C0A881A8178B
:10202000A9F00894A0910210A1FDFCCFA0FDFACF69
:10203000ADE9A4BF9093001008F48993A4BFA1E078
:10204000A0930010A0910210A1FDFCCF089519C02B
:10205000C0911E77E0912B68CE1BC158ECE8FAE6E0
:102060000E947115B093726AC0911C77E0912C6840
:10207000CE1BC158E2E9FAE60E947115B093736A6B
:1020800008950F9803D008D00F9A0895E0E0E093E8
:102090006D6AE0936E6A0895A0E0A0936F6AA093C2
:1020A000706A089592E0E0916D6AF0916E6AFE1395
:1020B000E3959A95E1F7E0936D6A089592E0F3DF76
:1020C000E0916D6AF5E790916E6A9E1729F0908114
:1020D0009993E3958A95B9F7E0936D6A0895CAE5F7
:1020E000D1EC1EC0CEEAD1EC1BC0C0E6D1EC18C0CA
:1020F000C6E6D1EC15C0C2E7D1EC12C0CCE6D1ECFB
:102100000FC0C8E7D1EC0CC0CEE7D1EC09C0C4E8E1
:10211000D1EC06C0CAE8D1EC03C0C0E9D1EC00C0E4
:102120009991899103D09A95E1F70895E091706AA9
:10213000F0916F6AFA95EF1739F0F6E78193E09323
:10214000706AE0EAE09325080895F0912408F5FF0D
:10215000FCCF00C080932208089505AA003F01200B
:1021600005AA0007010005AA003E010005AA003DDE
:10217000010005AA003D010C04AA0120080004AAE0
:10218000011A060004AA0134020004AA015516002F
:1021900004AA01006B0006AA00410221040006AA5D
:1021A00000410224000006AA00410224060006AAFB
:1021B00000410221020006AA00410224030006AAEF
:1021C00000410221010006AA00410221070006AADF
:1021D000004102240500EFEAFAE64AC2D3EA41C20E
:1021E00042D2F5D140D2E0910210E1FDFACFE7DE14
:1021F000C0F7FDDEC081CA17B1F3A083F4E1CDE9D9
:10220000D3E1C4BFD0930010A083D1E0C4BFD0936A
:102210000010D1E0D0930410D0930310E2CF84E1FA
:1022200090E00E941B230E94DD150E941316F7CF39
:10223000ECE8FAE6C0E8D4E70E946415E2E9FAE6C1
:10224000C0E9D4E70E94641580ED97E00E941B234B
:1022500023DF1CDF82E390E00E941B2346DF82E342
:1022600090E00E941B233EDF82E390E00E941B234C
:102270003FDF82E390E00E941B233DDF82E390E09A
:102280000E941B2303DF08DF01DF47DF84E690E0C5
:102290000E941B23C0E0D7E78FE710DF91D1D8DE83
:1022A000F3CFE1D194D1DFD10E942517FBCFEFEA24
:1022B000FAE6E3D185E090E00E941B238FE090E0F6
:1022C0000E941B23F4CF00002AD21FD282E390E0A9
:1022D0000E941B231FD288EC90E00E941B2315D282
:1022E00082E390E00E941B2315D288EE93E00E94C7
:1022F0001B23EACF0C9497140E9412170C942315F9
:10230000F7ECE4E7DAE6C1EB82E10E944A1514D06B
:1023100037D03FD047D04FD057D05FD067D06FD0A5
:1023200011272227D9E0C9E9C093ED6AD093EE6A5C
:10233000089578940C94A321E1EBFAE6E093EA6A1D
:10234000F093EB6A08950E94EE202092F16A2092A9
:10235000F26A2092F36A1D7FE091F16AF091F26ACD
:10236000C091F36A3196C21D11FDEFCF2223D1F344
:10237000E093F16AF093F26AC093F36A28D1ECCF4C
:10238000E7ECF1E2E0933F69F0933E6908950C9425
:10239000F020E0EDF1E2E0935F69F0935E6908956B
:1023A0000C940F21E9EDF1E2E0936169F09360692B
:1023B0000895A2E92DC0E2EEF1E2E0936369F093A3
:1023C00062690895A3E924C0EBEEF1E2E09383692A
:1023D000F093826908950C941821E4EFF1E2E09300
:1023E000A369F093A26908950C945121EDEFF1E2F5
:1023F000E093C369F093C26908950C945721E6E015
:10240000F2E2E093E369F093E26908950C946321AA
:102410000C94EB1210FD77C0F093FC6AFFB7F093B9
:10242000FB6A1160E093FD6AD093FE6AC093FF6A75
:10243000B093006BA093016B9093026B8093036B3E
:102440001092046B0092056BC091EF6AC395C09324
:10245000EF6A09F41860CF7009F41460C0FD14C06D
:102460001061C091ED6AD091EE6AC15015F410620E
:10247000C97F10F41064C979D04010F41068D97085
:10248000C093ED6AD093EE6A17FD4DD06ED014FD67
:102490000E947A2113FD0E947C2114FF1BC0DAE602
:1024A000C7ECA1E0E881F981319788F071F42A2B1B
:1024B000E883F983EA81FB81FE2B49F0FB810180EF
:1024C000A0950A22A095018202C0E883F983249690
:1024D000AA0F41F70090056B1090046B8091036B7D
:1024E0009091026BA091016BB091006BC091FF6A5B
:1024F000D091FE6AE091FD6A1270F091FB6AFFBF15
:10250000F091FC6A0895F894E1E0F1E00E94B715BB
:10251000FFEF3197F1F7E0E0F1E00E94B715F0E44A
:102520003197F1F7F0CFE091F26AF091F36AEE0F94
:10253000FF1FEBE8FE9F000C111CE4E6E119E0939D
:10254000F06A1260C091F56AD091F66AC093F76A9A
:10255000D093F86AD695C795D695C795C093F46A77
:102560002092F66A2092F56A0895E091EF6AEF7082
:10257000E093EC6AEE0FF0E0E054FD4D099408950D
:102580000C94BF220C94BF220C94BF220C94BF2247
:102590000C94BF220C94BF220C94BF220C94BF2237
:1025A0000C94BF220C94BF220C94BF220C94BF2227
:1025B0000C94BF220C94BF220C94BF220C94BF2217
:1025C000F091E76AFF0F11F02F1708F40895E091DA
:1025D000F56AF091F66A3196E093F56AF093F66A3F
:1025E000C091EA6AD091EB6AEDB7FEB7E993F88340
:1025F000E0E2F22FC0E8FF0F30F019F0C695E4508A
:10260000D1F7CC27EE27C093E76AE093E96AE69515
:10261000E093E86ADAE6C1EBCE0FD21DC093EA6A16
:10262000D093EB6AE991F881CFB7F894EDBFFEBF84
:10263000CFBF08959927C3ECDAE6B091E96ACB0FD2
:10264000D21DBFB7F89488839983D091E76AD0955B
:102650002D23BFBFBCCF07D0BACF03D0B8CFD09106
:10266000E76A2D2B0895D091E76AD0952D23089520
:10267000208221820895689401C0E894D091E76A8D
:10268000BFB7F894C081CC2321F0CE7FC083BFBFF9
:102690000895C181CD2BC183BFBF0EF0DCCFCBCF5E
:1026A000BFB7F894C191D081DD2321F4C160C293FA
:1026B000BFBF089520822292BFBF0DC0BFB7F8945C
:1026C000D081D260D193D081DD2311F4BFBF0895B2
:1026D0002082BFBF00C0E3ECFAE6CD2F3496CC0FCA
:1026E00041F0E0F7F8942192219221922192BFBF0C
:1026F000F6CFB7CF20820895BFB7F894A081AE7F00
:10270000A083BFBF0895F8DFB8CFE1E0F1E00E94F9
:10271000B7150895E0E0F1E00E94B7150895C6E00E
:10272000DBE6E0E6F7EC0C2E9FEFA191B191BF3F05
:1027300081F011968FEF83951D901120E1F38211A6
:1027400083958993981788F38211982F82110C2E04
:10275000ECCF9093F96A0894C009C093FA6A08957F
:102760000069206940696069626964698469A46973
:10277000C469FFFF1F693D695D695F6961698169BE
:10278000A169C169E169310B0000010701310080D5
:10279000626A000100404031008000000002310BFD
:1027A0000000010701310081626A000100404031F0
:1027B000008100000002310B0000010107310080A0
:1027C000626A000100404031008000000002310BCD
:1027D0000000010107310081626A000100404031C0
:1027E0000081000000023103000001001031008070
:1027F000A46A000100404031008000000002310363
:102800000000011000310080A66A00010040403144
:10281000008000000002110B000001024011008046
:10282000516A0001010240110080646A0001014206
:1028300040110081A86A00010040401100800000A2
:10284000000227C926C925C924C923C924C921C909
:1028500020C924C929C92CC91EC91BC92DC919C918
:1028600018C917C929C92CC914C913C912C911C952
:1028700010C9FFFFFFFFFFFFFFFFFFFFFFFFFFFF8D
:102A0000149A1D7F080101FF080402FF080403FF58
:102A1000088004FF084005FF0412000014B11D00E7
:102A2000040206FF084007FF081008FF0404000026
:102A30000800090008000A0008010BFF08010CFF4C
:102A400008C30DFF08E80EFF08000FFF080010FF85
:102A5000080011000800120008001300080014000C
:102A60000800150008001600080017FF0896181146
:102A7000080A1911101A7000040000FF04FF00FF7B
:102A800008011BFF08021CFF08041DFF08081EFFA9
:102A900008101FFF082020FF084021FF088022FFA8
:102AA000080023FF080024FF080025FF080026FF78
:102AB000080027FF080028FF0804290F08002A0F34
:102AC00008042B0F08002C0F08052DFF080A2EFF05
:102AD00014BC1DFF084730FF0814313F0802320FB5
:102AE00008FF33FF08C834FF086435FF086436FF69
:102AF000088037FF088038FF088039FF08803AFFD8
:102B000000000000000000000000000000000000C5
:102B100000000000000000000000000000000000B5
:102B200000000000000000000000000000000000A5
:102B30000000000000000000000000000000000095
:102B40000000000000000000000000000000000085
:102B50000000000000000000000000000000000075
:102B60000000000000000000000000000000000065
:102B70000000000000000000000000000000000055
:102B80000C0368000C0268000C0168000C0068006F
:102B90000C0768000C0668000C0568000C0468004F
:102BA00008003BFF08003CFF04010000040900008E
:102BB0000401000004000000FFFFFFFFFFFFFFFF14
:102C000004090000040100000000000000000000B2
:102C10000C0368000C0268000C0168000C006800DE
:102C20000C0768000C0668000C0568000C046800BE
:102C30000C0877000C0977000C0A77000C0B770062
:102C40000C0C77000C0D77000C0E77000C0F770042
:102C50000C1077000C1177000C1277000C13770022
:102C60000C1477000C1577000C1677000C17770002
:102C70000C1877000C1977000C1A77000C1B7700E2
:102C80000C1C77000C1D77000C1E77000C1F7700C2
:102C90000C2077000C2177000C2277000C237700A2
:102CA0000C2477000C2577000C2677000C27770082
:102CB0000C2877000C2977000C2A77000C2B770062
:102CC0000C2C77000C2D77000C2E77000C2F770042
:102CD0000C3077000C3177000C3277000C33770022
:102CE0000C3477000C3577000C3677000C39770000
:102CF0000C3A770000000000000000000C1C680087
:102D00000C1D68000C1E68000C1F68000C20680079
:102D10000C2768000C2868000C2968000C2A680041
:102D20000C1A77000C1B77000C726A000C736A0097
:102D30000C146A000C156A000C166A000C176A0065
:102D40000C186A000CEE690004550000FFFFFFFF3D
:00000001FF
; 
; *** EOF 
