:020000020000FC
:100000000C9448000C9455020C9455020C94EB018E
:10001000010020D100000005DC76DD675571DDE7C9
:1000200007C209C20BC20DC2FCC0F2C0FAC5FBC5B3
:100030000DC20AC212C2C0C3C5C34AC44DC4D6C38E
:10004000E0C3E7C37AC453C461C4CAC3BFC3C3C354
:10005000F3C421C215C21AC263C368C373C374C395
:100060007CC388C39FC3A3C3AEC411C118C1A5C4B8
:10007000D8C3E2C3BEC3FEC407C519C5E1C6E4C602
:10008000E6C6E8C6EDC6FBC60BC7CFC1CCC0FCC0F8
:10009000F8942224E7E2F9E6EDBFFEBFE8EDF7E0D1
:1000A000E4BFF0930001A895E8EDF4E2E4BFF0931B
:1000B0006800E0914000E0934000EFBBE8EDE4BF52
:1000C000209201102BBE4F98479A4F98479AE8E02C
:1000D000E0935704E0935704E8EDF0E6E4BFF093B3
:1000E0001001E0914101E211FCCF209248012092E1
:1000F0004901E1E0E0934001EFE1E093E205EFE048
:10010000E093E405E8E0E0935704E0935704E093BC
:100110005704E0935704E0E0F8E02682A0ECB0E05A
:10012000A087B187A0E8A583A3E0A783A2ECA6835C
:10013000479847984F9A4F9A479A479AF89BFB9946
:100140006ED064D0A0E8A0931204A0931304A093EF
:100150001004A0931104A093B304A59A029A039AE1
:10016000009A019AA19AA29AA39A479AF89B06C06C
:10017000E0E0F0E6AFEFA193F836E8F3E0ECF8E664
:10018000FB99E0E4FB99F8E6F899E0E0F899F8E6E5
:100190002192F038E8F3E0914801F0914901F23002
:1001A000D0F3E2E035D039D0BAD2C2E037D5E09111
:1001B0000090EF3F11F0DFD419F07DD4DCD409F4C6
:1001C00087C1E1E068C160D0E0E0FAE020822182EE
:1001D00022822382AFE0A083E0E0FBE02082218244
:1001E000AEE6B1E0A487B587A1E0A583A5E0A08332
:1001F000E0D2E5D2789406D010D0C2E606D5E0E091
:100200000FD26BC0E0E004C0EFEF02C0E1E000C03D
:10021000E0FDAD9AE0FFAD980895E0E002C0E3E4B0
:1002200000C0F3E400C0F0FF04C0E0FD0A9AE0FF64
:100230000A98F1FF04C0E1FD0B9AE1FF0B98F2FF71
:1002400004C0E2FD089AE2FF0898F3FF04C0E3FD52
:10025000099AE3FF0998F4FF04C0E4FDA99AE4FFBA
:10026000A998F5FF04C0E5FDAA9AE5FFAA98F6FF54
:1002700004C0E6FDAB9AE6FFAB98F7FF04C0E7FDCC
:100280004F9AE7FF4F980895E0E0FCEBCCCFF8944D
:10029000E8EDF1E0E0933400F0934100FFCFF894F3
:1002A000A895E8EDE4BFE1E0E0930001FFCFCDD3F6
:1002B00016D39681C1D30C92BED3CCC3C6D3BBD3C5
:1002C0009781BAD30CD309901C9001100C9211960F
:1002D0000197C9F7B0D3BED30895E7E2F9E6EDBFC1
:1002E000FEBF222734E0EAE29BD1C091006996D498
:1002F0003CD1203491F324FD10C026FFF9CFEAE968
:10030000F3E0059000160590159019F4F001099599
:10031000E4CFE63DB1F720FFEBCF003449F7622F81
:100320006370613029F720620DD17A3B21F462318C
:10033000A1F62061DDCF24FFD0CF7B3B39F46930BB
:1003400060F6C62F6BD4246031E0D2CF7C3B21F421
:1003500022FFC3CF98D1CCCF7F3B51F6603011F450
:100360000AD0BBCF613009F40AD0B7CF68E08BC1A7
:10037000C02F4BD4B2CF87D3E0EE52D1AECF9BD3B8
:10038000EEEE4ED1AACF0053E1E00A9512F0EE0F47
:10039000FCCFFEB3FE27FEBB089530C30131C3017D
:1003A00032C30133C30134C30135C30136C301373E
:1003B000C301535E0252450264B60161B80162B8DE
:1003C0000163B80165B80166B80173B80175B80179
:1003D0006CB801006D01EFB64F01E0910408E7FF32
:1003E00013C0E72DE619E03C23FF08F04F9AE09197
:1003F0000108E2FD82C0F0E7E72D709000087192DD
:100400007E2EF401EFBE1895E091060BE093060BEB
:10041000761411F442104A943A9422F4332EE0E216
:10042000E093A704F401EFBE1895E0E0F0E0089532
:10043000EDE0F0E00895E0E2F1ED0895E1E0F0E0B4
:100440000895E0E2F1ED089503D0EDC301D0E9C3D2
:10045000AFE0B0E0C0E1D1E10895F8DFA193B1933E
:10046000C193D193F1DFA193B193C193D193089537
:10047000DFEF672C94D06710FBCF2197D9F7089551
:1004800017D048F00895EBE001C0EAE0CADE209200
:10049000480120924901A895F8944F98F0E208D0BD
:1004A000E8F7BFDEF0E404D0E8F7ACDEB6DEEFCE6E
:1004B0000090480100904901F0150895C09100692D
:1004C000ADD359D3C9F4CF3211F0CB32A9F4D0DF78
:1004D000209205082092000A2092000B2092050B22
:1004E000209248012092490193D1FE01E050F0484A
:1004F000F695E795F8940994FBCEF89420920608B7
:100500004F98E8E085DEE5E58CDEEFEFA89500C0CA
:1005100000C000C0E211EA95579BF8CFE211F5CF79
:10052000C4CF8E2F99277DDEE8E072DEE6EA78D030
:10053000F0911500E2E0F5FDEAE06ADE32E0672CBA
:100540002ED0F6CF04D0702F02D0602F089507D0A0
:1005500002950F9304D00F900029F00E089505D056
:100560000F7D075308F4095D089519D0421002C0A9
:1005700025FDB3CE7614C9F3F0E7E62D0081639430
:10058000206442102F7B26FD2F7EFBE04F2E21FFA3
:1005900023950A3011F00D3009F42C7F00C00F01B3
:1005A000A89523FD06C0E72DE619E03218F44F9810
:1005B00001C04F9AF0010895019101D003C00F933B
:1005C000029501C00F930F70005D0A3308F0095FB8
:1005D0001BD00F910895092FF0DF082FEECF0AE00E
:1005E00013D00DE011C0E0E0F1E1E6DFE5DFE4DF8C
:1005F0000EE20AD029DFCE01EEDFCD01ECDF26DFEF
:10060000CE01E9DFCD01E7CFD8E1C9DF00900408D2
:1006100005FEFBCF21975799C1F700930208089573
:10062000E0930169FDE0E091016905910DBBE09364
:100630000169002391F012F0E7DFF4CFE9990ED0C1
:10064000EA9911D0EB991AD0EC99CDDFEE9913D03D
:10065000ED99B4D2E899C3DFE5CF0895C591E09351
:100660000169DCD292C200900069109031690AE2FF
:1006700010100895C9CF09E0C7DF89C2EC9BABCF4A
:10068000EC980EB39ACF6CBBE099BCD2E19907D03D
:10069000E3999CD2E6991CCFE799F5CE089517D13E
:1006A000B7D0C0930269D09303695FDF20FFFDCF0D
:1006B0000A33D9F74CDF502EF02E44DFC091026987
:1006C000D0910369C60FD71F42DF003031F00130EF
:1006D000F1F0023069F0E4E024CFFDD00894520834
:1006E000A0F02AD1E5E0C8F032DF802F0ED1F6CF9E
:1006F00029DF660F771F660F771F660F771F660F5C
:10070000771F609302697093036903D0CECF5AD1EB
:1007100000C01DDFF21411F0E6E003CF0895BBD056
:10072000C4E9D3E049D04EC0A8950895C487D587C1
:100730000895C93008F0C9E0DCE0CD9FE001C25067
:10074000D5470895F6DFADC0C083D183C48BD58B68
:10075000CA0FDB1FC283D3830895A68FA895C28FCB
:10076000D38FD5D020F0C28DD38D2197B9F70895BE
:10077000AA27BB27C48FD58FEC8FFD8FA895A28F9A
:10078000B38FC48DD58DFE01B2D048F0C48DD58D08
:10079000FE01BCD020F0A28DB38D119779F708959A
:1007A0008FEF79D0868FA895B2D0E8F70CC1FADF29
:1007B00076CD71D0CFE2D5E0C68BD78B08956BD0C4
:1007C000C8E3D5E0C08FD18F089565D081D00ED019
:1007D00018D027C260D07CD009D013D024C25BD0FF
:1007E000F5DF02841384C015D1050895C489D58925
:1007F0000895C489D58900801180C019D109089550
:100800004AD0A281B38104881588A019B10908953E
:1008100042D0C081D18108953ED0C281D381089554
:100820003AD000801180C281D381C019D10909F06A
:1008300021960024021C08957CDFFE0100801180B7
:10084000C281D381F2CF0C2ECAE0DBE818841014E9
:1008500019F02C96CA36D1F70895DCE0CD9FE0015F
:10086000C250D5470895CE01CAE0DBE80880198060
:100870008015910530F00A801B808015910531F0BC
:1008800028F02C96CA3691F7089408958894089514
:10089000A0E0B1E70895E8E2F9E60895FCDFA48757
:1008A000B5878CE0099001928A95E1F73C97C48165
:1008B000D5812197C095D095C28BD38BC081D18132
:1008C000C687D787C08BD18B278E02D07EC0E3DF4F
:1008D000C081D18101C0DFDFC48BD58B08958481B5
:1008E0009581A685B785C485D5850895D4DF25D0A3
:1008F00038F0C489D58950D020F08991C48BD58B2C
:10090000089521968FEF0894F9CFC5DF868F15D013
:1009100090F053D0C481D5812197A489B589CA2389
:10092000DB231196A48BB58BA485B585CA0FDB1F7D
:10093000868D888388940895AEDF04881080011422
:1009400005881180010440F0048812800114058894
:100950001380010419F010F0089408958894089504
:100960009ADFC489D589A685B785CA17DB0730F019
:10097000A089B189CA17DB0719F010F0089408950F
:100980008894089588DFC685D78506D0A78DAE7F69
:1009900008F4A160A78F0895C034B0E1DB0748F0E8
:1009A000D63148F0D03628F0D03828F0D03908F0C9
:1009B00002C00894089588940895D3DF10F403D0FA
:1009C00004D0089568DF2BD026C0C489D589028859
:1009D0001388C021D121C687D78784819581C80F0C
:1009E000D91F2197C08BD18BCEDF40F0A685B7856C
:1009F000C485D5850D9009920197E1F70895078C7C
:100A000000FC07C06CDF09901D90011419F40197D8
:100A1000D1F718940895F3DF09F050CC0895078CAE
:100A200000FC08955CDF09901D90102001103FCC60
:100A30000197C9F7089590E0809102108370E1F763
:100A40008DE984BF90930010089506880F9207885F
:100A50000F920895008C0F92018C0F9208952860D8
:100A60004F9AFF93F4E69BDDFA95E9F7FF9108951D
:100A7000277F95CDC2E066DE80E180930110B0DE75
:100A800020920110089507DFEF01DFDF2DD069F01C
:100A90009BE0D2DFE895CFDF92E0CEDF00801180CF
:100AA000E8953296F03AD1F7C6DFFE01D3CFC2E027
:100AB00049DE02D0F4CBEFDEFF93EF93C6DFDADF3F
:100AC00081F412D071F094919F3F59F09BE0B4DF14
:100AD0000082B1DF92E0B0DF04900192F03AE1F7DA
:100AE000AADFEF91FF91B6CFE0E0F0E99491819118
:100AF000891711F4F03AD1F7E0E0F0E90895000029
:100B0000FFFF010000002D00000000A0FFFF000219
:100B1000080266012FD10090FF9F000208026202C6
:100B20002BD10014FF150100181265032ED180107F
:100B30009F102000080263042CD100111F11010036
:100B400000007305000050105810010000007506E9
:100B500000000060FF670002000061072AD140101A
:100B60004F10010000006C0800000011001101008E
:100B700000002D09000033DEA0930469B0930569DD
:100B8000C0930669D09307690895F5DF06C0E0E1D8
:100B9000E0930110F0DF20920110E0ED09F4E6EDA2
:100BA0000ED0909107698091066915DD90910569D5
:100BB0008091046910DD02C0E0ED01C0ECEDFDE0C4
:100BC0000591002311F020DDFBCF089508DD7FDEC5
:100BD000F3DF61DE8489958900E1080F090FF02EAB
:100BE000E2E91EDD83DE38F0082FF00EE6DC53DE8E
:100BF00004890F70B9F7E0DFF1940F2DDEDC9CDE85
:100C000040F7089564DECCDDDDCE05D0009131697A
:100C100000930069089517DE3BDE40CE1EDE38DE0D
:100C20003DCEE89404C06894CA0FDB1F00C0EF9368
:100C3000FF936FEF7FEFCB01FF27A8950EF0199080
:100C40000EF41A9008941794062E0F1E9695879509
:100C50007795679500FE08C0EDEE9E27E8EB8E279E
:100C6000E3E87E27E0E26E27169471F7119728F7E4
:100C700090958095709560950E01DB01EC018623BF
:100C8000872389238095FF91EF910895FFFFFFFF50
:100D0000A1811B5B34316D2E2E2E5B524553455411
:100D10002D885DA11B5B34346D2E2E2E5B524F4D02
:100D20002E4D4F422E4431325D00A1814944205B5B
:100D3000905D814C3A208708523A201B5B33326D1C
:100D40004431325230303031A1533A208705553A80
:100D500020870681413A208707423A20C702433A5A
:100D6000208704453A208703463A20870181524F65
:100D70004D205B987C527C537C645D202D205B6110
:100D80007C627C637C657C667C6C7C737C755D3E80
:100D90002000813A31301B5B39346DA81B5B393040
:100DA0006D3030A0000081811B5B34356D2E2E2EFE
:100DB0005B4572726F722023885DA0202D203C62FB
:100DC0007265616B3E20746F20726573756D65008E
:100DD0001B5B39306D001B5B33326D001B5B6D009C
:100DE000A1811B5B34346D5B532D3E5D0000A181FE
:100DF0001B5B34346D5B3C2D525D0000FFFFFFFF39
:100E0000ACAAA9A5A3A69C9A999593968E8D8BB111
:100E1000B2B4B874726C6A696563665C5A595553AA
:100E2000564E4D4B4771E8E4E2D1C9C5D8D4D2CA79
:100E3000C6CC78171B1D1E2E363A272B2D3539337D
:100E40001ED00ED01CD00CC00BD019D009C017D0AA
:100E500007D015C005D0E991EF73E081ED930895B7
:100E6000E991EF70F881FF0FEE1FFF0FEE1FFEE814
:100E7000E081ED93E991EF73E081ED930895FEE851
:100E8000E881E695E695E081ED93E991E370E295DE
:100E9000F881F07FF295EF2BFEE8E081ED93089565
:100EA000FEE8E881E081ED930895FFFFFFFFFFFF7B
:100F0000005EBCE2613FDD83C29C7E20A3FD1F41E9
:100F10009DC3217FFCA2401E5F01E3BD3E6082DCD9
:100F2000237D9FC1421CFEA0E1BF5D0380DE3C62C9
:100F3000BEE0025CDF81633D7C22C09E1D43A1FFB9
:100F40004618FAA427799BC584DA3866E5BB5907A9
:100F5000DB856739BAE406581947A5FB7826C49A99
:100F6000653BD987045AB8E6A7F91B45C6987A2489
:100F7000F8A6441A99C7257B3A6486D85B05E7B979
:100F80008CD2306EEDB3510F4E10F2AC2F7193CD69
:100F9000114FADF3702ECC92D38D6F31B2EC0E5059
:100FA000AFF1134DCE90722C6D33D18F0C52B0EE49
:100FB000326C8ED0530DEFB1F0AE4C1291CF2D7339
:100FC000CA947628ABF517490856B4EA6937D58B29
:100FD0005709EBB536688AD495CB2977F4AA481619
:100FE000E9B7550B88D6346A2B7597C94A14F6A809
:100FF000742AC896154BA9F7B6E80A54D7896B35F9
:1010000087C0FFCFFFC7FFCFFFC7FFCFFFC7FFCF0F
:10101000FFC7FFCFFFC7FFCFFFC7FFCFFFC7FFCF80
:10102000FFC7FFCFFFC7FFCFFFC7FFCFFFC7FFCF70
:10103000FFC7FFCFFFC7FFCFFFC7FFCFFFC7FFCF60
:10104000FFC7FFCFFFC7FFCFFFC7FFCFFFC7FFCF50
:10105000FFC7FFCFFFC7FFCFFFC7FFCFFFC7FFCF40
:10106000FFC7FFCFFFC7FFCFFFC7FFCFFFC7FFCF30
:10107000FFC7FFCFFFC7FFCFFFC7FFCFFFC7FFCF20
:10108000FFC7FFCFFFC7FFCFFFC7FFCFFFC7FFCF10
:10109000FFC7FFCFFFC7FFCFFFC7FFCFFFC7FFCF00
:1010A000FFC7FFCFFFC7FFCFFFC7FFCFFFC7FFCFF0
:1010B000FFC7FFCFFFC7FFCFFFC7FFCFFFC7FFCFE0
:1010C000FFC7FFCFFFC7FFCFFFC7FFCFFFC7FFCFD0
:1010D000FFC7FFCFFFC7FFCFFFC7FFCFFFC7FFCFC0
:1010E000FFC7FFCFFFC7FFCFFFC7FFCFFFC7FFCFB0
:1010F000FFC7FFCFFFC7FFCFFFC7FFCFFFC7FFCFA0
:1011000001002BD101000000DC76DD67452AAC84AC
:10111000A895F8942224E8EDE4BF20921001E8EDB0
:10112000F1E0E4BFF0936200EFE1F9E6EDBFFEBF4E
:10113000E0E0F9E6C0E0DAE021922197E9F791D406
:1011400009F094D4A0D409F0A3D4EFB3E0930268DB
:10115000E0910468E395F999E0930468E0910368ED
:10116000E395FB99E0930368E0910068F0910168D2
:101170003196E0930068F09301686ED44F98479AD7
:10118000AC9AA49AE0E4F8E02682A0E8B1E0A08757
:10119000B1872582A3E0A783A0E4A683A9E0A0935A
:1011A000000A2092200A2092210AA1E0A093000BBD
:1011B0002092010BAFEFA0930C0BA0930D0B20928C
:1011C00052042092B0044298A098A9D4A8D42ED456
:1011D000A6D4E0917F68E21175C0E0915068E211F9
:1011E0001AC370C00C9410000C9411000C941200DF
:1011F0000C9413000C9414000C9415000C9416001D
:101200000C9417000C9418000C9419000C941A00FC
:101210000C941B000C941C000C941D000C941E00DC
:101220000C941F000C9420000C9421000C942200BC
:101230000C9423000C9424000C9425000C9426009C
:101240000C9427000C9428000C9429000C942A007C
:101250000C942B000C942C000C942D000C942E005C
:101260000C942F000C9430000C9431000C9432003C
:101270000C9433000C9434000C9435000C9436001C
:101280000C9437000C9438000C9439000C943A00FC
:101290000C943B000C943C000C943D000C943E00DC
:1012A0000C943F000C9440000C9441000C944200BC
:1012B0000C9443000C9444000C9445000C9446009C
:1012C0000C944700C0E4D8E68DDFF993E9938CDFF6
:1012D000F993E99397DFE4E4F8E6D193C193B193EE
:1012E000A193A0914768AF77A16020925069A09325
:1012F000516924D3A0910091B0910191B883A98341
:10130000A09100A1B09101A1BA83AB832C821CD320
:10131000288229822A822B822C8219D3E0E0F1E9EB
:10132000A081B181B883A9839BB781E08BBFA081E5
:10133000B1819BBFBA83AB832C82E8EEF3E0E093EC
:101340002369F09324690091FE154427E0914468D5
:10135000E093256921E0B5C180E5E1D3909136693C
:1013600080E0FA81943081F08B81953069F031FD15
:1013700091C18D81983009F091C1EA81E093206894
:10138000EB81E0932168FC81F0932268209223692D
:101390002092246973D123E09AC20CD284E4BFD393
:1013A0008E8180934A688F8180934B688885809373
:1013B00048688985809349688A8560D127E08BC217
:1013C000FED180E7ACD327E092C2F9D181E4A7D364
:1013D000909136699D3080E090E011F09B858C857E
:1013E00090934E6880934F68888580934C68898578
:1013F00080934D688A8582FD14D2837080935068F3
:1014000028E082D2809150688211FED15AC1909119
:101410003669953011F0983011F4EA8116C0973092
:1014200011F09A3019F4D0D1EC810FC0993011F03D
:101430009C3019F4BFD1EE8108C09B3011F09E3072
:1014400019F4BDD1E88501C029C1EC3080F4F0E089
:10145000E55DF54F0994E3C0E3C0E4C0E4C0E3C038
:10146000E2C0E5C0E5C0EBC0F1C0F9C0FEC029C1D3
:10147000ABD182E454D38C818093A46B38854985A9
:10148000823011F430FD1DC128E1E19A30FD40D2D7
:1014900030FF41D2C7E0E4E8FBE6E0DEC091A46B98
:1014A000F0D1DCDEE8D08E819F81E4D1EDEEDE2E3E
:1014B000E8EBCE2EE3E8BE2EE0E2AE2EEFEF9E2E5E
:1014C0008E2E7E2E6E2EC3D1FCC07ED183E427D318
:1014D0000C8009140D8008040E8007040F80060498
:1014E00028E211F428E4B3D1E0C16ED182E517D32C
:1014F00028E7B8D1E1C168D184E511D328E5DCC182
:1015000063D185E40CD328E03E7F4427CEC15CD173
:1015100086E405D3B6D190913669963019F08C8166
:1015200030FDA4DE30FDA6DECCC030FDB1C0909110
:101530003669933009F405C0953011F445D101C0E6
:10154000ADC082E7ECD29DD173DE8093486911D0A3
:101550006FDE809349690DD06BDE80934A6909D0B4
:1015600067DE80934B6905D09295909590934C6976
:10157000FBC1991F90FD08950894879585D18695A4
:10158000E9F7089530FF84C090913669933009F4EB
:1015900022C0953011F418D11EC09B3011F4229650
:1015A00006C09D3019F410D1249601C077C087E79A
:1015B000B6D278E069910894679566D16695E9F7A7
:1015C0007A95C1F7A8E0B0E02897E4E8FBE648DEAA
:1015D000A8E0B0E01BC0CFD081F478F0A0E0B2E783
:1015E00060E8C9D011F4E8F748F08FB74DD18FBF4C
:1015F0006795B8F76D93A13898F363C0A050B247D0
:10160000C0E0D2E7E4E8FBE62BDE00C0C4E8DBE69E
:1016100038D130FD29DE30FD33DE53C052C060C109
:101620005ED12CCE5DC15BD1EFD002E04AC05CC17F
:101630009E3009F046C057D124D12EDE42C09E30E4
:1016400009F03FC050D11DD125DE3BC048D1C1E0DB
:10165000FDD1CF3219F4D13D09F4D3D40FCE3FD10F
:10166000C1E00FD1FBDD8FEF03CE39D1C3E009D14B
:10167000F5DD8FEFFDCDC6E2D9E6089590910A0B16
:10168000982392111EC0089584E40CC082E50AC01C
:101690008DE408C083E406C085E404C08CE402C085
:1016A00084E500C03CD20DC0C0912369D09124696B
:1016B000219738F0C0932369D093246911F4B1D0F5
:1016C000B3CFEFE1F9E6EDBFFEBF29D228D2B0D00B
:1016D0002CBA6AE050D01130A1F76A95D9F74BD0F7
:1016E00081F7E8F3913808F43094C5DF7727EE27C7
:1016F00061E041D0A9F6661FE0F769937627C6330B
:1017000068F639D069F620F0E627FFE8E081F0CFEF
:101710007211C2CFE09337693D7FE2113260C65249
:10172000C0933669A8DFE881ED3F69F000FD7CCF0A
:10173000F981EF2BEA81EF2B29F4E0913669E33050
:1017400009F472CFB1CF6981603F08F4BACF6F70EE
:10175000E0EBF9E9660F660FE60FF21D0190022239
:1017600009F496CF019000FE02C031FD93CF0190A5
:101770001080F0010994A89511270AB0032402FEF5
:10178000FCCF9091200A2092200A2092210A0AB0D0
:10179000032402FCFCCF8091200A2092200A209290
:1017A000210A8D31111F813810FD8F30111F012E3C
:1017B00006940895E0E4F8E684E01DD00CC0E4E46B
:1017C000F8E686E018D007C00FD029F00AD019F04B
:1017D00005D009F00CD0821174CF0895EAE4F8E640
:1017E00009C0E8E4F8E606C0ECE4F8E603C0EEE47D
:1017F000F8E600C082E0DE01129601901D9001140F
:1018000011F48A95D1F70895C1E020D1CF3211F4B7
:10181000D13D09F0089583D1E09105A1E0FD01D00B
:10182000EFC3E8EDE0933400E5E8E093011008959C
:10183000F0E44211F0E1E0914801E0914901EF2329
:10184000E21103C000C048D15BC14AD15FC117D0CB
:101850000E0111DF6A8A7B8A8C8A9D8A0F8A188E14
:10186000298E089508DF6A887B888C889D888F89F7
:10187000988D00C006D0D8DCC80FD91FCFCC01D0BE
:1018800005CDE4E6FBE6089530F0969487947794CE
:10189000679430F009C0969487947794679420F009
:1018A0009D248C247B246A24089554D098828982B4
:1018B0007A826B822C8259C0E2DFDE018091A46BB8
:1018C00049D088832982BA83AB832C824EC0E0E45E
:1018D000F8E692E045C0E4E4F8E690E041C0E19A21
:1018E00033D024D042C0E19A32D020D03EC029D09B
:1018F0003CC0E19A32D0ED01ECE3E883E983EA836E
:10190000EB83EC83ED8334C0E19A18D00FD02DC067
:10191000C0EFD9E92AC0C091A46BB6DCDE011AD0B1
:101920000882B983AA832B822C821FC0E091011008
:10193000E470FC81FB7FFE2BFC830895C5E5D9E6AE
:101940000895C0E5D9E60895CAE5D9E60895CFE53A
:10195000D9E60895C8E4D9E60895A0E4B9E6089563
:10196000F9DF84E05AD09883F5DFF7DF9BDC00C015
:1019700097E712D09DEA10D0F0DF86E090914408FE
:1019800095FFFCCF9D91909342088A95B9F78AE222
:10199000C6D0E19B96CE08950090200A0916E0F388
:1019A0002092200A2092210A529BB0996FCE08956E
:1019B0000100AC090201CD090401E0090401E509B7
:1019C00000000E0B00000E0B00000E0BFF01070ABB
:1019D0000801380A7001650A2001750A40017B0A76
:1019E0001001800A1001870A1000950A1000C20A2F
:1019F00002003214FFFFF89439D0F89449D00C94C7
:101A00003C09F89429D03AD00C943C090E94700DFE
:101A1000F894A895FFCF0C943E09019009928A95FD
:101A2000E1F7089529928A95E9F70895E4E8FBE63D
:101A30000E942A09C4E6D9E60E942C09E4E6FBE6E6
:101A40000E942A09C4E6D9E60C942C09E4E8FBE6D6
:101A50000E942E090C941E09C0E0D8E6AAE1B0E06D
:101A60001FC0C0E0D8E6AEE1B0E027C0C0E0D8E6D5
:101A700080E4D8DFEFEFE0931F680895C0E4D8E674
:101A8000AAE3B0E00DC0C0E4D8E6AEE3B0E015C014
:101A9000C0E4D8E680E8C6DFEFEFE0937F68089502
:101AA0000E94FE08F001A095B095C095D095A08346
:101AB000B183C283D383248208950E94FE08F0017B
:101AC00080830895E2E0F2E000C0EF23F0950090FB
:101AD00020690F22E02906C0E0E004C0EFEF02C059
:101AE000E1E000C0E093206900C0E09120690C941F
:101AF000FC08EF23F095009021690F22E02908C02F
:101B0000E0E006C0E5E504C0EFEF02C0E3E400C09A
:101B1000E093216900C0E09121690C94FA080895CE
:102000002FC1089581E084C082E082C083E080C057
:10201000E8D0EBC085E07CC086E07AC087E078C07D
:1020200088E076C089E074C08AE072C08BE070C03E
:1020300071C000008DC000008EE06AC08FE068C0F3
:1020400080E166C081E164C082E162C083E160C07A
:1020500084E15EC085E15CC086E15AC087E158C07A
:10206000C6C0000089E154C08AE152C08BE150C073
:102070008CE14EC08DE14CC08EE14AC08FE148C07A
:1020800080E246C081E244C082E242C0E3C0000078
:1020900084E23EC085E23CC086E23AC087E238C0B6
:1020A00088E236C089E234C08AE232C08BE230C0B6
:1020B0008CE22EC08DE22CC08EE22AC08FE228C0B6
:1020C00080E326C081E324C082E322C083E320C0F2
:1020D00084E31EC085E31CC086E31AC087E318C0F2
:1020E00088E316C089E314C08AE312C08BE310C0F2
:1020F0008CE30EC08DE30CC08EE30AC08FE308C0F2
:1021000001002FD102010000DC76DD67939329BC2A
:10211000E3D1FFCF0FB73F014001E0918F6AE39514
:10212000EF3008F0EE27E0938F6AF0E0E756FF4EBD
:10213000099436C241C24AC27AC245C34AC34FC398
:1021400054C359C35EC363C368C36DC372C379C349
:10215000E89B06C0E89820921301C09242081895A7
:102160000091160B0093160BFF93EF93EFB7EF93CD
:10217000DF93CF93BF93AF93E0911C0BF0911D0BB6
:10218000A091C669B091C769E093C669F093C76929
:10219000EA1BE093C869FB0BF093C9696894B2E04D
:1021A000E037FB0708F4ED9AB3E0EC30FB0730F0C2
:1021B000E894B4E0E833FB0708F4ED9AF091140BCF
:1021C000E0E1A091E169EE9BFE27EE98E3E0A21129
:1021D000E5E0E0934102F093140BE091CA69F2E26A
:1021E000099401E00093530118950C940C2B3F01C6
:1021F000E0917B6AF0917C6A009110060193009156
:1022000011060083E0917D6AF0917E6A019100934E
:102210000C060191009308060191009309060191B3
:102220000093000601910093010601910093A00024
:10223000019100937B6A019100937C6A0191009364
:102240000B06019100930A06E0937D6AF0937E6A83
:10225000F30118950FB72092031021600FBF189556
:10226000A895F89422242DBAE8EDE0933400E5E82F
:10227000E0930110EFE1F9E6EDBFFEBFE0E0F9E623
:10228000C8EADCE021922197E9F720920508A2E450
:10229000A0931202A8E4A0931402A3E0A093410229
:1022A000A8E0A0935704A4E0A0937104A093750440
:1022B000A09372040D98059A0C98049A4F9A479827
:1022C0004F98479A47986298699A6D9A619865986D
:1022D000A0E0A093E605A1E0A093030AA1E0A093EB
:1022E000000AE0E0FBE02082218222862386A0EE25
:1022F000BEE22486B587A1E0A683A1E0A583A3E082
:10230000A083E0E1FBE02082A2E0A183A1E4A4831A
:10231000A1E0A683A583A3E0A083A3E0A09320026D
:10232000A5E0A0932102E1E0E093C001E3E4E093A3
:10233000C901EEEEE093CB01E1E0E093C801A0E13A
:10234000A0931102E0E8FBE0A2E0A0934902A09371
:102350004A02A4E0A08BA18BA1E8A087A187E0E8B6
:10236000FBE0B8EDA0E0A183A0E0A283A3E3B093DB
:102370003400A28BAFEFA2A723A6A6A727A6A0A7EB
:10238000A1A7A4A7A5A7A685A0FFFDCFC09106146D
:10239000A1E0C13009F4A3E0C23009F4A9E0B09390
:1023A0003400A083A0915101A0FDFCCFA9E1A0932E
:1023B0005001A1E0A0935301A0935201A5E8A0937E
:1023C000A000A5E8A093A400A5E8A093A200E0E0E7
:1023D000F6E0A1E1A083A0E0A183ABE0A283A0E0AE
:1023E000A383A0E0A483A2E0A0930506A5E0A087B4
:1023F000A1E0A187A4E0A0937104A0937504A09329
:102400007204A0937404A0937004A0937704A4E0D2
:10241000A0937604A1E4A093A006AFEF2092A206B9
:10242000A093A3060E94D92CE8EDE4BFE9E0E09375
:1024300000010E94CB1D0E942D210E94CE2C0E94E3
:10244000CE2C0E94B1290E94F4277AD082D40E9417
:10245000661ABFD60E94132A0E94822A0E947C24F8
:102460000E94CE2CE1E0E093506875D3EFEFE0934B
:10247000060BE093160BE0935301E09304100C94C9
:102480009B2A08950895E0E003C0E0E101C0EFEF6A
:10249000E4990BC0E095E093A80B2092A90BEFEF15
:1024A000E093AC0BE093AD0B0AC0E095E093AC0B6E
:1024B0002092AD0BEFEFE093A80BE093A90BEFEFA9
:1024C000E093AA0B2092AB0BE093AE0B2092AF0BE4
:1024D000E1E0E093840B089500240A94E0E8FBE037
:1024E00000A601A604A605A6EACF0024E0E8FBE0CA
:1024F00000A601A604A605A6E2CFE0912F70E1FF99
:1025000003C000C0E0E001C0E1E8E093880BE09385
:10251000890B0895E1E0F2E02092A80B2092A90B2C
:102520002092AC0BE093AD0B2092AA0BE093AB0B87
:102530002092AE0BF093AF0BE1E0E093840B089593
:102540004F9A479A0E947D122CBAE0E005D0E4E051
:10255000FBE6C0EAD5E7BBC2FE2FFF7729F0EA957C
:10256000FA9511F4E29A01C0E298E093846A089522
:10257000E091826AEE230895E0910870E0939A68F2
:102580000895E091846AE078E7CFE59903C0E59A81
:10259000ECE002C0E598EDE0E0938F6A08950895BD
:1025A00020928F6A99DFE0910770F0E3EF9FE0ECF3
:1025B000F3E0E00DF11D61C1E1E0E0938F6AE19984
:1025C0006198E19B6598E0ECF3E057C1E2E0E093AD
:1025D0008F6A61986598E39927C0E091906AF4E763
:1025E0000090916A1090926AF0810F1A1208F0918F
:1025F000806A0F0E121C0092916A1092926A0F2E3E
:10260000F4E70192E093906A20920506E19904C0F4
:10261000E19AE8EFF9ED03C0E198E8E2FAED009005
:10262000546A02FE7896CFD2E0ECF3E026C1E09146
:10263000896AF0918A6AF7FF05C0F095E195FF4F2E
:10264000F7FDFFE7EE0FFF1F0F01E0912E70E7701F
:10265000E45DF0E0FC4E099407C009C00CC011C055
:1026600014C01AC020C029C0F001889431C0F00104
:10267000EE0FF21D2DC0F00116940794E00DF11D30
:1026800027C0F001E00DF11D23C0F001E00DF11DA8
:10269000F8F0E00DF11D1CC0F001EE0FFF1FC0F0BF
:1026A000EE0FFF1F15C0F001EE0FFF1F88F0EE0FB9
:1026B000FF1F70F0E00DF11D0BC0F001EE0FFF1FCA
:1026C00038F00F01EE0FFF1F18F0E00DF11D00C0F4
:1026D00008F4FFEFF093816AE0912D70E095E695A4
:1026E0000E2E0694E00D0694E00DE05FEF9FF001E2
:1026F000EE0FFF1F08F4FFEFFF2321F4E091816A42
:10270000E211F1E0E091806AF093806AFE0FF795A4
:10271000E091826AEE2321F0FE1779F050F114C0A7
:102720002092806A2092816AEFEFE0938F6A209274
:102730007F6AA9DEE0ECF3E0A0C0E0917F6A009040
:10274000327002FCE69529C0E0919B68E211EA959F
:10275000E0939B68E0917F6AE211EA95E0937F6ADB
:102760000090327000FCE69501FCE69502FCE695CF
:1027700014C0529902C0B09B07C0E0919B68E03F33
:1027800008F4E395E0939B68E0917F6AE93008F4F0
:10279000E395E0937F6A01C0E0E0619A659AED52AB
:1027A000F0E0FC4E09943FC038C031C02AC023C0BD
:1027B0001CC015C00EC007C000C0E3E0E0938F6AE4
:1027C00048D0E0EA49C0E4E0E0938F6A42D0EAEA08
:1027D00043C0E5E0E0938F6A3CD0E4EB3DC0E6E027
:1027E000E0938F6A36D0EEEB37C0E7E0E0938F6A74
:1027F00030D0E8EC31C0E8E0E0938F6A2AD0E2ED17
:102800002BC0E9E0E0938F6A24D0ECED25C0EAE02C
:10281000E0938F6A1ED0E6EE1FC0EBE0E0938F6A74
:1028200018D0E0EF19C0EFEFE0938F6A12D0EAEF13
:1028300013C0EFEFE0938F6AEFEF2CDEEFEFFFEFC7
:1028400019C0EFEFE0938F6AEFEF2FDEEFEFFFEFAE
:1028500011C0E0919B681CCEF091826A00903070AC
:1028600000FEF69501FEF69502FEF695EF0F08F4D0
:10287000EFEFFCE0EF9FF00100C0E0930C0BF09352
:102880000D0BE1E0E093060B0401F3010FBF189577
:10289000E6E000902F7000FEE6950090546A02FE7C
:1028A000E695E67000906C6B0E2202103BC0E09B38
:1028B00090913770E09990913870E091826AEE23A0
:1028C00089F1E091816AE99F0894001C111C80E065
:1028D000881F90912F7092FD000C92FD111C92FDAB
:1028E000881FE0E9F8E6A081B181C281D381E09B35
:1028F00005C0A019B109C80BD20904C0A00DB11DB3
:10290000C81FD21DA083B183C283D383A481B581A4
:10291000C681D781A00DB11DC81FD21DA483B58368
:10292000C683D783C091856AD091546AE091836A47
:10293000F091846ACF019827E89497FD689497FDF9
:10294000F078CF018F779F77E299CC27891721F410
:102950009030A9F0891789F040F0D5FDC0E0C15052
:10296000B0F5C0910370EA950BC0D4FDC0E0C15032
:1029700070F5C0910270E39503C0CC2701C0EF2F22
:10298000E7FFE09AE7FDE098E093836AEF77E09352
:10299000826A09F0E2E00EF4E061E09BE160F09110
:1029A000E169F0FDE460E09BF095F0FFE860FFE195
:1029B0000E943C26F0E0E0FDF160E3FDF260E4FD02
:1029C000F860F0931A6BE099E49AE09BE498C09366
:1029D000856A0895E0E9F8E60580A681B781000CD4
:1029E000AA1FBB1F000CAA1FBB1F000CAA1FBB1FE6
:1029F00002101196A087B187248225822682278221
:102A0000B695A795B0913970AB9FD001CFEFAA0FC3
:102A1000BB1F30F0AA0FB21D18F0ACEEAB9FC12D5A
:102A2000E4E0FBE663D0B0939C68E0919A68E21121
:102A3000EA95E0939A68E211EE13A3DD0895F89405
:102A400082D0F89492D00C948316F89472D083D0EC
:102A50000C9483160E94DD2CF894A895FFCF0C945B
:102A60008516E770F0E0E259F545E081089501022E
:102A7000040810204080019009928A95E1F708959A
:102A800001901990011411F48A95D1F708952992B3
:102A90008A95E9F70895E0E0FFE80990E025E081F4
:102AA0008A95D9F7EE230895799FE001689FD001B8
:102AB000699FB00DC11DD21D789FB00DC11DD21DE3
:102AC000089580E406C080E204C080E102C088E08E
:102AD00000C0C083D1838283238224822582D7CF02
:102AE00011D00BC00FD007C00DD003C00BD0AA0F60
:102AF000BB1FAA0FBB1FAA0FBB1FAA0FBB1FAA0F8A
:102B0000BB1F0895B381A081AB0FB181B21DDC91D1
:102B1000CC93A481B581AD1BB209AC0FB21DA483C7
:102B2000B583C281D381D395DC1708F0DD27D38329
:102B30000895C0E0D8E6AAE1B0E01FC0C0E0D8E642
:102B4000AEE1B0E027C0C0E0D8E680E4A0DFEFEF60
:102B5000E0931F680895C0E4D8E6AAE3B0E00DC092
:102B6000C0E4D8E6AEE3B0E015C0C0E4D8E680E843
:102B70008EDFEFEFE0937F6808950E944516F00125
:102B8000A095B095C095D095A083B183C283D3831F
:102B9000248208950E944516F00180830895E091F3
:102BA0007B6AF0917C6AEF2B0895CF93C0917B6A8A
:102BB000C21106C0C0917C6AC21102C0CF9103C08D
:102BC000CF9188940895CF93C2E0C0930A06C1E0E4
:102BD000C0930D06C191C0930006C191C093020637
:102BE000C191C0930306C191C0930406C191C093E3
:102BF0000C06C191C0930806C191C0930906C1910A
:102C0000C0930006C191C0930106C191C093A0007A
:102C1000C191C0937B6AC191C0937C6AC191C093FA
:102C20000B06C191C0930A06E0937D6AF0937E6A19
:102C3000CF910894089576956795769567957695E2
:102C40006795769567958091061190910711861B7F
:102C5000970B609104117091051126DFC695B79509
:102C6000C695B795C695B795C695B7957C2F6B2F2A
:102C700008950C9410000C9411000C9412000C9404
:102C800013000C9414000C9415000C9416000C9472
:102C900017000C9418000C9419000C941A000C9452
:102CA0001B000C941C000C941D000C941E000C9432
:102CB0001F000C9420000C9421000C9422000C9412
:102CC00023000C9424000C9425000C9426000C94F2
:102CD00027000C9428000C9429000C942A000C94D2
:102CE0002B000C942C000C942D000C942E000C94B2
:102CF0002F000C9430000C9431000C9432000C9492
:102D000033000C9434000C9435000C9436000C9471
:102D100037000C9438000C9439000C943A000C9451
:102D20003B000C943C000C943D000C943E000C9431
:102D30003F000C9440000C9441000C9442000C9411
:102D400043000C9444000C9445000C9446000C94F1
:102D50004700E8EFFAE6C0E0D5E7B5DEECEEFAE6CC
:102D6000C0E2D5E7B0DEE2EFFAE6C0E4D5E7ABDEDD
:102D7000EEEFFAE6C0E6D5E7A6CE0895F894E09126
:102D8000266A2092266A7894E03009F40895ED329C
:102D900008F078CBC091246AD9E6ED52F0E0F94E04
:102DA00009950C9401176ECBEAC014C119C16ACB06
:102DB00069CB68CB67CB66CB3FC153C16FC17DC1C7
:102DC00090C1A3C1B6C1C9C1DCC1EFC1B6C05ACB65
:102DD00059CB58CB57CB56CB55CB54CB53CB52CBEF
:102DE00051CB50CBBAC04ECB4DCB4CCB4BCBB4C060
:102DF00006C205C204C203C202C200C21CC200C293
:102E00000895A895F8946091266B7091276B78943B
:102E100012DFEB01CF5DD040E8EFFAE663DEB0935E
:102E2000196B6894E091E169E0FDE894D091226B20
:102E3000C091236BC7FF05C0C095D195CF4FC7FD8B
:102E4000CFE7DD0FCC1FECEEFAE64CDE16F0B093C8
:102E5000286B16F4B093296BD091246BC091256B2D
:102E6000C7FF05C0C095D195CF4FC7FDCFE7DD0F98
:102E7000CC1FE2EFFAE636DE16F4B093286B16F0BC
:102E8000B093296BA091286BAB0FA795A093E46931
:102E9000A25308F4A0E0A0931B6BA091286BB09103
:102EA000296BAB1BA058A0932A6BC0918B6AD09161
:102EB0008C6ACC0FDD1F08F4DFEFCD2FEEEFFAE6C2
:102EC00011DEB0932B6BE0914C6AF0914E6AEF17D4
:102ED00008F4EF2FE0934F6AF0914F6AE5EBEF9F14
:102EE000E12DE093506A80911A70A0913470B091F6
:102EF0002B6BBA1708F08160A0913570B091196BF7
:102F0000BA1708F08460A0913670B0911B6BBA17A5
:102F100008F088600E94522609F082600E945626BE
:102F200080931A700895529B05C0E8E5FAED3DCEF6
:102F30005299FBCFE0E7FAED38CE20925168E2E5F6
:102F4000F8E62192219221922192219221922192BE
:102F50002192219200DE3DC10895E091276AE3307D
:102F600019F099818A8103C090E089818F77EFB74A
:102F7000F8948093106A9093116AEFBF0895FCDA79
:102F8000E881E4FBEE0FE0F9E6FBEF71E43010F4CA
:102F9000E6950DC0E450F0E08091197084FDE35C8B
:102FA00084FDFF4884FFE85484FFF045E081E7F9A1
:102FB0009FD1EF13D0DD0FC103070C1015191E228E
:102FC000272B3034393D42464B4F54585D61666A79
:102FD0006F73787ED1DAE9818BD1EF13BCDDFBC052
:102FE000CBDAE98185D1FE27F0E08A8190915268A1
:102FF000809352688927F82BE091276AE530C8F062
:103000008B8190915368809353688927F82BE63021
:1030100080F08C8190915468809354688927F82BB4
:10302000E73038F08D8190915568809355688927F5
:10303000F82BF21190DDCDC0FF27E091126A80914C
:10304000136A8695EE1FE095EF71888184FB880FE7
:1030500080F99091526845D180935268F2117BDDDE
:10306000BEC0FF27E091126AEE0FE095E07E8881F6
:103070009091526836D1809352688881880F8295EA
:1030800090915368E091126AEE0FEE1FE095E170A7
:1030900028D180935368F2115EDDA1C0FF2788819B
:1030A000880F90915368E091136AE095EE7119D101
:1030B00080935368F2114FDD92C0FF27E091136AAD
:1030C000E5FD089589819091536802D180935368FA
:1030D00089819091546800D180935468F2113BDD4E
:1030E0007EC0FF27E091136AE5FD089589819091E4
:1030F0005468EED080935468898190915568ECD0E3
:1031000080935568F21127DD6AC0FF27E091136AAA
:10311000E6FD0895898190915568DAD080935568CD
:10312000898190915668D8D080935668F21113DD4A
:1031300056C0FF27E091136AE6FD089589819091BA
:103140005668C6D080935668898190915768C4D0DC
:1031500080935768F211FFDC42C0FF27E091136AA9
:10316000E6FD0895898190915768B2D080935768A1
:10317000898190915868B0D080935868F211EBDC47
:103180002EC0FF27E091136AE6FD08958981909192
:1031900058689ED0809358688981909159689CD0D6
:1031A00080935968F211D7DC1AC0FF27E091136AA7
:1031B000E6FD08958981909159688AD08093596875
:1031C000898190915A6888D080935A68F211C3DC43
:1031D00006C001D004C0E09151680C94AC128091FB
:1031E000526884FF08C020929068209291682092D3
:1031F000926820929368809153680895ACCC0895AA
:10320000B7D9C1F430D031F482E0CEEFD5E10E94DD
:10321000F42917CC8091276A853038F02196E0E2B6
:10322000F8E683E02DDC31F00CCCF981E0912268E6
:10323000FE1307CC0895E881E93008F00895F0E026
:10324000ED5DF64E099408C008C008C008C0089596
:1032500008950895089508950895F1CBF0CBE1E025
:10326000E093506878CCF0914C68E0914D68EF2B7A
:103270000895E23060F1009005701090017001181F
:10328000039400928E6800900470109005700118ED
:10329000039400928F68FE2FE03408F0FFE3009063
:1032A0008E680F9E000C111CF0910170F695F10DC7
:1032B000E03438F0EF5300908F680E9E000C111C24
:1032C000F10DEF2FE7FDEFE7E23008F4E2E00895BB
:1032D0008295880FE0EE05C0869586958695EFE18C
:1032E00000C08E23E095E9238E2B9827F92B0895B3
:1032F000FE2F8091146A82110895F0910F70F0787A
:10330000EC99EF2780911970F0E880FDEF2780910C
:103310002268F091E169F07887FDEF27E7FBEF770E
:10332000A8DFE7F9F0915168E09351680895A8810A
:10333000A3700E940C29B981CF93DF930E94B92812
:10334000DF91CF91689409F4E89478F5F881EA81E7
:10335000FC7039F0F43031F0FC3041F0E4FF1BC078
:103360000CC023C016F1AE17F9F01FC0AE2F0E949B
:10337000BD28D9F4D0F4216017C0E3FB0E943115B9
:10338000E095AE23E0950EF4AE2B0E94BD2869F4C3
:1033900060F4216009C04EF0E3FB63DBAE230EF066
:1033A000EE27EA2709F001C0F0C80895A881A370AC
:1033B0000E940C29B9810E94B92811F4EA2FD7C2C2
:1033C000CBC2AA81B9810E940D29E881E370E09304
:1033D0001D6BBB810E94B92899F7A0931E6BB39512
:1033E0000E94B92869F7A0931F6BB3950E94B92872
:1033F00039F7A093206BB3950E94B92809F7A093E1
:10340000216BCDE1DBE6B5C2A7C281F40E94B629EB
:10341000E53060F0A881A3700E940C29B981AA81CF
:103420000E94BD2821F42160EA2FA1C29DC294C24E
:10343000B9F50E94B629E13198F1B981AA810E94BB
:103440000D29EDE1FBE6A881A370A083AC81A183E7
:10345000BD81B283BE81B383BF81B483BB810E942F
:10346000BD28F9F4A0931E6BB395A0911F6B0E9429
:10347000BD28B9F4A0931F6BB395A091206B0E9457
:10348000BD2879F4A093206BB395A091216B0E9485
:10349000BD2839F4A093216B2160CDE1DBE669C240
:1034A00063C25AC20E94C32978F0A0E00E940C298E
:1034B000BCE10E94B92849F4E881E0FBA5F90E942B
:1034C000BD2819F421606AC24FC246C2E0EFE09302
:1034D0002B6A0E943916E0932C6A0E944916D093F9
:1034E0002D6AC0932E6AB0932F6AA093306AC7E307
:1034F000DAE6E0E8E88385E00E944B15E883C1E363
:10350000DAE6E0EDE883E0E0E983E0E0EA832B82BD
:103510002C8285E00E944B15E88322D000C0F7E0A2
:10352000E0910A0BEF230DC0E091416AF091426AED
:10353000EA953AF4FF0FF760FF77E0910A0BEF236B
:1035400000C0E093416AF093426A0895F0914C689C
:10355000E0914D68EF2B0895E091406AEE230895C5
:103560002092406A0895F0913F6AE0933F6AFE1B03
:1035700008F4F195F53008F0F3CF0895CF93DF9379
:10358000EBE2FAE6A991AF70B191BF70AB1731F4DD
:10359000A991B191AB1711F4E133D1F7DF91CF913C
:1035A00008958F93E5E1FAE6A091276A8A2F8C0FA0
:1035B000B081A193BA17A081B991BA07B1938C13C6
:1035C000FACFC091246A8F910895E2E013C0E3E03E
:1035D00011C0E4E00FC0E5E00DC0E6E00BC0EAE09A
:1035E00009C0E3E0F4E007C0E4E0F7E004C0E6E08F
:1035F000F9E001C0FE2FAE1718F0FA1708F0089591
:10360000E0918C68F0918D683196E0938C68F0932E
:103610008D68E0918468E395E0938468EF91EF9181
:1036200000C0E0E09DC064D1E3E29AC0CEDFEDE1EE
:1036300097C0CBDFB3D1E1E093C0C9DFAFD1E4E203
:103640008FC0C5DFABD1E2E08BC0CEDFA7D1E3E016
:1036500087C0BDDF86D1E4E083C0C3DF7FD1EFE167
:103660007FC0B3DF7BD1E0E27BC0AFDF7AD1E1E2A4
:1036700077C0B3DFE5E074C0ACDFE6E071C0A7DF80
:1036800070D1E7E06DC0A5DF6CD1E8E069C09DDFD7
:1036900085D1E9E065C099DF81D1EAE061C095DFBD
:1036A0007DD1EBE05DC093DF79D1ECE059C08FDFD5
:1036B00075D1EDE055C08BDF71D1EEE051C087DFF1
:1036C0006DD1EFE04DC083DF69D1E0E149C07FDF1C
:1036D00065D1E1E145C07BDF61D1E2E141C075DF49
:1036E000E091296AE395E211E093296AE3E13AC0A7
:1036F0006CDF37D1E4E134C074DF33D1E5E130C0B1
:10370000A43011F058F41CC0E881E3FD03C04EDE84
:10371000E6E126C046DF79DEE7E122C0E881FE2F40
:10372000E370F3FD06C0F2FF09C055DF4ADEE8E1B1
:1037300017C05DDF36DF7CDEE9E112C0EBE110C0CF
:10374000E2E20EC0EEE10CC04CDFE0912A6AE395A4
:10375000E211E0932A6AE23009F4E9DDEAE104C00B
:103760002092296A20922A6AE093266AE091D06921
:10377000E093256A206208952EDFEA81F4DEE6DE1A
:1037800039F4EADE29F4D0DE19F4BCD1E5E2E8CF61
:1037900048CF21DFEA81E7DED9DE31F4DDDE21F436
:1037A000C3DE11F4E6E2DCCF3CCF15DFEA81DBDEDD
:1037B00038CF11DFEA81D7DEC9DE31F4CDDE21F466
:1037C000AEDEA0D1E8E2CCCF2CCF2197D7DE09F036
:1037D0002ACFE1E0E093406A9DD1E9E2C1CFFFDE6C
:1037E0002197CCDE09F01FCFFE81EF81F06CF093C2
:1037F0000F6AE0930E6AE1E0E093406A87D1EAE263
:10380000AFCFECE2ADCFE091276AE350EB30F8F4B4
:10381000E093276AF0E0E65DF34E0995D1F4E0917C
:10382000276AAAE6B8EBAE0FB21DBC91CB0FAE2F44
:10383000AB1BA093276AC093246AD9E6E881E930DC
:1038400040F4F0E0E55CF34E0995EBE289CFD8DE79
:10385000E8CEE9CE1FC01CC01DC02DC019C025C0B8
:103860002AC026C022C016C023C0000000020004E7
:1038700002060400060008C007C006C005C006C056
:1038800005C004C003C002C083D008956AD0089563
:103890001894089598940895E8E4F8E621C0ECE4BB
:1038A000F8E61EC0EEE4F8E61BC0E0E4F8E610C05F
:1038B000E4E4F8E605C0F3DFD1F0EEDFC1F0F2CFCB
:1038C000A581BD81AB1799F4A481BC81AB1779F4B4
:1038D000A381BB81AB1759F4A281BA81AB1739F42C
:1038E000A181B981AB1719F4A081B881AB170895F4
:1038F000E0912C6BE395E33008F0E0E0E0932C6B73
:10390000F0E0EC57F34E099402C00CC015C0E091F2
:103910001970E5FF05C0E0910D70EF73E068BFC05E
:10392000E0E0BDC0E0911970E5FF03C0E0910E70CA
:10393000BBC0E0910070B3C0E0911870E3FFD8CF36
:10394000F091526AE0E0F2FDE160F3FDE260F1FD2A
:10395000E460F5FDE860ADC09DD0CACF9BD0AED08D
:10396000C7CF98D0AFD0C4CF95D0AED0C1CFB0D054
:10397000BFCFE991DE0181D0E85FE883ED91E98373
:10398000ED91EA83ED91EB83ED91EC83A6D0B0CF7E
:10399000E0E0F0E0A0E0B0E0C1D0C8C07BD0E091B2
:1039A0002D6BE395EA3008F0E0E0E0932D6BF0E05A
:1039B000E352F34E62D009959BCF90C008C009C076
:1039C0000AC00BC00CC00DC00EC00FC010C011D07B
:1039D00014C03FD042C045D04CC047D02EC011D0FB
:1039E00014C017D01AC01DD020C023D026C029D0A3
:1039F0002CC0E0919C68F0E080C0E0918768F7E01F
:103A00007CC0E0912B6BF8E078C0E0910468F9E0AD
:103A100074C0E091716BFAE070C0E0916D6BFBE0F7
:103A20006CC0E0919868FCE068C0E0919968FDE0A6
:103A300064C0E0912A6BFEE060C0E091766BFFE02D
:103A40005CC0E091106AF0E158C0E091116AF1E1C8
:103A500054C0E0919268F8E150C0E0919368F9E1B8
:103A60004CC0E091196BFAE148C0E0911A6BFBE1A0
:103A700044C0E0911B6BFEE240C0CEEED9E6089553
:103A8000A6EEB9E60895A8EEB9E60895A091E56915
:103A9000B9E60895F8DFA093E569089547C0EDDF22
:103AA000F1E0F883E98349C0E8DFF2E0F883E983D5
:103AB00044C0E3DFF3E0F883E9833FC0CFE041C0D7
:103AC000C0EF3FC0CCE33DC0CFE03BD0CCE339C03A
:103AD000D4DFE0DF2882E9833AC042C0C6EFD9E6EE
:103AE000E4E0E883A0E8B8E6ED91EC83ED91EB83A8
:103AF000ED91EA83ED91E98333C0E983FA83F7E03E
:103B0000F8832AC0EF9ACBE2DAE634C0EF9AC1E339
:103B1000DAE630C0EF9AC7E3DAE62CC0AEDFE8831E
:103B2000F983AA83BB83E0E1EC831FC0F091FB69BA
:103B3000FF0F28F1FF0F18F12BC0A2DFE3E021D027
:103B4000FCC8A4DFE1E01DD0CD93A5CF9FDFE3E06B
:103B500018D0F3D8A0CF9ADFE7E013D0ECD89BCFF2
:103B600092DFFFE315D0E3D896CF8DDFFFE310D0CF
:103B7000E0D891CF85DFFFEF0BD0D7D88CCFF0E026
:103B800007C0F091FB6902C0FF1FC8F3E695E0F3A0
:103B9000F093FB6908950895C2EDD9E6A091D1692B
:103BA0002092266AE881E952F0E0F24E0994FFC0C3
:103BB00014C113C112C111C110C10FC10EC10DC179
:103BC0000CC10BC10AC109C108C107C106C105C1A9
:103BD00004C103C102C101C100C1FFC0FEC0FDC0DC
:103BE000FCC0FBC0FAC0F9C0F8C0F7C0F6C0F5C011
:103BF000F4C0F3C0F2C0F1C0F0C0EFC0EEC0EDC041
:103C0000ECC0EBC0EAC0E9C0E8C0E7C0E6C0E5C070
:103C1000E4C0E3C0E2C0E1C0E0C0DFC0DEC0DDC0A0
:103C2000DCC0DBC0DAC0D9C0D8C0D7C0D6C0D5C0D0
:103C3000D4C0D3C0D2C0D1C0D0C0CFC0CEC0CDC000
:103C4000CCC0CBC0CAC0C9C0C8C0C7C0C6C0C5C030
:103C5000C4C0C3C0C2C0C1C0C0C0BFC0BEC0BDC060
:103C6000BCC0BBC0BAC0B9C0B8C0B7C0B6C0B5C090
:103C7000B4C0B3C0B2C0B1C0B0C0AFC0AEC0ADC0C0
:103C8000ACC0ABC0AAC0A9C0A8C0A7C0A6C0A0C0F5
:103C90009FC09EC09DC09CC09BC09AC099C098C048
:103CA00097C096C095C094C093C092C091C0B0C058
:103CB000AFC0AEC0ADC0ACC0ABC0AAC0A9C0A8C0A8
:103CC000A7C0A6C0A5C0A4C0A3C0A2C0A1C0A0C0D8
:103CD0009FC09EC09DC09CC09BC09AC099C098C008
:103CE00097C096C095C094C093C092C091C090C038
:103CF0008FC08EC08DC08CC08BC08AC089C088C068
:103D000087C086C085C084C083C082C081C080C097
:103D10007FC07EC07DC07CC07BC07AC079C078C0C7
:103D200077C076C075C074C073C072C071C071C0F6
:103D300070C06FC06EC06DC06CC06BC06AC069C01F
:103D400068C067C066C065C064C063C062C061C04F
:103D500060C05FC05EC05DC05CC05BC05AC059C07F
:103D600058C057C056C055C054C053C052C051C0AF
:103D700050C04FC04EC04DC04CC04BC04AC01AC00E
:103D800019C018C017C016C015C014C013C012C087
:103D900011C010C00FC00EC00DC00CC00BC00AC0B7
:103DA00009C008C007C006C00DC009C00EC0A150A0
:103DB000219670C0A093276AC093246AC1CCA150F9
:103DC000219625C1A15021962BC2A150219617C141
:103DD000E091296AE33008F0B7CCEA9AE991A15062
:103DE0006894F091106AFE13E894B091116AB211D0
:103DF000E894BF2BF0910E6AFE1739F4F0910F6A28
:103E0000F7FD03C0B21128C045C00EF00CCC32C083
:103E100097CCEA9AE981F881A2502296E33021F406
:103E2000F03C11F4EB9A57C0B0910F6ABF17B091F4
:103E30000E6ABE0741F4E091106AF091116AEF2B0F
:103E4000E2110AC027C0B091116ABF17B091106A81
:103E5000BE0709F0E8CB0EC0E0911170EC67E0936B
:103E6000126AE0911270E160E093136AE1E0E0937E
:103E7000146A16C0EC9AE0911170E095E378E09333
:103E8000126AE0911270E095EE7FE093136A20923F
:103E9000146A06C02092126A2092136A2092146A51
:103EA000A093276AC093246AE881E295EF70E55AEF
:103EB000F0E0F04E09942BC040C055C054C0B9CBBF
:103EC000B8CBB7CBB6CBE3CBE2CBE9CBE4CB71C07D
:103ED00070C016CC11CCA093276AC093246AEA98CC
:103EE000E881E295EF70E958F0E0F04E099426CCB5
:103EF00025CC24CC23CC22CC21CC20CC1FCC1ECC56
:103F00001DCC1CCC1BCC1ACC19CCFACBF5CBE9912F
:103F1000EF70E357F0E0F04E0994E1CBE9CB12CC1F
:103F200011CC0CCC0BCC0ACC09CC08CC07CC9DCB4B
:103F30009CCB04CC03CC02CC94CBE991EF70ED5533
:103F4000F0E0F04E0994FACBF9CB87CB86CBF6CBD9
:103F5000F5CBF4CBF3CBF2CBF1CBF0CBEFCBEECB7D
:103F6000EDCBECCBEBCBE991EF71E754F0E0F04E09
:103F70000994E4CBE3CBE2CBE1CBE0CBDFCBDECBF0
:103F8000DDCBDCCBDBCBDACBD9CBD8CBD7CBD6CB0D
:103F9000D5CBD4CBD3CBD2CBD1CBD0CBCFCBCECB3D
:103FA000CDCBCCCBCBCBCACBC9CB4FCB52CB45CBDC
:103FB00048CBE991EF71E152F0E0F04E099463CB08
:103FC00058CB5ACBBBCBBACBB9CBB8CBB7CBB6CB94
:103FD000B5CBB4CBB3CBB2CBB1CBB0CBAFCBAECBFD
:103FE000ADCBACCBABCBAACBA9CBA8CBA7CB63CB70
:103FF00066CB69CB6CCB6FCB42CB55CB58CBA09368
:10400000276AC093246AE881E21198CB0FCBA09372
:10401000276AC093246AE991E05FF0E0FF4D0994BC
:104020008DCB8CCB8BCB8ACB89CB88CB87CB86CBEC
:1040300085CB84CB83CB82CB81CB80CB7FCB7ECB1C
:104040007DCB7CCB7BCB7ACB79CB78CB77CB76CB4C
:1040500075CB74CB73CB72CB71CB70CB6FCB6ECB7C
:104060006DCB6CCB6BCB6ACB69CB68CB67CB66CBAC
:1040700065CB64CB63CB62CB61CB60CB5FCB5ECBDC
:104080005DCB5CCB5BCB5ACB59CB58CB57CB56CB0C
:1040900055CB54CB53CB52CB51CB50CB4FCB4ECB3C
:1040A0004DCB4CCB4BCB4ACB49CB48CB47CB46CB6C
:1040B00045CB44CB43CB42CB41CB40CB3FCB3ECB9C
:1040C0003DCB3CCB3BCB3ACB39CB38CB37CB36CBCC
:1040D00035CB34CB33CB32CB31CB30CB2FCB2ECBFC
:1040E0002DCB2CCB2BCB2ACB29CB28CB27CB26CB2C
:1040F00025CB24CB23CB22CB21CB20CB1FCB1ECB5C
:104100001DCB1CCB1BCB1ACB19CB18CB17CB16CB8B
:1041100015CB14CB13CB12CB11CB10CB0FCB0ECBBB
:104120000DCB0CCB0BCB0ACB09CB08CB07CB06CBEB
:1041300005CB04CB03CB02CB01CB00CBFFCAFECA1D
:10414000FDCAFCCAFBCAFACAF9CAF8CAF7CAF6CA53
:10415000F5CAF4CAF3CAF2CAF1CAF0CAEFCAEECA83
:10416000EDCAECCAEBCAEACAE9CAE8CAE7CAE6CAB3
:10417000E5CAE4CAE3CAE2CAE1CAE0CADFCADECAE3
:10418000DDCADCCADBCADACAD9CAD8CAD7CAD6CA13
:10419000D5CAD4CAD3CAD2CAD1CAD0CACFCACECA43
:1041A000CDCACCCACBCACACAC9CAC8CAC7CAC6CA73
:1041B000C5CAC4CAC3CAC2CAC1CAC0CABFCABECAA3
:1041C00004CB03CB02CB01CB00CBFFCAFECAFDCA96
:1041D000FCCAFBCAFACAF9CAF8CAF7CAF6CAF5CACB
:1041E000FECAFDCAFCCAFBCAFACAF9CAF8CAF7CAAB
:1041F000F6CAF5CAF4CAF3CAF2CAF1CAF0CAEFCADB
:104200009DCA9CCA9BCA9ACA99CA98CA97CA96CA92
:1042100095CA94CA93CA92CAAFCABBCAC6CAC9CA07
:10422000A093276AC093246AE991E03F08F486CA04
:10423000EF70E35EF0E0FE4D0994E3CA7FCA7ECAE8
:104240007DCA7CCA7BCA7ACADECA78CA77CA76CAED
:1042500075CA74CA73CA72CA71CAE0E0E093CA69C7
:104260002092FB690895FFFFFFFFFFFFFFFFFFFFA5
:1044000024C04CC04EC053C058C076C196C1CAC16A
:10441000D8C1FAC101C20FC217C21FC227C232C21D
:1044200058C075C0B5C007C11CC139C13BC13CC132
:104430003DC13EC13FC140C141C142C143C144C170
:1044400045C146C147C148C149C1E2E0E093110BF3
:10445000332424C0E0918868F09189683196E09314
:104460008868F09389680AC0E0918A68F0918B6847
:104470003196E0938A68F0938B6800C0E09184687D
:10448000E395E093846800C0332403C0E3E03E2E4C
:1044900000C0E398E998ED98E1E023C20E943A2831
:1044A00000C0ED99F1CF86F73394E3E01AC2ED999D
:1044B000EBCF56F73394E4E014C2ED99E5CF2EF438
:1044C000339409F43A94E4E00CC2E32DE43108F4A7
:1044D000DBCF3092D069E091C869F091C969F69557
:1044E000E795F695E795F695E795E21DE001FBEA7D
:1044F000EF9F1092FE690E01E39A0E949317E2ED7E
:10450000F9E6CFE02192CA95E9F7E1E1EAC10EF0C0
:10451000ED99BACFE091C869F091C969F695E79530
:10452000F695E795F695E795E21DE001FBEAEF9F2A
:104530001092FF690E01E39A0E949817EE27529B92
:10454000EFEFF091E169E093E169FE13EE9AE998EB
:10455000EA98EF98EB98EC982092D1692092CF6975
:10456000E0918568E395E43650F0E0918468F0913D
:104570008668E0938668EF1BE0938768E0E0E0934D
:104580008568E091E369E395E093E369E5E1A9C11A
:10459000ED9960CFE091D169EF3008F065CFF2ED91
:1045A000EF0FF9E6F21D3192E25DE093D169E091FF
:1045B000CF69E325E093CF695EF509F055CFE3E0DD
:1045C000E093110BE0918068F09181683196E0935F
:1045D0008068F0938168E0918268F0918368E21DC1
:1045E000F21DE0938268F0938368E091C869F091CE
:1045F000C969F695E795F695E795F695E795E21D75
:10460000E001FBEAEF9F1092026A0E01E4E169C14A
:10461000E091C869F091C969F695E795F695E79537
:10462000F695E795E21DE001FBEAEF9F1092006A24
:104630000E01E3E156C1ED9B0EF40CCFE091C86989
:10464000F091C969F695E795F695E795F695E795A2
:10465000E21DE001FBEAEF9F1092016A0E01E5E125
:1046600040C1E2E0E093110B2092C6692092C76935
:10467000ED9B0EF0EFCEE091C869F091C969F69517
:10468000E795F695E795F695E795E21DE001FBEADB
:10469000EF9F1092036A0E017FDAE5E022C1E398F2
:1046A000E6E11EC0E7E121C0E8E11AC0E9E11DC072
:1046B000EAE116C0EBE119C0ECE112C0EDE115C072
:1046C000EEE10EC0EFE111C0E0E20AC0E1E20DC090
:1046D000E2E206C0E3E209C0E4E202C0E2E105C0B2
:1046E000ED99B8CE330C30F8FCC01EF030FCB2CEE1
:1046F000F8C030FEAFCEF5C0E39AE8E8FAED0E94CC
:10470000E3150EF0C1CEC091FB69D0911970EB9901
:10471000D860D3FFC070D0911870EB99D260EA993D
:10472000D0FFCC7FEC9BD1FFC370EF99CFEFC0934C
:10473000FB69529BB099AACE00C0E99AD0912A7029
:10474000C0910A0BCD23D0912970CD0FCF70C093AB
:10475000FC69C15BDCE0F001CD9F00921C0B109264
:104760001D0B0F01E091C869F091C969F695E795B5
:10477000F695E795F695E795E21DE001FBEAEF9FD8
:104780001092046A0E01E0E0E093110BE091FB69E6
:10479000E0FF06C0C090E669E89AEDE0E0931301FF
:1047A000E7E09FC0F091FB69E091E769F1FDE093DC
:1047B0004208E8E6F1E0E0931C0BF0931D0BE8E003
:1047C00090C0D0912C70C0910A0BCD23D0912B704A
:1047D000CD0FCF70C093FD69CE5AD091FC69CD1B2F
:1047E000DCE0F001CD9F00921C0B10921D0B0F011D
:1047F000E091FB69E2FF06C0C090E869E89AEDE04D
:10480000E0931301E9E06DC0E0EFF0E0E0931C0BF2
:10481000F0931D0BEAE065C0F091FB69E091E96956
:10482000F3FDE0934208E0EEF1E0E0931C0BF0931F
:104830001D0BEBE056C0F091FB69E091EA69F4FDD5
:10484000E0934208ECE04DC0F091FB69E091EB6928
:10485000F5FDE0934208EDE044C0F091FB69E09182
:10486000EC69F6FDE0934208EEE03BC0F091FB6995
:10487000E091ED69F7FDE0934208E2E0E093110B6F
:10488000EFE02FC0E001E091C669F091C769F695AD
:10489000E795F695E795F695E795E21DFBEAEF9F1C
:1048A000E12DEC51F091FD69EF0FE093056A0E01E7
:1048B000F091FB69FC7F91F0EEEFF9E6C191C783BF
:1048C000C191C783C191C783C191C783C191C78378
:1048D000C191C783C191C783C191C7832092FB69EE
:1048E000D3CDE093CA69AF91BF91CF91DF91EF91A2
:1048F000EFBFEF91FF911895E4E9FAE6AAE4BEEC68
:10490000D0E0C1E0D583C083B183A2832682278211
:10491000208624823A96D395D830A1F70A980B982E
:10492000089809989DC112D0ED91FD91FC83FD91ED
:10493000F887FD91F98777D141F0E885EF3008F0ED
:10494000E0E0E659F0E0F94D09947DC2AD81AA0F8F
:10495000AA0FB0E0AC57BF480895C4EEDAE6CF9393
:10496000DF930E94E72BDF91CF912A97DCDF8E81C6
:104970009F8190FB9827917009F0BCD0888181506D
:1049800041F008F088838D81882349F71FD141D1F8
:1049900067C1F981EA8181918C3008F080E090E074
:1049A00088529B4D8F939F930895F983EA83EBCFB1
:1049B0000BC00DC011C02CC036C03FC042C047C0A4
:1049C00054C05CC062C068C00B807BD0DCCF01905B
:1049D00078D011901882E9CF0E949B259F938F93E6
:1049E0008191982F92958F709F70092E081A0394C9
:1049F0001F90109C180E64D08191982F92958F7003
:104A00009F70092E081A1F90109C180E1882CDCF87
:104A10000E949B2501909191091A0394182E109CD5
:104A2000190E4ED0B8CF0E949B2501909191091A82
:104A3000182E109C190E1882B8CF91918191FC010B
:104A4000AACF91918191FC018D810995A4CF0E94FB
:104A50009B2501909191981708F4A7CF0394102CEF
:104A6000100C100CE119F20996CFE89410800B801D
:104A7000101460F021F43196319697CF689411901C
:104A80000B800114C8F7039415C0689411900B8033
:104A9000101490F70A940EC00E949B2501909191EA
:104AA000091A0394182E109C190E0B80101408F488
:104AB00007D071CF06D0119018820EF476CF63CF55
:104AC000012C0B82A4EEBAE61D80A10DB21D0C9242
:104AD0000895FFECE8E903C0FFECE0EC00C08C8136
:104AE000843108F080E0880FE80FF21D91918191E8
:104AF000FC0108958E8180F98E839EEC8CE416F47F
:104B00009EEC80E599838A8391E09883089513D081
:104B10008F77089510C00FD009F4917008950BD0CD
:104B200009F49370089507D009F49770089503D09D
:104B300009F49F70089580911A0B90910A0B8927B0
:104B40000895E4EEFAE6D0916C6BDF70D395D4FD56
:104B5000DA95C191CD17C091010ACB7F08F0C460EE
:104B6000C093010AC191CD17C091010ACF7E08F010
:104B7000C061C093010AC191CD17C091010ACE7FD7
:104B800008F0C160C093010AC191CD17C091010A1C
:104B9000CD7F08F0C260C093010AC191CD1708F023
:104BA000A99A08F4A998C191CD1708F0AA9A08F417
:104BB000AA98C191CD1708F0AB9A08F4AB98C191AF
:104BC000CD1708F04F9A08F44F980895ACE6B0E777
:104BD0001AD08093556A17D0E091546A8093546A32
:104BE000E827E2FF0FC0E091836AE7FBEF7782FDE1
:104BF000EE0FE7FDEEE782FFE695E093826AE7F9C4
:104C0000E093836A089581E0EE910DD0881FE0F76C
:104C10000895ACE6B0E780E8ED9105D08795E0F720
:104C20008093566A0895E53410F0EE2713C0E7FB31
:104C3000EF771E2EE770F0E0E85AF34300801694F9
:104C400016941694E2E5F8E6E10DF21DE0810EF40B
:104C5000E025E021E195089501020408102040803C
:104C6000ECE7F0E7A4EBBAEDDAE08191CD91C21167
:104C70008883E238D1F708951FB6F095F894009034
:104C8000526A0F220E2A0092526A1FBE08951FB662
:104C9000F095F8940090536A0F220E2A0092536AFE
:104CA0001FBE0895E091516AEE230895E0913A7095
:104CB000EE3108F0EEE1E0938506FFB7F894E0915D
:104CC000516AE15010F0E093516AFFBFE1E0E093D8
:104CD00086060895B8C0A2C016C01FC028C031C043
:104CE0003AC040C048C050C057C05EC06EC077C018
:104CF00063C07FD083FDA7C082FD90C080FDA3C0AC
:104D000090FFA1C08BC075D083FD9DC082FD86C081
:104D100080FD99C090FF97C081C06BD083FD93C088
:104D200082FD7CC081FD8FC090FD8DC077C061D0B9
:104D300083FD74C082FD87C080FD85C090FD83C067
:104D40006DC057D083FD6AC082FD7DC081FD7BC0F0
:104D500090FF79C063C04DD083FF91FD65C082FF95
:104D600063C053C046D083FF91FD5EC082FF5CC02C
:104D700090FF69C04AC03DD083FF91FD55C082FFBE
:104D800053C090FD60C041C034D083FF82FF4CC04F
:104D900091FD08953AD04EC02CD083FF82FF53C0BE
:104DA00091FD90FD50C03AC024D083FF82FF4BC0DC
:104DB00091FD90FF48C032C01CD082FD0895B3E041
:104DC000B823B21183FD3FC029C013D082FD0895DE
:104DD000B3E0B823B21183FD36C01DD031C009D075
:104DE00082FD0895B3E0B823B21183FD2CC00AD030
:104DF00021C08091546A9091526AA985089587DEF6
:104E000069F0089587DE51F0089585DE39F0089540
:104E100086DE21F0089587DE09F00895E1E0EF8352
:104E2000089575DE81F0089575DE69F0089573DEEA
:104E300051F0089574DE39F0089575DE21F008957B
:104E400076DE09F008952F820895000006256C0093
:104E50000625690001000000010F010001000000AB
:104E6000010201010401080F01000106010800010F
:104E7000000002008102108102FF210703A002FE50
:104E8000810701FF00000200F10210F102FF21077B
:104E900003A000000101140211F102FF21070280AA
:104EA0000000080101043010010F01000801010495
:104EB0003010010408080F01000001000000090F74
:104EC000010450200702FF00010000000804010057
:104ED0000800010001080102531108010104060144
:104EE0000704C004C040090F010702FF0000010FC2
:104EF00001010101045020046010090F010702FFA5
:104F000000000B03010480400A00010702FF0000BB
:104F1000080401010F030104010801010101080750
:104F200005FF000008000100010F0A01000A070246
:104F3000FF000200F102FFB90200B90702FF000002
:104F400001000100010F010100130702FF00010F22
:104F500001010001010F010100110704FF00010F11
:104F600001010001010F01010001010F0101000F0A
:104F70000706FF0001000100010001080F01080100
:104F8000010702FF0000010011080F0108010107DD
:104F900002FF000008000100CE54CE58CE60CE7251
:104FA000CE86CE94CEA2CEACCEBECECCCED4CEEEDD
:104FB000CF10CF28CF32CF44CF4ECF5ECF78CF8621
:104FC000CE54CE5CCE6ACEBACEBACEBACEBACEBAB5
:104FD000CEC8CED0CF02CF02CF24CF40CF40CF74A7
:104FE000CF74CF74CF94CF947DD06ED00BD00E946D
:104FF0003D16E093496AF0934A6A2092436A2092F0
:10500000446A089582E010904E6800904F68F091D5
:105010004C68E0914D68EF01CD2BD9F4E091107010
:10502000F4E6EF9FF0E0E211F0ECE0910F70EF7723
:105030000E0E121C1F2A81E0E0910070EF77F0E065
:10504000C0911970C5FF05C0F0910D70E0910E7010
:10505000F06CE0930E6AF0930F6A0092106A10925F
:10506000116A0128E0E0F0E20210EF2F05DECEEF3A
:10507000D5E1BAC1E091436AE23060F0E091446A60
:105080002092436A2092446AE93020F4F0E0E55B24
:10509000F74D0994089508C008C009C00AC00BC0A4
:1050A0000CC00DC00CC00CC040C00C941F150C945B
:1050B00021150C9425150C942F150C942A15089580
:1050C000F89489D10C941F15B1D004D0B3D002D07C
:1050D000B5D000C0B0E055D0B395A091476ABA17DB
:1050E000D1F70895E091FF15E03069F0EF3F09F046
:1050F00072D19CD009D09ED007D0A0D005D0CFEFE0
:10510000D5E180E071D10895B0E0A89506D0B395BF
:10511000A091476ABA17D1F7089528D028F4D09102
:10512000456ACE2F8A2F5AD10895F89481E0CEEFA8
:10513000D5E15AD17BD0B0E0F0DFB0E1EEDFB3953E
:10514000B431E1F70C941F15E091456AE431EEE0CB
:10515000EB0751F0E0910B70F0910C70EF1721F01C
:10516000EF91EF91989408951894089539D033965B
:105170000994F0DF35D031960994E6DF31D03296CC
:1051800009942ED030960994A0E027C0EA81A98125
:1051900021C0EA81F091456AA081F091466AA0831E
:1051A00019C0EA81F091466AA08114C0EA81F091A9
:1051B000466AB091456AEFD00DC0E981FA81A081BD
:1051C00009C0E981FA81A08305C00F92C895A02D7E
:1051D0000F9000C018940894089518948894089526
:1051E000CB2FD091476ACD1778F4D0E0CC0FDD1FDC
:1051F000CC0FDD1FF091486ADF0FE881E43149F000
:10520000F0E0EB58F24D0895C0E0D0EEE5E7FDE2A6
:105210000895E981FA810895B0E0B03099F4A030A2
:1052200029F0A13039F0A23049F00CC0A3ECBCED5C
:10523000F0E00BC0ADE7B0EEF0E007C0A1E0B2EEE9
:10524000F1E003C0A0E0BCEDF0E0A093476AB093AA
:10525000486AFC5EF093456AF45AF093466A0895F2
:1052600003C007C009C010C0A0910014A093007033
:10527000B1CFA0910070AECFAA2329F022F0E0E0D8
:10528000F0E789D0A7CF80CFE0E0A3E0A3CF7CCF29
:1052900002C003C079CFADE09DCF0E94B81261F487
:1052A000E091436AF091446AFA13E0E0E395E093F9
:1052B000436AA093446A8ECF67CF03C007C009C07A
:1052C00013C0A0910B14A0930B7084CFA0910B700E
:1052D00081CFAF3F11F4A0910C70A03F20F4EBE020
:1052E000F0E759D077CF50CFEBE0A1E073CF03C008
:1052F00007C009C00FC0A0910C14A0930C706ACF16
:10530000A0910C7067CFA03F20F4ECE0F0E743D011
:1053100061CF3ACFECE0A1E05DCF03C007C009C088
:105320000FC0A0912F14A0932F7054CFA0912F7075
:1053300051CFEA2F0E947F12EFE2F0E72CD04ACF44
:10534000EFE2A1E047CF20CF06C01ECF1DCF1CCF7C
:1053500005C01ACF19CFE1E0F1E937CFE0E0F1E97C
:1053600034CF2092576A2092586A089504D0FE2FB5
:10537000E0E2EF1B0895E091586AF091576AEF1B45
:1053800008F4E1950895E091586AF091576A88947D
:10539000EF1308940895C091586AC75AD0E0D549D0
:1053A000B993E993F993A993C955C03208F0CC2772
:1053B000C093586A0895C091576AC75AD0E0D5493A
:1053C000B991E991F991A991C955C03208F0CC275A
:1053D000C093576A089590E3889410C0A881A823C9
:1053E000A81711F492E106C0A881A823A817B1F369
:1053F00093E100C0A881A817A9F00894A091021019
:10540000A1FDFCCFA0FDFACFADE9A4BF90930010A1
:1054100008F48993A4BFA1E0A0930010A09102100A
:10542000A1FDFCCF08950895D7EA26C227D2D6D190
:1054300025D2E0910210E1FDFACFA5DFC0F7BBDF76
:10544000C081CA17B1F3A083FB2FCDE9D3E1C4BF5C
:10545000D0930010A083D1E0C4BFD0930010D1E05E
:10546000D0930410D0930310E2CF82E390E00E9427
:10547000262CFBCF82E390E00E94262C0E94AD24D4
:10548000F9CFFCD10E94BE160E944112A7D1F9CFDC
:1054900088EE93E00E94262C4DD2F0914C68E0916A
:1054A0004D68EF2BA9F03CD282E390E00E94262CBD
:1054B0003CD288EC90E00E94262C32D282E390E02D
:1054C0000E94262C32D288EE93E00E94262CE4CF54
:1054D00027D282E390E00E94262C27D282EE94E02D
:1054E0000E94262CD9CF0C94A1250C9448140E941C
:1054F000BD160C94EA14E091E3692092E369E0930D
:10550000E2690895F9EDEAE8DBE6CEE282E10E9485
:105510003B1514D037D03FD047D04FD057D05FD0B5
:1055200067D06FD011272227D9E0C9E9C0936A6BF1
:10553000D0936B6B089578940C94A52AEEE2FBE669
:10554000E093676BF093686B08950E94142A209291
:105550006E6B20926F6B2092706B1D7FE0916E6B73
:10556000F0916F6BC091706B3196C21D11FDEFCF42
:105570002223D1F3E0936E6BF0936F6BC093706B4B
:105580002DD1ECCFE9ECFAE2E0933F69F0933E696C
:1055900008950C94162AE2EDFAE2E0935F69F09325
:1055A0005E6908950C94352AEBEDFAE2E0937F6989
:1055B000F0937E6908950C943A2AE4EEFAE2E093BF
:1055C0008169F09380690895A3E924C0EDEEFAE2C1
:1055D000E0938369F09382690895A4E91BC0E6EF24
:1055E000FAE2E093A369F093A26908950C94412A2A
:1055F000EFEFFAE2E093A569F093A4690895A6E9B4
:1056000009C0E8E0FBE2E093C569F093C46908953E
:105610000C94482A0C946F1610FD7CC0F093796BA3
:10562000FFB7F093786B1160E0937A6BD0937B6B4C
:10563000C0937C6BB0937D6BA0937E6B90937F6BDC
:105640008093806B1092816B0092826BC0916C6B27
:10565000C395C0936C6B09F41860CF7009F41460A3
:10566000C0FD14C01061C0916A6BD0916B6BC150CA
:1056700015F41062C97F10F41064C979D04010F499
:105680001068D970C0936A6BD0936B6B17FD52D0C2
:1056900073D00E94732A14FD0E94752A13FD0E9484
:1056A000772A17FD0E947B2A14FF1BC0DBE6C4E4A7
:1056B000A1E0E881F981319788F071F42A2BE88321
:1056C000F983EA81FB81FE2B49F0FB810180A095E3
:1056D0000A22A095018202C0E883F9832496AA0FCA
:1056E00041F70090826B1090816B8091806B90915C
:1056F0007F6BA0917E6BB0917D6BC0917C6BD091E4
:105700007B6BE0917A6B1270F091786BFFBFF09138
:10571000796B0895F894E1E0F1E00E94D22CFFEF5C
:105720003197F1F7E0E0F1E00E94D22CF0E43197FC
:10573000F1F7F0CFE0916F6BF091706BEE0FFF1F00
:10574000EBE8FE9F000C111CE4E6E119E0936D6BA1
:105750001260C091726BD091736BC093746BD093D5
:10576000756BD695C795D695C795C093716B2092EA
:10577000736B2092726B0895E0916C6BEF70E09305
:10578000696BEE0FF0E0E953F44D099408950C9421
:10579000C62B0C94C62B0C94C62B0C94C62B0C94C5
:1057A000C62B0C94C62B0C94C62B0C94C62B0C94B5
:1057B000C62B0C94C62B0C94C62B0C94C62B0C94A5
:1057C000C62B0C94C62B0C94C62B0C94C62BF091B4
:1057D000646BFF0F11F02F1708F40895E091726BBE
:1057E000F091736B3196E093726BF093736BC09191
:1057F000676BD091686BEDB7FEB7E993F883E0E291
:10580000F22FC0E8FF0F30F019F0C695E450D1F741
:10581000CC27EE27C093646BE093666BE695E0932C
:10582000656BDBE6CEE2CE0FD21DC093676BD093E3
:10583000686BE991F881CFB7F894EDBFFEBFCFBF99
:10584000089591E0899FC00101C09927C0E4DBE67B
:10585000B091666BCB0FD21DBFB7F8948883998344
:10586000D091646BD0952D23BFBFB8CF07D0B6CFF2
:1058700003D0B4CFD091646B2D2B0895D091646B7D
:10588000D0952D230895208221820895689401C027
:10589000E894D091646BBFB7F894C081CC2321F019
:1058A000CE7FC083BFBF0895C181CD2BC183BFBF51
:1058B0000EF0DCCFCBCFBFB7F894C191D081DD2300
:1058C00021F4C160C293BFBF089520822292BFBF5E
:1058D0000DC0BFB7F894D081D260D193D081DD23C1
:1058E00011F4BFBF08952082BFBF00C0E0E4FBE613
:1058F000CD2F3496CC0F41F0E0F7F894219221920D
:1059000021922192BFBFF6CFB7CF20820895BFB7B3
:10591000F894A081AE7FA083BFBF0895F8DFB8CF11
:10592000E1E0F1E00E94D22C0895E0E0F1E00E9475
:10593000D22C0895C3E8DBE6E6E7F9ED0C2E9FEFE5
:10594000A191B191BF3F81F011968FEF83951D908A
:105950001120E1F3821183958993981788F38211BE
:10596000982F82110C2EECCF9093766B0894C0097F
:10597000C093776B08950069206940696069806908
:1059800082698469A469A669FFFF1F693D695D6931
:105990007D697F698169A169A369C3690895E2E0AE
:1059A000F2E000C0EF23F0950090166B0F22E02983
:1059B00006C0E0E004C0EFEF02C0E1E000C0E09309
:1059C000166B00C0E091166B0C944316EF23F09514
:1059D0000090176B0F22E02908C0E0E006C0E5E563
:1059E00004C0EFEF02C0E3E400C0E093176B00C017
:1059F000E091176B0C944116310B00000105013149
:105A00000080896A000100404031008000000002EF
:105A1000310B0000010501310081896A000100405D
:105A20004031008100000002310B0000010105310E
:105A30000080896A000100404031008000000002BF
:105A4000310B0000010105310081896A000100402D
:105A500040310081000000023103000001000731E5
:105A60000080226B000100404031008000000006F1
:105A700031030000010700310080246B0001004069
:105A80004031008000000006110B000001024011AF
:105A90000080796A00010102401100838B6A0001D5
:105AA000014240110081266B00010040401100803E
:105AB000000000022C29282A0000110B000001041C
:105AC000401100804B6A000100404011008000003E
:105AD0000002110B00000104401100804D6A00011A
:105AE000004040110080000000024ECB4DCB4CCB5B
:105AF0004BCB4ACB4BCB48CB47CB4BCB52CB56CBEC
:105B000045CB42CB5ACB40CB3FCB3ECB56CB59CBF0
:105B10003BCB3ACB39CB38CB37CBFFFFFFFFFFFF77
:105C00001430297F080101FF081002FF081003FF6C
:105C100008FF04FF088005FF041200001447290054
:105C200008000603080007FF081008FF040400002E
:105C30000800090008000A00145D29FF147729FFF5
:105C400008C30DFF08E80EFF08000FFF080010FF53
:105C5000080011FF080012FF0800130008001400DC
:105C60000000000000000000080017FF089E181147
:105C7000080A1911101A7000040000FF04FF00FF49
:105C80000000000000000000000000000000000014
:105C90000000000000000000000000000000000004
:105CA00000000000000000000000000000000000F4
:105CB00000000000000000000804290F08002A0F5F
:105CC00008042B0F08002C0F08802DFF08002EFF62
:105CD000148D29FF080330FF0800313F0801320FFF
:105CE000080033FF08FA34FF086435FF086436FF04
:105CF000088037FF088038FF08A039FF081E3AFFE8
:105D0000000000000000000008033DFF08073EFF00
:105D1000080C3FFF081040FF081541FF081942FF1B
:105D2000081E43FF082244FF082745FF082B46FFB3
:105D3000083047FF083448FF083949FF083D4AFF4B
:105D400008424BFF08464CFF084B4DFF084F4EFFE3
:105D500008544FFF085850FF085D51FF086152FF7B
:105D6000086653FF086A54FF086F55FF087356FF13
:105D7000087857FF087E58FF000000000406000066
:105D80000C4068000C4168000C4268000C4368003D
:105D90000C4468000C4568000C4668000C4768001D
:105DA00008005AFF08005BFF04010000040900001E
:105DB0000C01A1000C0091000C0191000C0091005D
:105DC0000C1180000C10800014A329FF14A729FFD8
:105DD0000C1717000CFF15000CFE150008015CFFE6
:105DE00008025DFF08035EFF08045FFF080560FF0F
:105DF000080661FF080762FF08FF63FF08FF64FFF2
:105E000008FF65FF08FF66FF08FF67FF08FF68FFE0
:105E100008FF69FF08086AFF08096BFF083D6CFF6F
:105E2000083E6DFF083F6EFF08406FFF084170FF9E
:105E3000084271FF084372FF084473FF08FF74FFB4
:105E400008FF75FF08FF76FF08FF77FF08FF78FF60
:105E500008FF79FF08FF7AFF08FF7BFF08FF7CFF40
:105E600008FF7DFF08FF7EFF08FF7FFF08FF80FF20
:105E700008FF81FF0000820000008300080084FF0B
:105E8000080285FF080286FF08FF87FF080088FFD9
:105E9000080289FF08038AFF08FF8BFF08008CFFB8
:105EA00008028DFF08058EFF08FF8FFF080090FF96
:105EB000080291FF080492FF08FF93FF08FF94FF78
:105EC000080095FF080096FF08FF97FF08FF98FF5E
:105ED000080099FF08009AFF08FF9BFF08009CFF3D
:105EE00008019DFF08069EFF08FF9FFF08FFA0FF17
:105EF0000800A1FF0800A2FF08FFA3FF0887A4FF76
:105F00000803A5FF0800A6FF04550000FFFFFFFFE0
:10600000040900000401000000000000000000007E
:106010000C4368000C4268000C4168000C406800AA
:106020000C4768000C4668000C4568000C4468008A
:106030000C0876000C0976000C0A76000C0B760032
:106040000C0C76000C0D76000C0E76000C0F760012
:106050000C1076000C1176000C1276000C137600F2
:106060000C1476000C1576000C1676000C177600D2
:106070000C1876000C1976000C1A76000C1B7600B2
:106080000C1C76000C1D76000C1E76000C1F760092
:106090000C2076000C2176000C2276000C23760072
:1060A0000C2476000C2576000C2676000C27760052
:1060B0000C2876000C2976000C2A76000C2B760032
:1060C0000C2C76000C2D76000C2E76000C2F760012
:1060D0000C3076000C3176000C3276000C337600F2
:1060E0000C3476000C3576000C3676000C397600D0
:1060F0000C3A76000C1A76000C1B76000C00760029
:106100000C0076000000000000000000000000000D
:106110000000000000000000000000000C9068007B
:106120000C9168000C9268000C9368000C98680051
:106130000C9968000C8068000C8168000C82680073
:106140000C8368000C8868000C8968000C8A680061
:106150000C8B68000C8C68000C8D68000C066A00C3
:106160000C076A000C086A000C096A000C0A6A0035
:106170000C0B6A000C0C6A000C0D6A000CD0690054
:106180000CE169000CE269000C286B000C296B0023
:106190000C2A6B000C0268000C0368000C046800F9
:1061A0000C0568000C0068000C0168000CFD15006F
:1061B0000C836B000C846B000C856B000C866B00F1
:1061C0000C876B000C886B000C896B000C8A6B00D1
:1061D0000C8B6B000C2168000C2068000C226800FE
:1061E0000C0E6A000C0F6A000C106A000C116A0099
:1061F00004550000FFFFFFFFFFFFFFFFFFFFFFFF52
:10620000045F0000FFFFFFFFFFFFFFFFFFFFFFFF37
:1090000087C0FFCFFFC7FFCFFFC7FFCFFFC7FFCF8F
:10901000FFC7FFCFFFC7FFCFFFC7FFCFFFC7FFCF00
:10902000FFC7FFCFFFC7FFCFFFC7FFCFFFC7FFCFF0
:10903000FFC7FFCFFFC7FFCFFFC7FFCFFFC7FFCFE0
:10904000FFC7FFCFFFC7FFCFFFC7FFCFFFC7FFCFD0
:10905000FFC7FFCFFFC7FFCFFFC7FFCFFFC7FFCFC0
:10906000FFC7FFCFFFC7FFCFFFC7FFCFFFC7FFCFB0
:10907000FFC7FFCFFFC7FFCFFFC7FFCFFFC7FFCFA0
:10908000FFC7FFCFFFC7FFCFFFC7FFCFFFC7FFCF90
:10909000FFC7FFCFFFC7FFCFFFC7FFCFFFC7FFCF80
:1090A000FFC7FFCFFFC7FFCFFFC7FFCFFFC7FFCF70
:1090B000FFC7FFCFFFC7FFCFFFC7FFCFFFC7FFCF60
:1090C000FFC7FFCFFFC7FFCFFFC7FFCFFFC7FFCF50
:1090D000FFC7FFCFFFC7FFCFFFC7FFCFFFC7FFCF40
:1090E000FFC7FFCFFFC7FFCFFFC7FFCFFFC7FFCF30
:1090F000FFC7FFCFFFC7FFCFFFC7FFCFFFC7FFCF20
:1091000001002BD101000000DC76DD67452AAC842C
:10911000A895F8942224E8EDE4BF20921001E8ED30
:10912000F1E0E4BFF0936200EFE1F9E6EDBFFEBFCE
:10913000E0E0F9E6C0E0DAE021922197E9F791D486
:1091400009F094D4A0D409F0A3D4EFB3E09302685B
:10915000E0910468E395F999E0930468E09103686D
:10916000E395FB99E0930368E0910068F091016852
:109170003196E0930068F09301686ED44F98479A57
:10918000AC9AA49AE0E4F8E02682A0E8B1E0A087D7
:10919000B1872582A3E0A783A0E4A683A9E0A093DA
:1091A000000A2092200A2092210AA1E0A093000B3D
:1091B0002092010BAFEFA0930C0BA0930D0B20920C
:1091C00052042092B0044298A098A9D4A8D42ED4D6
