:020000020000FC
:100000000C9448000C9444020C9444020C94DA01C1
:10001000010020D10000000016A95667430DFF5BC8
:10002000F6C1F8C1FAC1FCC1EDC0E3C0E7C5E8C53F
:10003000FCC1F9C101C2AFC3B4C339C43CC4C5C318
:10004000CFC3D6C369C442C450C4B9C3AEC3B2C3DC
:10005000E2C410C204C209C252C357C362C363C31D
:100060006BC377C38EC392C39DC402C108C194C43D
:10007000C7C3D1C3ADC3EDC4F6C40BC5E1C6E4C666
:10008000E6C6E8C6EDC6FBC60BC7BEC1BDC0EDC027
:10009000F8942224E7E2F9E6EDBFFEBFE8EDF7E0D1
:1000A000E4BFF0930001A895E8EDF4E2E4BFF0931B
:1000B0006800E0914000E0934000EFBBE8EDE4BF52
:1000C000209201102BBE4F98479A4F98479AE8E02C
:1000D000E0935704E0935704E8EDF0E6E4BFF093B3
:1000E0001001E0914101E211FCCF209248012092E1
:1000F0004901E1E0E0934001EFE1E093E205EFE048
:10010000E093E405E8E0E0935704E0935704E093BC
:100110005704E0935704E0E0F8E02682A0ECB0E05A
:10012000A087B187A0E8A583A3E0A783A2ECA6835C
:10013000479847984F9A4F9A479A479A58D060D015
:10014000A59A029A039A009A019AA19AA29AA39A4E
:10015000479AF89B06C0E0E0F0E6AFEFA193F836CF
:10016000E8F3E0E0F9E6FB9BF899E0E0FB9BF89907
:10017000F8E62192F038E8F3E0914801F091490166
:10018000F230D0F3E2E035D039D0B8D2C2E033D586
:10019000E0910090EF3F11F0DBD419F079D4D8D47E
:1001A00009F485C1E1E066C160D0E0E0FAE02082B8
:1001B000218222822382AFE0A083E0E0FBE0208264
:1001C0002182AEE6B1E0A487B587A1E0A583A5E0D2
:1001D000A083DED2E3D2789406D010D0C2E602D556
:1001E000E0E00DD269C0E0E004C0EFEF02C0E1E062
:1001F00000C0E0FDAD9AE0FFAD980895E0E002C0D8
:10020000E3E400C0F3E400C0F0FF04C0E0FD0A989E
:10021000E0FF0A9AF1FF04C0E1FD0B98E1FF0B9AA1
:10022000F2FF04C0E2FD0898E2FF089AF3FF04C061
:10023000E3FD0998E3FF099AF4FF04C0E4FDA99ADD
:10024000E4FFA998F5FF04C0E5FDAA9AE5FFAA9886
:10025000F6FF04C0E6FDAB98E6FFAB9AF7FF04C0DB
:10026000E7FD4F9AE7FF4F980895E0E0FCEBCCCF15
:10027000E8EDF1E0E0933400F0934100FFCFA89562
:10028000E8EDE4BFE1E0E0930001FFCFCDD316D36A
:100290009681C1D30C92BED3CCC3C6D3BBD39781B6
:1002A000BAD30CD309901C9001100C9211960197AF
:1002B000C9F7B0D3BED30895E7E2F9E6EDBFFEBFBC
:1002C000222734E0EAE29BD1C091006994D43CD16A
:1002D000203491F324FD10C026FFF9CFE8E7F3E0C6
:1002E000059000160590159019F4F0010995E4CFDA
:1002F000E43BB1F720FFEBCF003449F7622F637086
:10030000613029F720620DD17A3B21F46231A1F6E8
:100310002061DDCF24FFD0CF7B3B39F4693060F61C
:10032000C62F69D4246031E0D2CF7C3B21F422FF78
:10033000C3CF98D1CCCF7F3B51F6603011F40AD0B7
:10034000BBCF613009F40AD0B7CF68E08BC1C02FB2
:1003500049D4B2CF87D3E0EE52D1AECF99D3EEEEEF
:100360004ED1AACF0053E1E00A9512F0EE0FFCCF78
:10037000FEB3FE27FEBB089530B20131B20132B2A6
:100380000133B20134B20135B20136B20137B201E4
:10039000534D0252340264A50161A70162A70163B3
:1003A000A70165A70166A70173A70175A7016CA73F
:1003B00001005C01EFB64F01E0910408E7FF13C0B4
:1003C000E72DE619E03C23FF08F04F9AE091010881
:1003D000E2FD82C0F0E7E72D7090000871927E2E5A
:1003E000F401EFBE1895E091060BE093060B76142E
:1003F00011F442104A943A9422F4332EE0E2E0934E
:10040000A704F401EFBE1895E0E0F0E00895EDE0F8
:10041000F0E00895E0E2F1ED0895E1E0F0E0089504
:10042000E0E2F1ED089503D0EBC301D0E7C3AFE004
:10043000B0E0C0E1D1E10895F8DFA193B193C19399
:10044000D193F1DFA193B193C193D1930895DFEFDD
:10045000672C94D06710FBCF2197D9F7089517D058
:1004600048F00895EBE001C0EAE0CCDE20924801BC
:1004700020924901A895F8944F98F0E208D0E8F747
:10048000C1DEF0E404D0E8F7AEDEB8DEF1CE0090D5
:10049000480100904901F0150895C0910069ABD35F
:1004A00057D3C9F4CF3211F0CB32A9F4D0DF209268
:1004B00005082092000A2092000B2092050B209242
:1004C00048012092490193D1FE01E050F048F69591
:1004D000E795F8940994FBCEF894209206084F987B
:1004E000E8E087DEE5E58EDEEFEFA89500C000C00E
:1004F00000C0E211EA95579BF8CFE211F5CFC4CFC7
:100500008E2F99277FDEE8E074DEE6EA78D0F0915E
:100510001500E2E0F5FDEAE06CDE32E0672C2ED05B
:10052000F6CF04D0702F02D0602F089507D0029527
:100530000F9304D00F900029F00E089505D00F7D81
:10054000075308F4095D089519D0421002C025FD33
:10055000B3CE7614C9F3F0E7E62D008163942064EE
:1005600042102F7B26FD2F7EFBE04F2E21FF23958F
:100570000A3011F00D3009F42C7F00C00F01A8954E
:1005800023FD06C0E72DE619E03218F44F9801C0AC
:100590004F9AF0010895019101D003C00F93029585
:1005A00001C00F930F70005D0A3308F0095F1BD084
:1005B0000F910895092FF0DF082FEECF0AE013D036
:1005C0000DE011C0E0E0F1E1E6DFE5DFE4DF0EE29F
:1005D0000AD029DFCE01EEDFCD01ECDF26DFCE0130
:1005E000E9DFCD01E7CFD8E1C9DF0090040805FEBF
:1005F000FBCF21975799C1F7009302080895E09324
:100600000169FDE0E091016905910DBBE09301698D
:10061000002391F012F0E7DFF4CFE9990ED0EA99C8
:1006200011D0EB991AD0EC99CDDFEE9913D0ED995A
:10063000B2D2E899C3DFE5CF0895C591E09301698F
:10064000DAD290C200900069109031690AE210106D
:100650000895C9CF09E0C7DF87C2EC9BABCFEC9808
:100660000EB39ACF6CBBE099BAD2E19907D0E39967
:100670009AD2E6991CCFE799F5CE089517D1B7D055
:10068000C0930269D09303695FDF20FFFDCF0A3377
:10069000D9F74CDF502EF02E44DFC0910269D09183
:1006A0000369C60FD71F42DF003031F00130F1F08F
:1006B000023069F0E4E024CFFDD008945208A0F0A5
:1006C0002AD1E5E0C8F032DF802F0ED1F6CF29DF46
:1006D000660F771F660F771F660F771F660F771FEE
:1006E000609302697093036903D0CECF5AD100C0E2
:1006F0001DDFF21411F0E6E003CF0895BBD0C3E88C
:10070000D3E049D04EC0A8950895C487D5870895F1
:10071000C93008F0C9E0DCE0CD9FE001C852D54700
:100720000895F6DFADC0C083D183C48BD58BCA0FCB
:10073000DB1FC283D3830895A68FA895C28FD38F62
:10074000D5D020F0C28DD38D2197B9F70895AA276F
:10075000BB27C48FD58FEC8FFD8FA895A28FB38F49
:10076000C48DD58DFE01B2D048F0C48DD58DFE016B
:10077000BCD020F0A28DB38D119779F708958FEF3B
:1007800079D0868FA895B2D0E8F70CC1FADFFFCFF9
:1007900071D0CEE1D5E0C68BD78B08956BD0C7E280
:1007A000D5E0C08FD18F089565D081D00ED018D0FC
:1007B00025C260D07CD009D013D022C25BD0F5DF37
:1007C00002841384C015D1050895C489D58908957C
:1007D000C489D58900801180C019D10908954AD0F3
:1007E000A281B38104881588A019B109089542D067
:1007F000C081D18108953ED0C281D38108953AD07D
:1008000000801180C281D381C019D10909F02196DD
:100810000024021C08957CDFFE0100801180C2814B
:10082000D381F2CF0C2EC4EEDAE81884101419F03C
:100830002C96C434D1F70895DCE0CD9FE001C85276
:10084000D5470895CE01C4EEDAE8088019808015F6
:10085000910530F00A801B808015910531F028F059
:100860002C96C43491F70894089588940895A0E0D4
:10087000B1E70895E8E2F9E60895FCDFA487B587BB
:100880008CE0099001928A95E1F73C97C481D5816B
:100890002197C095D095C28BD38BC081D181C6875B
:1008A000D787C08BD18B278E02D07EC0E3DFC0817B
:1008B000D18101C0DFDFC48BD58B08958481958100
:1008C000A685B785C485D5850895D4DF25D038F0B1
:1008D000C489D58950D020F08991C48BD58B0895D7
:1008E00021968FEF0894F9CFC5DF868F15D090F051
:1008F00053D0C481D5812197A489B589CA23DB232C
:100900001196A48BB58BA485B585CA0FDB1F868D88
:10091000888388940895AEDF0488108001140588C8
:100920001180010440F004881280011405881380AE
:10093000010419F010F008940895889408959ADF3E
:10094000C489D589A685B785CA17DB0730F0A08989
:10095000B189CA17DB0719F010F00894089588943C
:10096000089588DFC685D78506D0A78DAE7F08F4A9
:10097000A160A78F0895C034B0E1DB0748F0D631FD
:1009800048F0D03628F0D03828F0D03908F002C02E
:100990000894089588940895D3DF10F403D004D008
:1009A000089568DF2BD026C0C489D58902881388B2
:1009B000C021D121C687D78784819581C80FD91FCF
:1009C0002197C08BD18BCEDF40F0A685B785C4853B
:1009D000D5850D9009920197E1F70895078C00FCE9
:1009E00007C06CDF09901D90011419F40197D1F72D
:1009F00018940895F3DF09F050CC0895078C00FC9B
:100A000008955CDF09901D90102001103FCC0197E4
:100A1000C9F7089590E0809102108370E1F78DE9A5
:100A200084BF90930010089506880F9207880F9254
:100A30000895008C0F92018C0F92089528604F9AB0
:100A4000FF93F4E69BDDFA95E9F7FF910895277F80
:100A500095CDC2E066DE80E180930110B0DE209289
:100A60000110089507DFEF01DFDF2BD069F09BE075
:100A7000D2DFE895CFDF92E0CEDF00801180E895ED
:100A80003296F03AD1F7C6DFFE01D3CF02D0F7CBD2
:100A9000F1DEFF93EF93C8DFDCDF81F412D071F059
:100AA00094919F3F59F09BE0B6DF0082B3DF92E064
:100AB000B2DF04900192F03AE1F7ACDFEF91FF91E1
:100AC000B8CFE0E0F0E994918191891711F4F03A00
:100AD000D1F7E0E0F0E908950000FFFF0100000019
:100AE0002D00000000A0FFFF0002080266012FD1C8
:100AF0000090FF9F0002080262022BD10014FF1534
:100B00000100181265032ED180109F1020000802EA
:100B100063042CD100111F110100000073050000B7
:100B20005010581001000000750600000060FF67BB
:100B30000002000061072AD140104F1001000000A0
:100B40006C08000000110011010000002D090000D8
:100B500035DEA0930469B0930569C0930669D0930C
:100B600007690895F5DF06C0E0E1E0930110F0DFCA
:100B700020920110E0ED09F4E6ED0ED090910769A6
:100B80008091066917DD909105698091046912DDF5
:100B900002C0E0ED01C0ECEDFDE00591002311F095
:100BA00022DDFBCF08950ADD81DEF3DF63DE848979
:100BB000958900E1080F090FF02EE2E920DD85DEBE
:100BC00038F0082FF00EE8DC55DE04890F70B9F715
:100BD000E0DFF1940F2DE0DC9EDE40F7089566DE45
:100BE000CEDDDFCE05D00091316900930069089514
:100BF00019DE3DDE42CE20DE3ADE3FCEE89404C070
:100C00006894CA0FDB1F00C0EF93FF936FEF7FEF75
:100C1000CB01FF27A8950EF019900EF41A900894B6
:100C20001794062E0F1E969587957795679500FE6B
:100C300008C0EDEE9E27E8EB8E27E3E87E27E0E292
:100C40006E27169471F7119728F7909580957095F7
:100C500060950E01DB01EC018623872389238095B3
:100C6000FF91EF910895FFFFFFFFFFFFFFFFFFFFE1
:100D0000A1811B5B34316D2E2E2E5B524553455411
:100D10002D885DA11B5B34346D2E2E2E5B524F4D02
:100D20002E4D4F422E4431325D00A1814944205B5B
:100D3000905D814C3A208708523A201B5B33326D1C
:100D40004431325230303031A1533A208705553A80
:100D500020870681413A208707423A20C702433A5A
:100D6000208704453A208703463A20870181524F65
:100D70004D205B987C527C537C645D202D205B6110
:100D80007C627C637C657C667C6C7C737C755D3E80
:100D90002000813A31301B5B39346DA81B5B393040
:100DA0006D3030A0000081811B5B34356D2E2E2EFE
:100DB0005B4572726F722023885DA0202D203C62FB
:100DC0007265616B3E20746F20726573756D65008E
:100DD0001B5B39306D001B5B33326D001B5B6D009C
:100DE000A1811B5B34346D5B532D3E5D0000A181FE
:100DF0001B5B34346D5B3C2D525D0000FFFFFFFF39
:100E0000ACAAA9A5A3A69C9A999593968E8D8BB111
:100E1000B2B4B874726C6A696563665C5A595553AA
:100E2000564E4D4B4771E8E4E2D1C9C5D8D4D2CA79
:100E3000C6CC78171B1D1E2E363A272B2D3539337D
:100E40001ED00ED01CD00CC00BD019D009C017D0AA
:100E500007D015C005D0E991EF73E081ED930895B7
:100E6000E991EF70F881FF0FEE1FFF0FEE1FFEE814
:100E7000E081ED93E991EF73E081ED930895FEE851
:100E8000E881E695E695E081ED93E991E370E295DE
:100E9000F881F07FF295EF2BFEE8E081ED93089565
:100EA000FEE8E881E081ED930895FFFFFFFFFFFF7B
:100F0000005EBCE2613FDD83C29C7E20A3FD1F41E9
:100F10009DC3217FFCA2401E5F01E3BD3E6082DCD9
:100F2000237D9FC1421CFEA0E1BF5D0380DE3C62C9
:100F3000BEE0025CDF81633D7C22C09E1D43A1FFB9
:100F40004618FAA427799BC584DA3866E5BB5907A9
:100F5000DB856739BAE406581947A5FB7826C49A99
:100F6000653BD987045AB8E6A7F91B45C6987A2489
:100F7000F8A6441A99C7257B3A6486D85B05E7B979
:100F80008CD2306EEDB3510F4E10F2AC2F7193CD69
:100F9000114FADF3702ECC92D38D6F31B2EC0E5059
:100FA000AFF1134DCE90722C6D33D18F0C52B0EE49
:100FB000326C8ED0530DEFB1F0AE4C1291CF2D7339
:100FC000CA947628ABF517490856B4EA6937D58B29
:100FD0005709EBB536688AD495CB2977F4AA481619
:100FE000E9B7550B88D6346A2B7597C94A14F6A809
:100FF000742AC896154BA9F7B6E80A54D7896B35F9
:1010000087C0FFCFFFC7FFCFFFC7FFCFFFC7FFCF0F
:10101000FFC7FFCFFFC7FFCFFFC7FFCFFFC7FFCF80
:10102000FFC7FFCFFFC7FFCFFFC7FFCFFFC7FFCF70
:10103000FFC7FFCFFFC7FFCFFFC7FFCFFFC7FFCF60
:10104000FFC7FFCFFFC7FFCFFFC7FFCFFFC7FFCF50
:10105000FFC7FFCFFFC7FFCFFFC7FFCFFFC7FFCF40
:10106000FFC7FFCFFFC7FFCFFFC7FFCFFFC7FFCF30
:10107000FFC7FFCFFFC7FFCFFFC7FFCFFFC7FFCF20
:10108000FFC7FFCFFFC7FFCFFFC7FFCFFFC7FFCF10
:10109000FFC7FFCFFFC7FFCFFFC7FFCFFFC7FFCF00
:1010A000FFC7FFCFFFC7FFCFFFC7FFCFFFC7FFCFF0
:1010B000FFC7FFCFFFC7FFCFFFC7FFCFFFC7FFCFE0
:1010C000FFC7FFCFFFC7FFCFFFC7FFCFFFC7FFCFD0
:1010D000FFC7FFCFFFC7FFCFFFC7FFCFFFC7FFCFC0
:1010E000FFC7FFCFFFC7FFCFFFC7FFCFFFC7FFCFB0
:1010F000FFC7FFCFFFC7FFCFFFC7FFCFFFC7FFCFA0
:1011000001002BD10100000016A95667968280A924
:10111000A895F8942224E8EDE4BF20921001E8EDB0
:10112000F1E0E4BFF0936200EFE1F9E6EDBFFEBF4E
:101130005DD470D44F98479AAC9AA49AE0E4F8E052
:101140002682A0E8B1E0A087B1872582A3E0A7832B
:10115000A0E4A683A9E0A093000A2092200A20928E
:10116000210AA1E0A093000B2092010BAFEFA09306
:101170000C0BA0930D0B209252042092B0044298C5
:10118000A098A895E8EDE4BFE7E0E093000151D412
:1011900050D4EAD34ED403D480911B68821104D476
:1011A000EFB3E0931C68E0911B68E21105C0E09189
:1011B0001168E21183C200C0C0E0D8E65CD3F993A5
:1011C000E9935BD3F993E99366D3E4E0F8E6D1932E
:1011D000C193B193A193A0910768AF77A1602092CA
:1011E0005069A0935169EAD2A0910091B091019108
:1011F000B883A983A09100A1B09101A1BA83AB8368
:101200002C82E2D2288229822A822B822C82DFD26F
:10121000E0E0F1E9A081B181B883A9839BB781E0C7
:101220008BBFA081B1819BBFBA83AB832C82E8EED8
:10123000F3E0E0932369F09324690091FE15E091B7
:101240000468E093256921E08FC180E5F2D3909195
:10125000366980E0933049F08A81943031F031FD75
:101260006DC18D81983009F06DC120922369209263
:10127000246958D123E081C2F0D184E4DAD38E818D
:1012800080930A688F8180930B68888580930868B3
:101290008985809309688A8545D127E072C2E2D1A9
:1012A00080E7C7D327E077C2DDD181E4C2D3888548
:1012B00080930C68898580930D688A8582FD04D2AD
:1012C00083708093116828E068D280911168821140
:1012D000EED14AC190913669953011F0983011F4F1
:1012E000EA8116C0973011F09A3019F4C0D1EC8120
:1012F0000FC0993011F09C3019F4AFD1EE8108C0C5
:101300009B3011F09E3019F4ADD1E88501C01AC1AF
:10131000EA3070F4F0E0E257F64F0994E1C0E1C022
:10132000E2C0E2C0E1C0E0C0E3C0E4C0E9C0EEC09A
:101330001BC19DD182E47DD38C818093A46B3885C1
:101340004985823011F430FD0FC128E1E19A30FD6A
:1013500027D230FF28D2C7E0E4E8FBE6C8D2C0912C
:10136000A46BE5D1C4D2DBD08E819F81D9D1EDEEC3
:10137000DE2EE8EBCE2EE3E8BE2EE0E2AE2EEFEF5F
:101380009E2E8E2E7E2E6E2EB8D1EEC070D183E4AE
:1013900050D30C8009140D8008040E8007040F80C0
:1013A000060428E211F428E4A8D1D5C160D182E571
:1013B00040D328E7ADD1D6C15AD184E53AD328E548
:1013C000D1C155D185E435D328E03E7F4427C3C140
:1013D0004ED186E42ED3ABD190913669963019F078
:1013E0008C8130FD8CD230FD8ED2BEC030FDA4C0C9
:1013F00090913669933009F405C0953011F437D1D6
:1014000001C0A0C082E715D392D15BD28093486916
:1014100011D057D2809349690DD053D280934A6935
:1014200009D04FD280934B6905D0929590959093B7
:101430004C69DAC1991F90FD0895089487957AD177
:101440008695E9F7089530FF77C09091366993301B
:1014500009F422C0953011F40AD11EC09B3011F45A
:10146000229606C09D3019F402D1249601C06AC0AC
:1014700087E7DFD278E06991089467955BD166953C
:10148000E9F77A95C1F7A8E0B0E02897E4E8FBE631
:1014900030D2A8E0B0E01BC0C1D081F478F0A0E069
:1014A000B2E760E8BBD011F4E8F748F08FB742D15B
:1014B0008FBF6795B8F76D93A13898F355C0A050CA
:1014C000B247C0E0D2E7E4E8FBE613D200C0C4E8CC
:1014D000DBE62DD130FD11D230FD1BD245C044C01A
:1014E00055C153D114C252C150D1E1D002E03CC029
:1014F0004FD13AC09E3009F037C04AD116D234C01D
:101500009E3009F031C044D10ED22EC03ED1C1E090
:101510003BD2CF3219F4D13D09F473D5F8C1C6E2FC
:10152000D9E6089590910A0B982392111DC0089551
:1015300084E40CC082E50AC08DE408C083E406C0E0
:1015400085E404C08CE402C084E500C072D20CC003
:10155000C0912369D0912469219730F0C093236909
:10156000D093246909F4C1CFEFE1F9E6EDBFFEBFE6
:1015700060D25FD2B0D02CBA6AE050D01130A1F75F
:101580006A95D9F74BD081F7E8F3913808F4309495
:10159000C6DF7727EE2761E041D0B1F6661FE0F79E
:1015A00069937627C43370F639D071F620F0E627B8
:1015B000FFE8E081F0CF7211C3CFE09337693D7F40
:1015C000E2113260C652C0933669A9DFE881ED3F6F
:1015D00069F000FD8ACFF981EF2BEA81EF2B29F426
:1015E000E0913669E33009F480CFB2CF6981603F82
:1015F00008F4BACF6F70E0E3F8E9660F660FE60F04
:10160000F21D0190022209F497CF019000FE02C062
:1016100031FD94CF01901080F0010994A895112715
:101620000AB0032402FEFCCF9091200A2092200AE7
:101630002092210A0AB0032402FCFCCF8091200AE8
:101640002092200A2092210A8D31111F813810FD2D
:101650008F30111F012E06940895E0E0F8E684E033
:101660001DD00CC0E4E0F8E686E018D007C00FD02B
:1016700029F00AD019F005D009F00CD0821174CFEE
:101680000895EAE0F8E609C0E8E0F8E606C0ECE014
:10169000F8E603C0EEE0F8E600C082E0DE01129654
:1016A00001901D90011411F48A95D1F70895C1E0BD
:1016B0006BD1CF3211F4D13D09F00895BAD1E09148
:1016C00005A1E0FD01D09CC4E8EDE0933400E5E81D
:1016D000E09301100895E091060BE0FF0895E09378
:1016E000060BE0912269E395E0932269E6FF01C0D1
:1016F00002C07CD18FC17ED193C117D00E010FDF04
:101700006A8A7B8A8C8A9D8A0F8A188E298E089510
:1017100006DF6A887B888C889D888F89988D00C0B9
:1017200006D0CBD0C80FD91FC2C001D0F8C0E4E6A4
:10173000FBE6089530F0969487947794679430F0A0
:1017400009C0969487947794679420F09D248C2404
:101750007B246A2408953ED0988289827A826B82A3
:101760002C8243C0E2DFDE018091A46B33D08883FA
:101770002982BA83AB832C8238C0E0E0F8E692E09D
:101780002FC0E4E0F8E690E02BC0E19A1DD02DC018
:10179000E19A1DD02AC015D028C0E19A0FD025C0EB
:1017A000C0E7D8E922C0C091A46BB7D0DE0112D047
:1017B0000882B983AA832B822C8217C0C5E5D9E69B
:1017C0000895C0E5D9E60895CAE5D9E60895CFE5BC
:1017D000D9E60895C8E4D9E60895A0E4B9E60895E5
:1017E000F9DF84E0B8D09883F5DFF7DFA4D000C03C
:1017F00097E712D09DEA10D0F0DF86E09091440880
:1018000095FFFCCF9D91909342088A95B9F78AE2A3
:1018100010D1E19BA9CE08950090200A0916E0F3AB
:101820002092200A2092210A529BB09983CE0895DB
:101830000100250902013C0904014F090401540972
:1018400000006F0A00006F0A00006F0AFF016A09BA
:10185000080199097001C6092001D6094001DC0977
:101860001001E1091001E8091000F6091000230A2F
:1018700002003214FFFF0C9410000C9411000C9421
:1018800012000C9413000C9414000C9415000C948A
:1018900016000C9417000C9418000C9419000C946A
:1018A0001A000C941B000C941C000C941D000C944A
:1018B0001E000C941F000C9420000C9421000C942A
:1018C00022000C9423000C9424000C9425000C940A
:1018D00026000C9427000C9428000C9429000C94EA
:1018E0002A000C942B000C942C000C942D000C94CA
:1018F0002E000C942F000C9430000C9431000C94AA
:1019000032000C9433000C9434000C9435000C9489
:1019100036000C9437000C9438000C9439000C9469
:101920003A000C943B000C943C000C943D000C9449
:101930003E000C943F000C9440000C9441000C9429
:1019400042000C9443000C9444000C9445000C9409
:1019500046000C944700019009928A95E1F708959A
:1019600029928A95E9F70895E4E8FBE60E94730C52
:10197000C4E6D9E60E94750CE4E6FBE60E94730C0F
:10198000C4E6D9E60C94750CE4E8FBE60E94770CFB
:101990000C94670CC0E0D8E6A6E1B0E00ED0C0E041
:1019A000D8E6AAE1B0E014C0C0E0D8E680E0D8DF15
:1019B00000C0EFEFE0931B68089569DFF001A09588
:1019C000B095C095D095A083B183C283D383089589
:1019D0005EDFF00180830895E2E0F2E000C0EF23D3
:1019E000F095009020690F22E02906C0E0E004C0D5
:1019F000EFEF02C0E1E000C0E093206900C0E09199
:101A000020690C94450CEF23F095009021690F227A
:101A1000E02908C0E0E006C0E5E504C0EFEF02C041
:101A2000E3E400C0E093216900C0E09121690C94D7
:101A3000430C0895FFFFFFFFFFFFFFFFFFFFFFFFC6
:102000003DC1089581E084C082E082C083E080C049
:10201000F6D0F9C085E07CC086E07AC087E078C061
:1020200088E076C089E074C08AE072C08BE070C03E
:1020300071C000008DD09FC08EE06AC08FE068C084
:1020400080E166C081E164C082E162C083E160C07A
:1020500084E15EC085E15CC086E15AC087E158C07A
:10206000D4C0000089E154C08AE152C08BE150C065
:102070008CE14EC08DE14CC08EE14AC08FE148C07A
:1020800080E246C081E244C082E242C0F1C000006A
:1020900084E23EC085E23CC086E23AC087E238C0B6
:1020A00088E236C089E234C08AE232C08BE230C0B6
:1020B0008CE22EC08DE22CC08EE22AC08FE228C0B6
:1020C00080E326C081E324C082E322C083E320C0F2
:1020D00084E31EC085E31CC086E31AC087E318C0F2
:1020E00088E316C089E314C08AE312C08BE310C0F2
:1020F0008CE30EC08DE30CC08EE30AC08FE308C0F2
:1021000001002FD10201000016A95667ABA7716C20
:10211000EDD1FFCF0FB73F014001E091606AE39539
:10212000EF3008F0EE27E093606AF0E0E756FF4EEC
:1021300009943EC249C252C282C248C34DC352C36F
:1021400057C35CC361C366C36BC370C375C37CC331
:10215000E89B08C0E89820921301C0924208CF90F3
:10216000CF901895209252010091160B0093160BF8
:102170002092150B1895FF93EF93EFB7EF93DF9332
:10218000CF93BF93AF93F894E0911C0BF0911D0B8C
:102190007894A091A869B091A969E093A869F09397
:1021A000A969EA1BE093AA69FB0BF093AB696894F9
:1021B000B2E0E037FB0708F4ED9AB3E0EC30FB0740
:1021C00058F0E894B4E0E833FB0708F4ED9AB5E082
:1021D000E03AFB0708F0ED9AF091140BE0E1A091D2
:1021E000C369EE9BFE27EE98E3E0A211E5E0E093E1
:1021F0004102F093140BE091AC69F0E2099401E024
:102200000093530118950C94FE243F01E0914C6A11
:10221000F0914D6A00911006019300911106008320
:10222000E0914E6AF0914F6A019100930C06019182
:10223000009308060191009309060191009300069E
:1022400001910093010601910093A0000191009378
:102250004C6A019100934D6A019100930B06019124
:1022600000930A06E0934E6AF0934F6AF3011895C3
:102270000FB72092031021600FBF1895A895F8940E
:1022800022242DBAE8EDE0933400E5E8E093011054
:10229000EFE1F9E6EDBFFEBFE0E0F9E6C0EADBE022
:1022A00021922197E9F720920508A2E4A093120257
:1022B000A8E4A0931402A3E0A0934102A8E0A09395
:1022C0005704A4E0A0937104A0937504A093720432
:1022D0000D98059A0C98049A4F9A47984F98479AE8
:1022E00047986298699A6D9A61986598A0E8A0935A
:1022F0001204A0931304A0931004A0931104A4E06B
:10230000A0937004A0937704A0E0A093E605A7E152
:10231000A093010AA1E0A093030AABE0A093000AF6
:10232000E0E0FBE02082218222862386A0EEBEE24E
:102330002486B587A1E0A683A1E0A583A3E0A083BE
:10234000E0E1FBE02082A2E0A183A1E4A483A1E07C
:10235000A683A583A3E0A083A3E0A0932002A5E029
:10236000A0932102E1E0E093C001E3E4E093C9011E
:10237000EEEEE093CB01E1E0E093C801A0E1A09391
:102380001102E0E8FBE0A2E0A0934902A0934A0218
:10239000A4E0A08BA18BA1E8A087A187E0E8FBE0E7
:1023A000B8EDA0E0A183A0E0A283A3E3B093340042
:1023B000A28BAFEFA2A723A6A6A727A6A0A7A1A797
:1023C000A4A7A5A7A685A0FFFDCFC0910614A1E0F4
:1023D000C13009F4A3E0C23009F4A9E0B09334009D
:1023E000A083A0915101A0FDFCCFA9E1A0935001D1
:1023F000A1E0A0935301A0935201A5E8A093A000EF
:10240000A5E8A093A400A5E8A093A200E0E0F6E070
:10241000A1E1A083A0E0A183ABE0A283A0E0A3831D
:10242000A0E0A483A2E0A0930506A5E0A087A1E018
:10243000A187A4E0A0937604A1E4A093A006AFEF47
:102440002092A206A093A3060E94C526E8EDE4BF51
:10245000E8E0E09300010E943D1C0E94611F0E9481
:10246000BA260E94BA260E94B6230E94632272D026
:102470002CD4C4D6CBD50E9410240E9474240E9470
:10248000BA26E1E0E0931168E0911068E395E093EB
:1024900010681FD30C948D240895E0E003C0E0E1A0
:1024A00001C0EFEFE4990BC0E095E093A80B2092F8
:1024B000A90BEFEFE093AC0BE093AD0B0AC0E095F6
:1024C000E093AC0B2092AD0BEFEFE093A80BE09301
:1024D000A90BEFEFE093AA0B2092AB0BE093AE0BAE
:1024E0002092AF0BE1E0E093840B089500240A945E
:1024F000E0E8FBE000A601A604A605A6EACF0024BA
:10250000E0E8FBE000A601A604A605A6E2CFE09164
:102510002F70E1FF03C000C0E0E001C0E1E8E093FC
:10252000880BE093890B0895E1E0F2E02092A80B7C
:102530002092A90B2092AC0BE093AD0B2092AA0B3A
:10254000E093AB0B2092AE0BF093AF0BE1E0E09386
:10255000840B08954F9A479A0E9487122CBAE0E0A4
:1025600000C0FE2FFF7721F0EA9509F4E29A09F006
:10257000E298E093556A0895E091556AEF77E1306B
:1025800009F4EE27EE230895E0910870E093376890
:102590000895E091556AE078E4CFE69903C0E69AA1
:1025A000ECE002C0E698EDE0E093606A08950895DB
:1025B0002092606A9BDFE0910770F0E3EF9FE0EC10
:1025C000F3E0E00DF11D66C1E1E0E093606AE1999E
:1025D0006198E19B6598E0ECF3E05CC1E2E0E09398
:1025E000606A61986598E39927C0E091616AF3E7B2
:1025F0000090626A1090636AF0810F1A1208F091DD
:10260000516A0F0E121C0092626A1092636A0F2EBA
:10261000F3E70192E093616A20920506E19904C014
:10262000E19AE0EDFDEC03C0E198E0E0FEEC009003
:10263000276A02FE789683D2E0ECF3E02BC1E091AA
:102640005A6AF0915B6AF7FF05C0F095E195FF4F7C
:10265000F7FDFFE7EE0FFF1F0F01E0912E70E7700F
:10266000EC5CF0E0FC4E099407C009C00CC011C03E
:1026700014C01AC020C029C0F001889431C0F001F4
:10268000EE0FF21D2DC0F00116940794E00DF11D20
:1026900027C0F001E00DF11D23C0F001E00DF11D98
:1026A000F8F0E00DF11D1CC0F001EE0FFF1FC0F0AF
:1026B000EE0FFF1F15C0F001EE0FFF1F88F0EE0FA9
:1026C000FF1F70F0E00DF11D0BC0F001EE0FFF1FBA
:1026D00038F00F01EE0FFF1F18F0E00DF11D00C0E4
:1026E00008F4FFEFF093526AE0910470E095E695EC
:1026F0000E2E0694E00D0694E00DE05FEF9FF001D2
:10270000EE0FFF1F08F4FFEFFF2321F4E091526A60
:10271000E211F1E0E091516AF093516AFE0FF795F2
:10272000E091536AEE2321F0FE1779F050F114C0C6
:102730002092516A2092526AEFEFE093606A2092F1
:10274000506AABDEE0ECF3E0A5C0E091506A009087
:10275000327002FCE69524C0E0913868E211EA95F7
:10276000E0933868E091506AE211EA95E093506A8C
:102770000090327000FCE69501FCE69502FCE695BF
:102780000FC0E0913868E395E211E0933868E0917A
:10279000506AE93008F4E395E093506A01C0E0E044
:1027A000619A659AEA52F0E0FC4E09943FC038C045
:1027B00031C02AC023C01CC015C00EC007C000C055
:1027C000E3E0E093606A48D0E0EA4FC0E4E0E093E1
:1027D000606A42D0EAEA49C0E5E0E093606A3CD032
:1027E000E4EB43C0E6E0E093606A36D0EEEB3DC038
:1027F000E7E0E093606A30D0E8EC37C0E8E0E093CF
:10280000606A2AD0E2ED31C0E9E0E093606A24D04A
:10281000ECED2BC0EAE0E093606A1ED0E6EE25C046
:10282000EBE0E093606A18D0E0EF1FC0EFEFE093B9
:10283000606A12D0EAEF19C0EFEFE093606AEFEF41
:1028400033DEEFEFFFEF23C0EFEFE093606AEFEFCF
:1028500036DEEFEFFFEF1BC0E0913868E03E20F47A
:10286000F091276AF2FDE0EE1DCEF091536A0090E0
:10287000307000FEF69501FEF69502FEF695EF0F1C
:1028800008F4EFEFF091276AF2FDE695FCE0EF9F88
:10289000F00100C0E0930C0BF0930D0BE1E0E0932E
:1028A000060B0401F3010FBF1895E6E000902F70AE
:1028B00000FEE6950090276A02FEE695E67000901D
:1028C000DD6A0E2202103BC0E09B90913770E099C8
:1028D00090913870E091536AEE2389F1E091526A49
:1028E000E99F0894001C111C80E0881F90912F70B4
:1028F00092FD000C92FD111C92FD881FEDE2F8E69E
:10290000A081B181C281D381E09B05C0A019B1092A
:10291000C80BD20904C0A00DB11DC81FD21DA083D1
:10292000B183C283D383A481B581C681D781A00D31
:10293000B11DC81FD21DA483B583C683D783C091A0
:10294000566AE091546AF091556ACF01982797FD35
:10295000F078CF018F779F77E299CC27891721F400
:10296000903089F0891769F030F0C15048F5C09176
:102970000370EA9509C0C15018F5C0910270E39543
:1029800003C0CC2701C0EF2FE7FFE09AE7FDE098F6
:10299000E093546AEF77E093536A09F0E2E0E0993C
:1029A000E160F0911468F0FDE460F7E00E945A23C2
:1029B000E099E498E09BE49AE099E598E09BE59A39
:1029C000C093566A0895EDE2F8E60580A681B781C6
:1029D000000CAA1FBB1F000CAA1FBB1F000CAA1FC4
:1029E000BB1F02101196A087B18724822582268200
:1029F0002782E0913768E211EA95E0933768E211A7
:102A0000EE13C7DDE0910470E195E03408F4E0E4F2
:102A1000E03C08F0E0ECE093596A0895E770F0E0DC
:102A2000E85DF545E081089501020408102040802A
:102A3000019009928A95E1F7089529928A95E9F71C
:102A40000895E0E0FFE80990E025E0818A95D9F754
:102A5000EE230895799FE001689FD001699FB00D32
:102A6000C11DD21D789FB00DC11DD21D089580E4F7
:102A700004C080E202C080E100C0C083D1838283B1
:102A8000238224822582D9CF0DD007C00BD003C06A
:102A900009D0AA0FBB1FAA0FBB1FAA0FBB1FAA0FEB
:102AA000BB1F0895B381A081AB0FB181B21DDC9132
:102AB000CC93A481B581AD1BB209AC0FB21DA48328
:102AC000B583C281D381D395DC1708F0DD27D3838A
:102AD0000895C0E0D8E6A6E1B0E00ED0C0E0D8E6A8
:102AE000AAE1B0E014C0C0E0D8E680E0A6DF00C0F4
:102AF000EFEFE0931B68089584D0F001A095B095A6
:102B0000C095D095A083B183C283D383089579D033
:102B1000F00180830895E0914C6AF0914D6AEF2BAB
:102B20000895CF93C0914C6AC21106C0C0914D6AFE
:102B3000C21102C0CF9103C0CF9188940895CF9362
:102B4000C2E0C0930A06C1E0C0930D06C191C093D4
:102B50000006C191C0930206C191C0930306C191C2
:102B6000C0930406C191C0930C06C191C09308069E
:102B7000C191C0930906C191C0930006C191C09351
:102B80000106C191C093A000C191C0934C6AC1914C
:102B9000C0934D6AC191C0930B06C191C0930A06C0
:102BA000E0934E6AF0934F6ACF910894089576951A
:102BB00067957695679576956795769567958091F3
:102BC000061190910711861B970B6091041170916B
:102BD000051140DFC695B795C695B795C695B795CB
:102BE000C695B7957C2F6B2F08950C9410000C940C
:102BF00011000C9412000C9413000C9414000C940B
:102C000015000C9416000C9417000C9418000C94EA
:102C100019000C941A000C941B000C941C000C94CA
:102C20001D000C941E000C941F000C9420000C94AA
:102C300021000C9422000C9423000C9424000C948A
:102C400025000C9426000C9427000C9428000C946A
:102C500029000C942A000C942B000C942C000C944A
:102C60002D000C942E000C942F000C9430000C942A
:102C700031000C9432000C9433000C9434000C940A
:102C800035000C9436000C9437000C9438000C94EA
:102C900039000C943A000C943B000C943C000C94CA
:102CA0003D000C943E000C943F000C9440000C94AA
:102CB00041000C9442000C9443000C9444000C948A
:102CC00045000C9446000C944700E1E7FAE6C0E0AA
:102CD000D4E7CFDEE5E6FAE6C0E2D4E7CADEEBE60B
:102CE000FAE6C0E4D4E7C5DEE7E7FAE6C0E6D4E7F3
:102CF000C0CE80911368F3E0E0E080FF04C0E59B64
:102D0000E160E599E2600E9465230895F894E091FE
:102D1000FF692092FF697894E03009F40895EC325D
:102D200008F0BACBC091FD69D9E6E556F0E0F94E5E
:102D300009950C94C816B0CBAFCBD4C0DCC0ACCBDB
:102D4000ABCBAACBA9CBA8CB04C111C123C12EC147
:102D50003DC1A2CBA1CBA0CB9FCB9ECBB5C09CCB82
:102D60009BCB9ACB99CB98CB97CB96CB95CB94CB4F
:102D700093CB92CB91CB90CB8FCB8ECB8DCB8CCB7F
:102D80008BCB8ACB89CB88CB87CB70C164C10895AC
:102D9000A895F8946091976A7091986A789407DF83
:102DA000EB01CF5DD040E1E7FAE670DEB0938B6ACD
:102DB0006894E091C369E0FDE894D091936AC09172
:102DC000946AC7FF05C0C095D195CF4FC7FDCFE727
:102DD000DD0FCC1FE5E6FAE659DE16F0B093996AEE
:102DE00016F4B0939A6AD091956AC091966AC7FF1B
:102DF00005C0C095D195CF4FC7FDCFE7DD0FCC1FE4
:102E0000EBE6FAE643DE16F4B093996A16F0B09357
:102E10009A6AA091996AAB0FA795A093C669A2532D
:102E200008F4A0E0A0938C6AA091996AB0919A6A84
:102E3000AB1BA058A0939B6AC0915C6AD0915D6A5D
:102E4000CC0FDD1F08F4DFEFCD2FE7E7FAE61EDE3B
:102E5000B0939C6AE091216AF091236AEF1708F41D
:102E6000EF2FE093246AF091246AE5EBEF9FE12DC8
:102E7000E093256A80911A70A0913470B0919C6A99
:102E8000BA1708F08160A0913570B0918B6ABA17BB
:102E900008F08460A0913670B0918C6ABA1708F07F
:102EA00088600E949E2309F082600E94A223809382
:102EB0001A700895529B05C0E0E3FEEC32CE5299A1
:102EC000FBCFE8E4FEEC2DCE20921268E3E1F8E6B9
:102ED000219221922192219221922192219221925A
:102EE000F8DD94C051DB898190911268809312685B
:102EF0008913EFDD8DC048DB8981F09112688093E2
:102F00001268F8278A819091136880931368892743
:102F1000F82BE091006AE530C8F08B81909114683D
:102F2000809314688927F82BE63080F08C8190918B
:102F30001568809315688927F82BE73038F08D8164
:102F400090911668809316688927F82BF211C1DDDD
:102F50005DC0FF27888184FB880F80F990911368FA
:102F6000EFE14DD080931368F211B3DD55C0FF2718
:102F70008881909113683AD0809313688881880F74
:102F8000829590911468E1E03AD080931468F21130
:102F9000A0DD42C0FF278881880F90911468EEE180
:102FA0002ED080931468F21194DD36C0FF278981FA
:102FB000909114681BD08093146889819091156852
:102FC00019D080931568F21184DD26C0FF2789810E
:102FD000909115680BD0809315688981909116683F
:102FE00009D080931668F21174DD16C08295880F9F
:102FF000E0EE05C0869586958695EFE100C08E23AC
:10300000E095E9238E2B9827F92B089501D004C071
:10301000E09112680C94B11280911368E0E0F0E442
:1030200083FDE0E40E94652384FF08C020922D68A0
:1030300020922E6820922F682092306885FF08C069
:10304000E0911C75E0931E68E0911E75E0931D6889
:1030500080911468089526D041F48EDA31F482E02C
:10306000CEEFD5E10E94F5230CCE0895E881E9303A
:1030700008F00895F0E0E25CF74E099408C008C03B
:1030800008C007C008950895089508950895089503
:10309000F8CDE054E09311681CDDE0911168E13057
:1030A000B9F70895F0910C68E0910D68EF2B089541
:1030B000A881A3700E94FF22B981CF93DF930E9461
:1030C000B522DF91CF9158F5F881EA81FC7039F093
:1030D000F43031F0FC3039F0E4FF18C00AC01FC0F2
:1030E000AE17E1F01CC0AE2F0E94B822C0F42160E0
:1030F00015C0E3FB0E940E15E095AE23E0950EF49B
:10310000AE2B0E94B82258F4216008C0E3FB86DC95
:10311000AE230EF0EE27EA2709F001C03ECA08955B
:10312000A881A3700E94FF22B9810E94B522EA2FD4
:103130009BC2AA81B9810E940023E881E370E093D9
:103140008E6ABB810E94B522A0938F6AB3950E94BC
:10315000B522A093906AB3950E94B522A093916A7C
:10316000B3950E94B522A093926ACEE8DAE67EC2B9
:1031700079F40E94BB23E53058F0A881A3700E9427
:10318000FF22B981AA810E94B8222160EA2F6CC275
:1031900082C267C2E9F70E94BB23E131C8F3B9815B
:1031A000AA810E940023EEE8FAE6A881A370A0831A
:1031B000AC81A183BD81B283BE81B383BF81B4835F
:1031C000BB810E94B822A0938F6AB395A091906AA8
:1031D0000E94B822A093906AB395A091916A0E9430
:1031E000B822A093916AB395A091926A0E94B822E6
:1031F000A093926A2160CEE8DAE638C2E0EFE0936D
:10320000046A0E94F515E093056A0E940516D093A2
:10321000066AC093076AB093086AA093096AC0E17E
:10322000DAE6E0E8E88385E00E942115E883CAE059
:10323000DAE6E0EDE883E0E0E983E0E0EA832B8290
:103240002C8285E00E942115E88325D000C0F7E09C
:10325000E0910A0BEF23E0931A6A20921B6A08950B
:10326000E0911A6AEA9552F4E0911B6AEE0FE7606A
:10327000EF77E0931B6AF0910A0BEF23E0931A6A51
:103280000895F0910C68E0910D68EF2B0895E0919E
:10329000196AEE2308952092196A0895F091186A28
:1032A000E093186AFE1B08F4F195F53008F0F3CFAF
:1032B0000895E4E0FAE6CF93DF93A991AF70B1915E
:1032C000BF70AB1731F4A991B191AB1711F4EA308B
:1032D000D1F7DF91CF9108958F93EEEEF9E6A091AB
:1032E000006A8A2F8C0FB081A193BA17A081B9917F
:1032F000BA07B1938C13FACFC091FD698F910895ED
:10330000E2E013C0E3E011C0E4E00FC0E5E00DC06F
:10331000E6E00BC0EAE009C0E3E0F4E007C0E4E067
:10332000F7E004C0E6E0F9E001C0FE2FAE1718F0A8
:10333000FA1708F00895E0912B68F0912C68319607
:10334000E0932B68F0932C68E0912368E395E09379
:103350002368EF91EF9100C0E0E099C054D1E3E21F
:1033600096C0CEDFEDE193C0CBDF7BD1E1E08FC033
:10337000C9DF91D1E2E08BC0D2DF8DD1E3E087C01D
:10338000C1DF6FD1E4E083C0BDDF3DD1EFE17FC09D
:10339000B7DF64D1E0E27BC0B3DF63D1E1E277C0A5
:1033A000B7DFE5E074C0B0DFE6E071C0ABDF59D154
:1033B000E7E06DC0A9DF55D1E8E069C0A1DF6BD1BE
:1033C000E9E065C09DDF67D1EAE061C099DF63D1C4
:1033D000EBE05DC097DF5FD1ECE059C093DF5BD1DC
:1033E000EDE055C08FDF57D1EEE051C08BDF53D1F8
:1033F000EFE04DC087DF4FD1E0E149C083DF4BD123
:10340000E1E145C07FDF47D1E2E141C079DFE091F2
:10341000026AE395E211E093026AE3E13AC070DFE9
:1034200020D1E4E134C078DF1CD1E5E130C0A43024
:1034300011F058F41CC0E881E3FD03C071DEE6E141
:1034400026C04ADF95DEE7E122C0E881FE2FE37067
:10345000F3FD06C0F2FF09C059DF6BDEE8E117C0DB
:1034600061DF3ADF97DEE9E112C0EBE110C0E2E292
:103470000EC0EEE10CC050DFE091036AE395E2116B
:10348000E093036AE23009F413DEEAE104C020921B
:10349000026A2092036AE093FF69E091B269E093C7
:1034A000FE692062089532DFECDE39F4F0DE29F4A3
:1034B000D7DE19F499D1E4E2EACF4ECF27DFE5E277
:1034C000E6CF24DFE6E2E3CF21DFEA81E7DED9DEE3
:1034D00031F4DDDE21F4BBDE87D1E7E2D8CF3CCF8B
:1034E0002197E7DE09F03ACFE1E0E093196A84D151
:1034F000E8E2CDCF0FDF2197DCDE09F02FCFFE8190
:10350000EF81F06CF093ED69E093EC69E1E0E0931A
:10351000196A6ED1E9E2BBCFEBE2B9CFE091006A64
:10352000E350EB30F8F4E093006AF0E0EB54F54E32
:103530000995D1F4E091006AA0E8B5EBAE0FB21D99
:10354000BC91CB0FAE2FAB1BA093006AC093FD695B
:10355000D9E6E881E93040F4F0E0EA53F54E099508
:10356000EAE295CFE8DEF8CEF9CE1FC01CC01DC040
:103570002DC019C025C02AC026C022C016C023C035
:1035800000000002000402060400060008C007C094
:1035900006C005C006C005C004C003C002C075D087
:1035A00008955FD008951894089598940895E8E0D8
:1035B000F8E621C0ECE0F8E61EC0EEE0F8E61BC03D
:1035C000E0E0F8E610C0E4E0F8E605C0F3DFD1F093
:1035D000EEDFC1F0F2CFA581BD81AB1799F4A481D4
:1035E000BC81AB1779F4A381BB81AB1759F4A281DD
:1035F000BA81AB1739F4A181B981AB1719F4A08155
:10360000B881AB170895E0919D6AE395E33008F027
:10361000E0E0E0939D6AF0E0E15FF44E099402C0BF
:103620000CC015C0E0911970E5FF05C0E0910D7068
:10363000EF73E068AAC0E0E0A8C0E0911970E5FF70
:1036400003C0E0910E70A6C0E09100709EC0E091B2
:103650001870E3FFD8CFE0910000A1C091D0A4D0B2
:10366000D2CF8ED0A5D0CFCFA5D0CDCFE991DE01DE
:103670007AD0E85FE883ED91E983ED91EA83ED91FB
:10368000EB83ED91EC839BD0BECFE0E0F0E0A0E0D7
:10369000B0E0B6D0BDC074D0E0919E6AE395E93049
:1036A00008F0E0E0E0939E6AF0E0E65AF44E5BD06A
:1036B0000995A9CF85C007C008C009C00AC00BC0C2
:1036C0000CC00DC00EC00FD012C03DD040C043D0C2
:1036D00046C011D014C017D01AC01DD020C023D0AE
:1036E00026C029D02CC0E091636AF0E078C0E09158
:1036F0002668F7E074C0E0919C6AF8E070C0E09141
:103700001068F9E06CC0E091E26AFAE068C0E0910C
:10371000DE6AFBE064C0E0913568FCE060C0E091E7
:103720003668FDE05CC0E0919B6AFEE058C0E09125
:103730009B6AFFE054C0E091256AF0E150C0E0913F
:103740001768F1E14CC0E0912F68F8E148C0E091C2
:103750003068F9E144C0E0918B6AFAE140C0E09141
:103760008C6AFEE23CC0C0EDD9E60895A8ECB9E64B
:103770000895AAECB9E60895A091C769B9E608953D
:10378000F8DFA093C769089543C0EDDFF1E0F88347
:10379000E98345C0E8DFF2E0F883E98340C0E3DF76
:1037A000F3E0F883E9833BC0CFE03DC0C0EF3BC00E
:1037B000CCE339C0D8DFE4DF2882E9833AC042C0D5
:1037C000C8EDD9E6E4E0E883AFE1B8E6ED91EC833B
:1037D000ED91EB83ED91EA83ED91E98333C0E983C9
:1037E000FA83F7E0F8832AC0EF9AC4E0DAE634C03F
:1037F000EF9ACAE0DAE630C0EF9AC0E1DAE62CC010
:10380000B2DFE883F983AA83BB83E0E1EC831FC0C6
:10381000F091DD69FF0F28F1FF0F18F12BC0A6DF33
:10382000E3E021D046CAA8DFE1E01DD0CD93A9CFC7
:10383000A3DFE3E018D03DDAA4CF9EDFE7E013D0AA
:1038400036DA9FCF96DFFFE315D02DDA9ACF91DFDE
:10385000FFE310D02ADA95CF89DFFFEF0BD021DA12
:1038600090CFF0E007C0F091DD6902C0FF1FC8F300
:10387000E695E0F3F093DD6908950895C4EBD9E689
:10388000A091B3692092FF69E881E75BF0E0F34E15
:103890000994FFC014C113C112C111C110C10FC1DD
:1038A0000EC10DC10CC10BC10AC109C108C107C1BC
:1038B00006C105C104C103C102C101C100C1FFC0ED
:1038C000FEC0FDC0FCC0FBC0FAC0F9C0F8C0F7C024
:1038D000F6C0F5C0F4C0F3C0F2C0F1C0F0C0EFC054
:1038E000EEC0EDC0ECC0EBC0EAC0E9C0E8C0E7C084
:1038F000E6C0E5C0E4C0E3C0E2C0E1C0E0C0DFC0B4
:10390000DEC0DDC0DCC0DBC0DAC0D9C0D8C0D7C0E3
:10391000D6C0D5C0D4C0D3C0D2C0D1C0D0C0CFC013
:10392000CEC0CDC0CCC0CBC0CAC0C9C0C8C0C7C043
:10393000C6C0C5C0C4C0C3C0C2C0C1C0C0C0BFC073
:10394000BEC0BDC0BCC0BBC0BAC0B9C0B8C0B7C0A3
:10395000B6C0B5C0B4C0B3C0B2C0B1C0B0C0AFC0D3
:10396000AEC0ADC0ACC0ABC0AAC0A9C0A8C0A7C003
:10397000A6C0A0C09FC09EC09DC09CC09BC09AC056
:1039800099C098C097C096C095C094C093C092C08B
:1039900091C0A2C0A1C0A0C09FC09EC09DC09CC03D
:1039A0009BC09AC099C098C097C096C095C094C05B
:1039B00093C092C091C090C08FC08EC08DC08CC08B
:1039C0008BC08AC089C088C087C086C085C084C0BB
:1039D00083C082C081C080C07FC07EC07DC07CC0EB
:1039E0007BC07AC079C078C077C076C075C074C01B
:1039F00073C072C071C070C06FC06EC06DC06CC04B
:103A00006BC06AC069C068C067C066C065C064C07A
:103A100063C063C062C061C060C05FC05EC05DC0A3
:103A20005CC05BC05AC059C058C057C056C055C0D2
:103A300054C053C052C051C050C04FC04EC04DC002
:103A40004CC04BC04AC049C048C047C046C045C032
:103A500044C043C042C041C040C03FC03EC03DC062
:103A60003CC01AC019C018C017C016C015C014C079
:103A700013C012C011C010C00FC00EC00DC00CC0CA
:103A80000BC00AC009C008C007C006C00DC009C0ED
:103A90000EC0A150219654C0A093006AC093FD6946
:103AA000E6CCA1502196E7C0A1502196EDC1A150CE
:103AB0002196D9C0E091026AE33008F0DCCCEA9AA2
:103AC000E881F091EC69FF77B091ED69B7FFEF13F2
:103AD00045CCA150219634C0CACCEA9AE981E330A2
:103AE000E88111F4E03C61F0F091ED69EF1336CC20
:103AF000E981F091EC69EF1331CCA250229620C0FD
:103B0000A2502296EB9A00C0EA98A093006AC09354
:103B1000FD69E881E295EF70E057F0E0F24E09941C
:103B2000A4CCA3CCA2CCA1CCA0CC9FCC9ECC9DCC31
:103B30009CCC9BCC9ACC99CC98CC97CC78CC73CCA1
:103B4000A093006AC093FD69E881E295EF70E555A6
:103B5000F0E0F24E09940FC024C039C038C004CC44
:103B600003CC02CC01CC2ACC29CC30CC2BCC55C0F8
:103B700054C05DCC58CCE991EF70EF53F0E0F24EB9
:103B8000099444CC4CCC75CC74CC6FCC6ECC6DCC41
:103B90006CCC6BCC6ACC00CCFFCB67CC66CC65CC54
:103BA000F7CBE991EF70E952F0E0F24E09945DCC69
:103BB0005CCCEACBE9CB59CC58CC57CC56CC55CCC5
:103BC00054CC53CC52CC51CC50CC4FCC4ECCE991B0
:103BD000EF71E351F0E0F24E099447CC46CC45CC6E
:103BE00044CC43CC42CC41CC40CC3FCC3ECC3DCC71
:103BF0003CCC3BCC3ACC39CC38CC37CC36CC35CCA1
:103C000034CC33CC32CC31CC30CC2FCC2ECC2DCCD0
:103C10002CCCB2CBB5CB29CCABCBE991EF71ED5E1F
:103C2000F0E0F14E0994C6CBBBCBBDCB1ECC1DCC76
:103C30001CCC1BCC1ACC19CC18CC17CC16CC15CC60
:103C400014CC13CC12CC11CC10CC0FCC0ECC0DCC90
:103C50000CCC0BCC0ACCC6CBC9CBCCCBCFCBD2CBEC
:103C6000A5CBB8CBBBCBA093006AC093FD69E8811C
:103C7000E211FBCB76CBA093006AC093FD69E9917A
:103C8000EC5BF0E0F14E0994F0CBEFCBEECBEDCB5B
:103C9000ECCBEBCBEACBE9CBE8CBE7CBE6CBE5CB88
:103CA000E4CBE3CBE2CBE1CBE0CBDFCBDECBDDCBB8
:103CB000DCCBDBCBDACBD9CBD8CBD7CBD6CBD5CBE8
:103CC000D4CBD3CBD2CBD1CBD0CBCFCBCECBCDCB18
:103CD000CCCBCBCBCACBC9CBC8CBC7CBC6CBC5CB48
:103CE000C4CBC3CBC2CBC1CBC0CBBFCBBECBBDCB78
:103CF000BCCBBBCBBACBB9CBB8CBB7CBB6CBB5CBA8
:103D0000B4CBB3CBB2CBB1CBB0CBAFCBAECBADCBD7
:103D1000ACCBABCBAACBA9CBA8CBA7CBA6CBA5CB07
:103D2000A4CBA3CBA2CBA1CBA0CB9FCB9ECB9DCB37
:103D30009CCB9BCB9ACB99CB98CB97CB96CB95CB67
:103D400094CB93CB92CB91CB90CB8FCB8ECB8DCB97
:103D50008CCB8BCB8ACB89CB88CB87CB86CB85CBC7
:103D600084CB83CB82CB81CB80CB7FCB7ECB7DCBF7
:103D70007CCB7BCB7ACB79CB78CB77CB76CB75CB27
:103D800074CB73CB72CB71CB70CB6FCB6ECB6DCB57
:103D90006CCB6BCB6ACB69CB68CB67CB66CB65CB87
:103DA00064CB63CB62CB61CB60CB5FCB5ECB5DCBB7
:103DB0005CCB5BCB5ACB59CB58CB57CB56CB55CBE7
:103DC00054CB53CB52CB51CB50CB4FCB4ECB4DCB17
:103DD0004CCB4BCB4ACB49CB48CB47CB46CB45CB47
:103DE00044CB43CB42CB41CB40CB3FCB3ECB3DCB77
:103DF0003CCB3BCB3ACB39CB38CB37CB36CB35CBA7
:103E000034CB33CB32CB31CB30CB2FCB2ECB2DCBD6
:103E10002CCB2BCB2ACB29CB28CB27CB26CB25CB06
:103E200024CB23CB22CB21CB5BCB5ACB59CB58CB4A
:103E300057CB56CB55CB54CB53CB52CB51CB50CB8E
:103E40004FCB4ECB4DCB4CCB55CB54CB53CB52CB96
:103E500051CB50CB4FCB4ECB4DCB4CCB4BCB4ACB9E
:103E600049CB48CB47CB46CB00CBFFCAFECAFDCAE5
:103E7000FCCAFBCAFACAF9CAF8CAF7CAF6CAF5CA2E
:103E800012CB1CCB1ECB20CBA093006AC093FD6944
:103E9000E991E03F08F4E9CAEF70EF5AF0E0F04E24
:103EA00009943ACBE2CAE1CAE0CADFCADECADDCA77
:103EB00035CBDBCADACAD9CAD8CAD7CAD6CAD5CA94
:103EC000D4CAE0E0E093AC692092DD690895FFFF79
:1040000024C04CC04FC054C059C052C171C1A7C1D7
:10401000B7C1DBC1E4C1F4C1FCC104C20CC217C208
:1040200059C05FC093C0E5C0FAC017C119C11AC119
:104030001BC11CC11DC11EC11FC120C121C122C184
:1040400023C124C125C126C127C1E2E0E093110BA1
:10405000332424C0E0912768F09128683196E093DA
:104060002768F09328680AC0E0912968F0912A68CF
:104070003196E0932968F0932A6800C0E0912368A4
:10408000E395E093236800C0332403C0E3E03E2EB1
:1040900000C0E398E998ED98E1E004C2EC990C9433
:1040A0008A2200C0ED99F0CF7EF73394E3E0FAC1A5
:1040B000ED99EACF4EF73394E4E0F4C1ED99E4CF03
:1040C0002EF4339409F43A94E4E0ECC1E32DE431A6
:1040D00008F4DACF3092B269E39A0E945A17E1E10C
:1040E000E1C1ED99D1CF86F2E39A0E945F17EE27E6
:1040F000529BE395F091C369E093C369FE13EE9A76
:10410000E998EA98EF98EB982092B3692092B16908
:10411000E4EBF9E6CFE02192CA95E9F7E091246853
:10412000E395E43650F0E0912368F0912568E09340
:104130002568EF1BE0932668E0E0E0932468E091B7
:10414000C569E395E093C569E5E1ACC1ED9982CF1E
:10415000E091B369EF3008F087CFF4EBEF0FF9E6A9
:10416000F21D3192E45BE093B369E091B169E3251C
:10417000E093B1695EF509F077CFE3E0E093110BCE
:10418000E0911F68F09120683196E0931F68F093EA
:104190002068E0912168F0912268E21DF21DE09311
:1041A0002168F0932268E091AA69F091AB69F695D5
:1041B000E795F695E795F695E795E21DE001FBEAB0
:1041C000EF9F1092E2690E01E4E16CC1E091AA69EF
:1041D000F091AB69F695E795F695E795F695E79535
:1041E000E21DE001FBEAEF9F1092E0690E01E3E1BE
:1041F00059C1ED9B0EF42ECFE091AA69F091AB6905
:10420000F695E795F695E795F695E795E21DE001B9
:10421000FBEAEF9F1092E1690E01E5E143C1E2E0A4
:10422000E093110B2092A8692092A969ED9B0EF0F2
:1042300011CFE091AA69F091AB69F695E795F695F3
:10424000E795F695E795E21DE001FBEAEF9F1092F6
:10425000E3690E0113DBE5E025C1E398E6E11EC04A
:10426000E7E11FC0E8E11AC0E9E11BC0EAE116C0BE
:10427000EBE117C0ECE112C0EDE113C0EEE10EC0BE
:10428000EFE10FC0E0E20AC0E1E20BC0E2E206C0EB
:10429000E3E207C0E4E202C0E2E103C0330C30F81D
:1042A00001C11EF030FCD6CEFDC030FED3CEFAC028
:1042B000E39AE0E6FEEC0E949F150EF0E5CEC09179
:1042C000DD69D0911970EB99D860D3FFC070D0919F
:1042D0001870EB99D260EA99D0FFCC7FD1FFC37000
:1042E000EF99CFEFC093DD69529BB099CFCE00C05C
:1042F000E99AD0912A70C0910A0BCD23D0912970F0
:10430000CD0FCF70C093DE69C15BDCE0F001CD9FC3
:10431000F89400921C0B10921D0B78940F01E09101
:10432000AA69F091AB69F695E795F695E795F6954C
:10433000E795E21DE001FBEAEF9F1092E4690E01B0
:10434000E0E0E093110BE091DD69E0FF06C0C09072
:10435000C869E89AEDE0E0931301E7E0A3C0F091AB
:10436000DD69E091C969F1FDE0934208E8E6F1E01A
:10437000F894E0931C0BF0931D0B7894E8E092C046
:10438000D0912C70C0910A0BCD23D0912B70CD0F02
:10439000CF70C093DF69CE5AD091DE69CD1BDCE0CF
:1043A000F001CD9FF89400921C0B10921D0B789495
:1043B0000F01E091DD69E2FF06C0C090CA69E89A8A
:1043C000EDE0E0931301E9E06DC0E0EFF0E0F89478
:1043D000E0931C0BF0931D0B7894EAE063C0F0911E
:1043E000DD69E091CB69F3FDE0934208E0EEF1E096
:1043F000F894E0931C0BF0931D0B7894EBE052C003
:10440000F091DD69E091CC69F4FDE0934208ECE0C5
:1044100049C0F091DD69E091CD69F5FDE093420876
:10442000EDE040C0F091DD69E091CE69F6FDE093EA
:104430004208EEE037C0F091DD69E091CF69F7FD09
:10444000E0934208E2E0E093110BEFE02BC0E001C3
:10445000E091A869F091A969F695E795F695E79539
:10446000F695E795E21DFBEAEF9FE12DEC51F09107
:10447000DF69EF0FE093E5690E01F091DD69FC7FE4
:1044800071F0E0EEF9E6C191C583C191C583C19198
:10449000C583C191C583C191C583C191C583209254
:1044A000DD69F2CDE093AC69AF91BF91CF91DF911F
:1044B000E1E0E093150BE1E0E0935201EF91EFBFF3
:1044C000EF91FF91089534D02AD007D00E94F915BA
:1044D000E0931E6AF0931F6A089582E0F0910C68E1
:1044E000E0910D68EF01CD2B71F481E0E091007057
:1044F000EF77F0E0C0911970C5FF05C0F0910D7025
:10450000E0910E70F06CE093EC69F093ED69CEEF02
:10451000D5E16BC1F8940E94F0230C9441166ED043
:10452000B0E029D0B395A0911C6ABA17D1F70895CD
:10453000E091FF15E030A9F0EF3F09F051D15ED0D6
:10454000B0E0A8950FD020F4CE2FD4E18A2F4BD124
:10455000B395A0911C6ABA17A9F7CFEFD5E180E017
:1045600044D108952FD0339609942CD031960994D4
:1045700029D03296099426D030960994A0E020C024
:10458000EA81A9811BC0EA81F4E1A081F0E7A08360
:1045900015C0EA81F0E7A08111C0EA81F0E700D1FF
:1045A0000DC0E981FA81A08109C0E981FA81A08367
:1045B00005C00F92C895A02D0F9000C008940895D3
:1045C00088940895CB2FD0911C6ACD1778F4D0E051
:1045D000CC0FDD1FCC0FDD1FF0911D6ADF0FE881CE
:1045E000E43149F0F0E0EA5BF84D0895C0E0D2ED27
:1045F000E6E4F7E20895E981FA810895A0E0B0E0E9
:10460000B03059F4A03019F0A13021F006C0A6E76F
:10461000B0ED05C0A5E6B2ED02C0A0E0B0EDA093FC
:104620001C6AB0931D6A089503C007C009C010C07A
:10463000A0910014A0930070C1CFA0910070BECFD4
:10464000AA2329F022F0E0E0F0E7AAD0B7CF96CF76
:10465000E0E0A3E0B3CF92CF02C003C08FCFADE0C4
:10466000ADCFA83011F4EC9AA9CF88CF03C007C012
:1046700009C00FC0A0912F14A0932F709FCFA091BD
:104680002F709CCFEA2F0E948912EFE2F0E788D0CA
:1046900095CFEFE2A0E092CF71CF06C06FCF6ECF83
:1046A0006DCF05C06BCF6ACFE1E0F1E982CFE0E0EA
:1046B000F1E97FCFF0951FB6F8940090276A0F229A
:1046C0000E2A0092276A1FBE089580913B70E0FF7A
:1046D00080E0F0FD8093396880913C70E1FF80E0DC
:1046E000F1FD80933B6880913D70E2FF80E0F2FD38
:1046F00080933D6880913E70E3FF80E0F3FD8093FE
:104700003F6880913F70E4FF80E0F4FD8093416852
:104710000C94D226E9E3F8E6A4E9B3EDDAE081915E
:104720009081891721F010F09F5F01C09150919303
:10473000CD91C2119883AA3991F70895E091266A24
:10474000EE230895E0913A70EE3108F0EEE1E09347
:104750008506FFB7F894E091266AE15010F0E093E7
:10476000266AFFBFE1E0E093860608952092286A5A
:104770002092296A089504D0FE2FE0E2EF1B0895ED
:10478000E091296AF091286AEF1B08F4E1950895F9
:10479000E091296AF091286A8894EF1308940895AB
:1047A000C091296AC65DD0E0D549B993E993F993E0
:1047B000A993CA52C03208F0CC27C093296A089541
:1047C000C091286AC65DD0E0D549B991E991F991C7
:1047D000A991CA52C03208F0CC27C093286A089524
:1047E00090E3889408C092E102C093E100C0A881E0
:1047F000A817A9F00894A0910210A1FDFCCFA0FD7C
:10480000FACFADE9A4BF9093001008F48993A4BF38
:10481000A1E0A0930010A0910210A1FDFCCF08958B
:104820000895D3EA15C216D2C9D114D2E09102106C
:10483000E1FDFACFADDFC0F7C3DFC081CA17B1F326
:10484000A083F4E1CDE9D3E1C4BFD0930010A083ED
:10485000D1E0C4BFD0930010D1E0D0930410D09326
:104860000310E2CF82E390E00E941226FBCFF2D148
:10487000A5D1F0D10E948616FBCF000047D2F0915F
:104880000C68E0910D68EF2BA9F036D282E390E03E
:104890000E94122636D288EC90E00E9412262CD27A
:1048A00082E390E00E9412262CD288EE93E00E94D0
:1048B0001226E4CF21D282E390E00E94122621D278
:1048C00082EE94E00E941226D9CF0E948A230C9493
:1048D00055140E9479160C94E314E091C569209256
:1048E000C569E093C4690895FDECE2E6DAE6CFE934
:1048F00082E10E94181514D037D03FD047D04FD056
:1049000057D05FD067D06FD011272227D9E0C9E9EF
:10491000C093DB6AD093DC6A089578940C94972452
:10492000EFE9FAE6E093D86AF093D96A08950E9415
:1049300011242092DF6A2092E06A2092E16A1D7FB2
:10494000E091DF6AF091E06AC091E16A3196C21DA0
:1049500011FDEFCF2223D1F3E093DF6AF093E06AF9
:10496000C093E16A2BD1ECCFEBEBF4E2E0933F692B
:10497000F0933E6908950C941324E4ECF4E2E09380
:104980005F69F0935E6908950C943224EDECF4E2D3
:10499000E0936169F09360690895A2E92DC0E6EDA6
:1049A000F4E2E0936369F09362690895A3E924C097
:1049B000EFEDF4E2E0936569F09364690895A4E98A
:1049C0001BC0E8EEF4E2E0938569F09384690895F2
:1049D0000C943724E1EFF4E2E0938769F093866961
:1049E0000895A6E909C0EAEFF4E2E093A769F0931D
:1049F000A66908950C943D240C942B1610FD7AC0E2
:104A0000F093EA6AFFB7F093E96A1160E093EB6A0A
:104A1000D093EC6AC093ED6AB093EE6AA093EF6A0C
:104A20009093F06A8093F16A1092F26A0092F36AAE
:104A3000C091DD6AC395C093DD6A09F41860CF7038
:104A400009F41460C0FD14C01061C091DB6AD091FC
:104A5000DC6AC15015F41062C97F10F41064C97982
:104A6000D04010F41068D970C093DB6AD093DC6A30
:104A700017FD50D071D014FD0E94652413FD0E94D3
:104A8000692417FD0E946D2414FF1BC0DAE6C5EBF4
:104A9000A1E0E881F981319788F071F42A2BE8834D
:104AA000F983EA81FB81FE2B49F0FB810180A0950F
:104AB0000A22A095018202C0E883F9832496AA0FF6
:104AC00041F70090F36A1090F26A8091F16A909138
:104AD000F06AA091EF6AB091EE6AC091ED6AD09150
:104AE000EC6AE091EB6A1270F091E96AFFBFF09115
:104AF000EA6A0895F894E1E0F1E00E94BE26FFEF33
:104B00003197F1F7E0E0F1E00E94BE26F0E4319742
:104B1000F1F7F0CFE091E06AF091E16AEE0FFF1F4C
:104B2000EBE8FE9F000C111CE4E6E119E093DE6A5D
:104B30001260C091E36AD091E46AC093E56AD093B1
:104B4000E66AD695C795D695C795C093E26A209236
:104B5000E46A2092E36A0895E091DD6AEF70E093E1
:104B6000DA6AEE0FF0E0E954FA4D099408950C94D6
:104B7000B6250C94B6250C94B6250C94B6250C9449
:104B8000B6250C94B6250C94B6250C94B6250C9439
:104B9000B6250C94B6250C94B6250C94B6250C9429
:104BA000B6250C94B6250C94B6250C94B625F09138
:104BB000D56AFF0F11F02F1708F40895E091E36A0A
:104BC000F091E46A3196E093E36AF093E46AC0916D
:104BD000D86AD091D96AEDB7FEB7E993F883E0E2DD
:104BE000F22FC0E8FF0F30F019F0C695E450D1F76E
:104BF000CC27EE27C093D56AE093D76AE695E09379
:104C0000D66ADAE6CFE9CE0FD21DC093D86AD09328
:104C1000D96AE991F881CFB7F894EDBFFEBFCFBF55
:104C200008959927C1EBDAE6B091D76ACB0FD21D70
:104C3000BFB7F89488839983D091D56AD0952D23F6
:104C4000BFBFBCCF07D0BACF03D0B8CFD091D56A01
:104C50002D2B0895D091D56AD0952D2308952082CB
:104C600021820895689401C0E894D091D56ABFB7B5
:104C7000F894C081CC2321F0CE7FC083BFBF0895BC
:104C8000C181CD2BC183BFBF0EF0DCCFCBCFBFB76F
:104C9000F894C191D081DD2321F4C160C293BFBFDC
:104CA000089520822292BFBF0DC0BFB7F894D08173
:104CB000D260D193D081DD2311F4BFBF089520824B
:104CC000BFBF00C0E1EBFAE6CD2F3496CC0F41F028
:104CD000E0F7F8942192219221922192BFBFF6CF62
:104CE000B7CF20820895BFB7F894A081AE7FA0838C
:104CF000BFBF0895F8DFB8CFE1E0F1E00E94BE2623
:104D00000895E0E0F1E00E94BE260895C4EFDAE6DF
:104D1000EEE4FDEC0C2E9FEFA191B191BF3F81F02D
:104D200011968FEF83951D901120E1F382118395E9
:104D30008993981788F38211982F82110C2EECCF4B
:104D40009093E76A0894C009C093E86A08950069DF
:104D50002069406960696269646966698669886911
:104D6000FFFF1F693D695D695F6961696369836907
:104D70008569A5690895E2E0F2E000C0EF23F095AF
:104D80000090896A0F22E02906C0E0E004C0EFEF3E
:104D900002C0E1E000C0E093896A00C0E091896A46
:104DA0000C94FF15EF23F09500908A6A0F22E029FA
:104DB00008C0E0E006C0E5E504C0EFEF02C0E3E4B0
:104DC00000C0E0938A6A00C0E0918A6A0C94FD15E5
:104DD000310B00000105013100805A6A00010040DA
:104DE0004031008000000002310B0000010501315C
:104DF00000815A6A00010040403100810000000239
:104E0000310B00000101053100805A6A00010040A9
:104E10004031008000000002310B0000010105312B
:104E200000815A6A00010040403100810000000208
:104E300031030000010007310080936A0001004047
:104E400040310080000000063103000001070031FE
:104E50000080956A0001004040310080000000069B
:104E6000110B00000102401100804A6A000101029A
:104E7000401100805C6A0001014240110081976A84
:104E800000010040401100800000000277CB76CB8B
:104E900075CB74CB73CB74CB71CB70CB74CB79CB1C
:104EA0007CCB6ECB6BCB7DCB69CB68CB67CB79CB27
:104EB0007CCB64CB63CB62CB61CB60CBFFFFFFFFCE
:105000001414237F080101FF080402FF080403FFB2
:10501000088004FF084005FF04120000142B230041
:1050200008010603086407FF081008FF04040000D5
:105030000800090008000A0008010BFF08010CFF26
:1050400008C30DFF08E80EFF08000FFF080010FF5F
:1050500008001100080012000800130008001400E6
:105060000000000000000000080017FF089618115B
:10507000080A1911101A7000040000FF04FF00FF55
:1050800008011BFF08021CFF08041DFF08081EFF83
:1050900008101FFF082020FF084021FF088022FF82
:1050A000080023FF080024FF080025FF080026FF52
:1050B000080027FF080028FF0804290F08002A0F0E
:1050C00008042B0F08002C0F0000000008022EFF20
:1050D000143623FF080730FF0800313F0807320F5E
:1050E00008F033FF08FA34FF086435FF086436FF20
:1050F000088037FF088038FF00000000081E3AFFD4
:1051000008FF3BFF08FF3CFF08FF3DFF08FF3EFF95
:1051100008FF3FFF08FF40FF088741FF080342FFE9
:10512000080043FF00000000000000000000000035
:10513000000000000000000000000000000000006F
:10514000000000000000000000000000000000005F
:10515000000000000000000000000000000000004F
:10516000000000000000000000000000000000003F
:10517000000000000000000000000000000000002F
:105180000C0068000C0168000C0268000C03680049
:105190000C0468000C0568000C0668000C07680029
:1051A000080044FF080045FF040100000409000056
:1051B0000C01A1000C0091000C0191000C00910069
:1051C0000C1180000C108000144C23FF145023FF9E
:1051D0000CFF15000CFE1500FFFFFFFFFFFFFFFF98
:10520000040900000401000000000000000000008C
:105210000C0368000C0268000C0168000C006800B8
:105220000C0768000C0668000C0568000C04680098
:105230000C0875000C0975000C0A75000C0B750044
:105240000C0C75000C0D75000C0E75000C0F750024
:105250000C1075000C1175000C1275000C13750004
:105260000C1475000C1575000C1675000C177500E4
:105270000C1875000C1975000C1A75000C1B7500C4
:105280000C1C75000C1D75000C1E75000C1F7500A4
:105290000C2075000C2175000C2275000C23750084
:1052A0000C2475000C2575000C2675000C27750064
:1052B0000C2875000C2975000C2A75000C2B750044
:1052C0000C2C75000C2D75000C2E75000C2F750024
:1052D0000C3075000C3175000C3275000C33750004
:1052E0000C3475000C3575000C3675000C397500E2
:1052F0000C3A75000C1A75000C1B75000C0075003B
:105300000C0075000000000000000000000000001C
:105310000000000000000000000000000C2D6800EC
:105320000C2E68000C2F68000C3068000C356800EB
:105330000C3668000C1F68000C2068000C21680007
:105340000C2268000C2768000C2868000C296800F3
:105350000C2A68000C2B68000C2C68000CE6690015
:105360000CE769000CE869000CE969000CEA6900C7
:105370000CEB69000CB269000CC369000CC4690035
:105380000C996A000C9A6A000C9B6A000C1C68005D
:10539000045500002C29282A0000110B00000104EC
:1053A00040110080206A0001004040110080000090
:1053B0000002110B0000010440110080226A00016C
:1053C00000404011008000000002FFFFFFFFFFFFD0
:1090000087C0FFCFFFC7FFCFFFC7FFCFFFC7FFCF8F
:10901000FFC7FFCFFFC7FFCFFFC7FFCFFFC7FFCF00
:10902000FFC7FFCFFFC7FFCFFFC7FFCFFFC7FFCFF0
:10903000FFC7FFCFFFC7FFCFFFC7FFCFFFC7FFCFE0
:10904000FFC7FFCFFFC7FFCFFFC7FFCFFFC7FFCFD0
:10905000FFC7FFCFFFC7FFCFFFC7FFCFFFC7FFCFC0
:10906000FFC7FFCFFFC7FFCFFFC7FFCFFFC7FFCFB0
:10907000FFC7FFCFFFC7FFCFFFC7FFCFFFC7FFCFA0
:10908000FFC7FFCFFFC7FFCFFFC7FFCFFFC7FFCF90
:10909000FFC7FFCFFFC7FFCFFFC7FFCFFFC7FFCF80
:1090A000FFC7FFCFFFC7FFCFFFC7FFCFFFC7FFCF70
:1090B000FFC7FFCFFFC7FFCFFFC7FFCFFFC7FFCF60
:1090C000FFC7FFCFFFC7FFCFFFC7FFCFFFC7FFCF50
:1090D000FFC7FFCFFFC7FFCFFFC7FFCFFFC7FFCF40
:1090E000FFC7FFCFFFC7FFCFFFC7FFCFFFC7FFCF30
:1090F000FFC7FFCFFFC7FFCFFFC7FFCFFFC7FFCF20
:1091000001002BD10100000016A95667968280A9A4
:10911000A895F8942224E8EDE4BF20921001E8ED30
:10912000F1E0E4BFF0936200EFE1F9E6EDBFFEBFCE
:109130005DD470D44F98479AAC9AA49AE0E4F8E0D2
:109140002682A0E8B1E0A087B1872582A3E0A783AB
:10915000A0E4A683A9E0A093000A2092200A20920E
:10916000210AA1E0A093000B2092010BAFEFA09386
:109170000C0BA0930D0B209252042092B004429845
:10918000A098A895E8EDE4BFE7E0E093000151D492
:1091900050D4EAD34ED403D480911B68821104D4F6
:1091A000EFB3E0931C68E0911B68E21105C0E09109
:1091B0001168E21183C200C0C0E0D8E65CD3F99325
:1091C000E9935BD3F993E99366D3E4E0F8E6D193AE
:1091D000C193B193A193A0910768AF77A16020924A
:1091E0005069A0935169EAD2A0910091B091019188
:1091F000B883A983A09100A1B09101A1BA83AB83E8
:109200002C82E2D2288229822A822B822C82DFD2EF
:10921000E0E0F1E9A081B181B883A9839BB781E047
:109220008BBFA081B1819BBFBA83AB832C82E8EE58
:10923000F3E0E0932369F09324690091FE15E09137
:109240000468E093256921E08FC180E5F2D3909115
:10925000366980E0933049F08A81943031F031FDF5
:109260006DC18D81983009F06DC1209223692092E3
:10927000246958D123E081C2F0D184E4DAD38E810D
:1092800080930A688F8180930B6888858093086833
:109290008985809309688A8545D127E072C2E2D129
:1092A00080E7C7D327E077C2DDD181E4C2D38885C8
:1092B00080930C68898580930D688A8582FD04D22D
:1092C00083708093116828E068D2809111688211C0
:1092D000EED14AC190913669953011F0983011F471
:1092E000EA8116C0973011F09A3019F4C0D1EC81A0
:1092F0000FC0993011F09C3019F4AFD1EE8108C045
:109300009B3011F09E3019F4ADD1E88501C01AC12F
:10931000EA3070F4F0E0E257F64F0994E1C0E1C0A2
:10932000E2C0E2C0E1C0E0C0E3C0E4C0E9C0EEC01A
:109330001BC19DD182E47DD38C818093A46B388541
:109340004985823011F430FD0FC128E1E19A30FDEA
:1093500027D230FF28D2C7E0E4E8FBE6C8D2C091AC
:10936000A46BE5D1C4D2DBD08E819F81D9D1EDEE43
:10937000DE2EE8EBCE2EE3E8BE2EE0E2AE2EEFEFDF
:109380009E2E8E2E7E2E6E2EB8D1EEC070D183E42E
:1093900050D30C8009140D8008040E8007040F8040
:1093A000060428E211F428E4A8D1D5C160D182E5F1
:1093B00040D328E7ADD1D6C15AD184E53AD328E5C8
:1093C000D1C155D185E435D328E03E7F4427C3C1C0
:1093D0004ED186E42ED3ABD190913669963019F0F8
:1093E0008C8130FD8CD230FD8ED2BEC030FDA4C049
:1093F00090913669933009F405C0953011F437D156
:1094000001C0A0C082E715D392D15BD28093486996
:1094100011D057D2809349690DD053D280934A69B5
:1094200009D04FD280934B6905D092959095909337
:109430004C69DAC1991F90FD0895089487957AD1F7
:109440008695E9F7089530FF77C09091366993309B
:1094500009F422C0953011F40AD11EC09B3011F4DA
:10946000229606C09D3019F402D1249601C06AC02C
:1094700087E7DFD278E06991089467955BD16695BC
:10948000E9F77A95C1F7A8E0B0E02897E4E8FBE6B1
:1094900030D2A8E0B0E01BC0C1D081F478F0A0E0E9
:1094A000B2E760E8BBD011F4E8F748F08FB742D1DB
:1094B0008FBF6795B8F76D93A13898F355C0A0504A
:1094C000B247C0E0D2E7E4E8FBE613D200C0C4E84C
:1094D000DBE62DD130FD11D230FD1BD245C044C09A
:1094E00055C153D114C252C150D1E1D002E03CC0A9
:1094F0004FD13AC09E3009F037C04AD116D234C09D
:109500009E3009F031C044D10ED22EC03ED1C1E010
:109510003BD2CF3219F4D13D09F473D5F8C1C6E27C
:10952000D9E6089590910A0B982392111DC00895D1
:1095300084E40CC082E50AC08DE408C083E406C060
:1095400085E404C08CE402C084E500C072D20CC083
:10955000C0912369D0912469219730F0C093236989
:10956000D093246909F4C1CFEFE1F9E6EDBFFEBF66
:1095700060D25FD2B0D02CBA6AE050D01130A1F7DF
:109580006A95D9F74BD081F7E8F3913808F4309415
:10959000C6DF7727EE2761E041D0B1F6661FE0F71E
:1095A00069937627C43370F639D071F620F0E62738
:1095B000FFE8E081F0CF7211C3CFE09337693D7FC0
:1095C000E2113260C652C0933669A9DFE881ED3FEF
:1095D00069F000FD8ACFF981EF2BEA81EF2B29F4A6
:1095E000E0913669E33009F480CFB2CF6981603F02
:1095F00008F4BACF6F70E0E3F8E9660F660FE60F84
:10960000F21D0190022209F497CF019000FE02C0E2
:1096100031FD94CF01901080F0010994A895112795
:109620000AB0032402FEFCCF9091200A2092200A67
:109630002092210A0AB0032402FCFCCF8091200A68
:109640002092200A2092210A8D31111F813810FDAD
:109650008F30111F012E06940895E0E0F8E684E0B3
:109660001DD00CC0E4E0F8E686E018D007C00FD0AB
:1096700029F00AD019F005D009F00CD0821174CF6E
:109680000895EAE0F8E609C0E8E0F8E606C0ECE094
:10969000F8E603C0EEE0F8E600C082E0DE011296D4
:1096A00001901D90011411F48A95D1F70895C1E03D
:1096B0006BD1CF3211F4D13D09F00895BAD1E091C8
:1096C00005A1E0FD01D09CC4E8EDE0933400E5E89D
:1096D000E09301100895E091060BE0FF0895E093F8
:1096E000060BE0912269E395E0932269E6FF01C051
:1096F00002C07CD18FC17ED193C117D00E010FDF84
:109700006A8A7B8A8C8A9D8A0F8A188E298E089590
:1097100006DF6A887B888C889D888F89988D00C039
:1097200006D0CBD0C80FD91FC2C001D0F8C0E4E624
:10973000FBE6089530F0969487947794679430F020
:1097400009C0969487947794679420F09D248C2484
:109750007B246A2408953ED0988289827A826B8223
:109760002C8243C0E2DFDE018091A46B33D088837A
:109770002982BA83AB832C8238C0E0E0F8E692E01D
:109780002FC0E4E0F8E690E02BC0E19A1DD02DC098
:10979000E19A1DD02AC015D028C0E19A0FD025C06B
:1097A000C0E7D8E922C0C091A46BB7D0DE0112D0C7
:1097B0000882B983AA832B822C8217C0C5E5D9E61B
:1097C0000895C0E5D9E60895CAE5D9E60895CFE53C
:1097D000D9E60895C8E4D9E60895A0E4B9E6089565
:1097E000F9DF84E0B8D09883F5DFF7DFA4D000C0BC
:1097F00097E712D09DEA10D0F0DF86E09091440800
:1098000095FFFCCF9D91909342088A95B9F78AE223
:1098100010D1E19BA9CE08950090200A0916E0F32B
:109820002092200A2092210A529BB09983CE08955B
:109830000100250902013C0904014F0904015409F2
:1098400000006F0A00006F0A00006F0AFF016A093A
:10985000080199097001C6092001D6094001DC09F7
:109860001001E1091001E8091000F6091000230AAF
:1098700002003214FFFF0C9410000C9411000C94A1
:1098800012000C9413000C9414000C9415000C940A
:1098900016000C9417000C9418000C9419000C94EA
:1098A0001A000C941B000C941C000C941D000C94CA
:1098B0001E000C941F000C9420000C9421000C94AA
:1098C00022000C9423000C9424000C9425000C948A
:1098D00026000C9427000C9428000C9429000C946A
:1098E0002A000C942B000C942C000C942D000C944A
:1098F0002E000C942F000C9430000C9431000C942A
:1099000032000C9433000C9434000C9435000C9409
:1099100036000C9437000C9438000C9439000C94E9
:109920003A000C943B000C943C000C943D000C94C9
:109930003E000C943F000C9440000C9441000C94A9
:1099400042000C9443000C9444000C9445000C9489
:1099500046000C944700019009928A95E1F708951A
:1099600029928A95E9F70895E4E8FBE60E94730CD2
:10997000C4E6D9E60E94750CE4E6FBE60E94730C8F
:10998000C4E6D9E60C94750CE4E8FBE60E94770C7B
:109990000C94670CC0E0D8E6A6E1B0E00ED0C0E0C1
:1099A000D8E6AAE1B0E014C0C0E0D8E680E0D8DF95
:1099B00000C0EFEFE0931B68089569DFF001A09508
:1099C000B095C095D095A083B183C283D383089509
:1099D0005EDFF00180830895E2E0F2E000C0EF2353
:1099E000F095009020690F22E02906C0E0E004C055
:1099F000EFEF02C0E1E000C0E093206900C0E09119
:109A000020690C94450CEF23F095009021690F22FA
:109A1000E02908C0E0E006C0E5E504C0EFEF02C0C1
:109A2000E3E400C0E093216900C0E09121690C9457
:109A3000430C0895FFFFFFFFFFFFFFFFFFFFFFFF46
:00000001FF
