@ba12 ; Affinity 
@bb01 ; MemBank 
@bc03 ; Command 
:020000020A00F2
:1000000088C087C081E084C082E082C083E080C075
:1000100084E07EC085E07CC086E07AC087E078C05E
:1000200088E076C089E074C08AE072C08BE070C05E
:100030008CE06EC08DE06CC08EE06AC08FE068C05E
:1000400080E166C081E164C082E162C083E160C09A
:1000500084E15EC085E15CC086E15AC087E158C09A
:1000600088E156C089E154C08AE152C08BE150C09A
:100070008CE14EC08DE14CC08EE14AC08FE148C09A
:1000800080E246C081E244C082E242C083E240C0D6
:1000900084E23EC085E23CC086E23AC087E238C0D6
:1000A00088E236C089E234C08AE232C08BE230C0D6
:1000B0008CE22EC08DE22CC08EE22AC08FE228C0D6
:1000C00080E326C081E324C082E322C083E320C012
:1000D00084E31EC085E31CC086E31AC087E318C012
:1000E00088E316C089E314C08AE312C08BE310C012
:1000F0008CE30EC08DE30CC08EE30AC08FE308C012
:1001000001002FD10300000015A956675E4D8F1521
:10011000FFCFA895F8942224EFE1F9E6EDBFFEBFEA
:100120004F98479AD5D0A895E8EDE4BFE7E0E09373
:100130000001EDD0ECD086D0EAD0A4D02ED0A0E043
:10014000B0E1C0E0D0EBE0E0F0E9099011900114DB
:1001500019F41197D1F71AC036D0E2E2FBE6C2E0FB
:1001600013D12CD1F9F744D0E2E4FBE6C1E00CD185
:10017000C0E0D0EBE9D0E2E2FBE6C2E005D1A0E0CE
:10018000B0E1C2E4DBE6E2E2FBE604D148D0E2E41F
:10019000FBE6C1E0F9D08FEF01C1C2EAD1EAB7D0E6
:1001A000B6C01B5B33336D2E2E2E636F6D70617284
:1001B000696E67204E455720776974682043555211
:1001C0001B5B6D0A0D00CEECD1EAA1D0A0C01B5B79
:1001D00033336D2E2E2E636865636B696E67204224
:1001E0004C44206261636B75701B5B6D0A0D0000EF
:1001F000C8EFD1EA8CD08BC01B5B33336D2E2E2E13
:10020000696E7374616C6C696E67206E65772042ED
:100210004C4420636F64651B5B6D0A0D0000C6E2F1
:10022000D2EA75D074C01B5B39326D2E2E2E636CF2
:1002300065616E75701B5B6D0A0D000029928A95D1
:10024000E9F70895E2E4FBE60E94C011C2E2D9E6B4
:100250000E94C211E2E2FBE60E94C011C2E2D9E6AE
:100260000C94C211E2E4FBE60E94C4110C94B41198
:10027000C0E0D8E6A6E1B0E00ED0C0E0D8E6AAE142
:10028000B0E014C0C0E0D8E680E0D8DF00C0EFEFF7
:10029000E0931B68089548D0F001A095B095C095F3
:1002A000D095A083B183C283D38308953DD0F0015C
:1002B00080830895E2E0F2E000C0EF23F095009023
:1002C00020690F22E02906C0E0E004C0EFEF02C081
:1002D000E1E000C0E093206900C0E09120690C9447
:1002E0009211EF23F095009021690F22E02908C0B8
:1002F000E0E006C0E5E504C0EFEF02C0E3E400C0C3
:10030000E093216900C0E09121690C949011089557
:100310000C9410000C9411000C9412000C94130017
:100320000C9414000C9415000C9416000C941700F7
:100330000C9418000C9419000C941A000C941B00D7
:100340000C941C000C941D000C941E000C941F00B7
:100350000C9420000C9421000C9422000C94230097
:100360000C9424000C9425000C9426000C94270077
:100370000C9428000C9429000C942A000C942B0057
:100380000C942C000C942D000C942E000C942F0037
:100390000C9430000C9431000C9432000C94330017
:1003A0000C9434000C9435000C9436000C943700F7
:1003B0000C9438000C9439000C943A000C943B00D7
:1003C0000C943C000C943D000C943E000C943F00B7
:1003D0000C9440000C9441000C9442000C94430097
:1003E0000C9444000C9445000C9446000C94470077
:1010000087C0FFCFFFC7FFCFFFC7FFCFFFC7FFCF0F
:10101000FFC7FFCFFFC7FFCFFFC7FFCFFFC7FFCF80
:10102000FFC7FFCFFFC7FFCFFFC7FFCFFFC7FFCF70
:10103000FFC7FFCFFFC7FFCFFFC7FFCFFFC7FFCF60
:10104000FFC7FFCFFFC7FFCFFFC7FFCFFFC7FFCF50
:10105000FFC7FFCFFFC7FFCFFFC7FFCFFFC7FFCF40
:10106000FFC7FFCFFFC7FFCFFFC7FFCFFFC7FFCF30
:10107000FFC7FFCFFFC7FFCFFFC7FFCFFFC7FFCF20
:10108000FFC7FFCFFFC7FFCFFFC7FFCFFFC7FFCF10
:10109000FFC7FFCFFFC7FFCFFFC7FFCFFFC7FFCF00
:1010A000FFC7FFCFFFC7FFCFFFC7FFCFFFC7FFCFF0
:1010B000FFC7FFCFFFC7FFCFFFC7FFCFFFC7FFCFE0
:1010C000FFC7FFCFFFC7FFCFFFC7FFCFFFC7FFCFD0
:1010D000FFC7FFCFFFC7FFCFFFC7FFCFFFC7FFCFC0
:1010E000FFC7FFCFFFC7FFCFFFC7FFCFFFC7FFCFB0
:1010F000FFC7FFCFFFC7FFCFFFC7FFCFFFC7FFCFA0
:1011000001002BD10100000015A95667782D35BBD1
:10111000A895F8942224E8EDE4BF20921001E8EDB0
:10112000F1E0E4BFF0936200EFE1F9E6EDBFFEBF4E
:101130005DD470D44F98479AAC9AA49AE0E4F8E052
:101140002682A0E8B1E0A087B1872582A3E0A7832B
:10115000A0E4A683A9E0A093000A2092200A20928E
:10116000210AA1E0A093000B2092010BAFEFA09306
:101170000C0BA0930D0B209252042092B0044298C5
:10118000A098A895E8EDE4BFE7E0E093000151D412
:1011900050D4EAD34ED403D480911B68821104D476
:1011A000EFB3E0931C68E0911B68E21105C0E09189
:1011B0001168E21183C200C0C0E0D8E65CD3F993A5
:1011C000E9935BD3F993E99366D3E4E0F8E6D1932E
:1011D000C193B193A193A0910768AF77A1602092CA
:1011E0005069A0935169EAD2A0910091B091019108
:1011F000B883A983A09100A1B09101A1BA83AB8368
:101200002C82E2D2288229822A822B822C82DFD26F
:10121000E0E0F1E9A081B181B883A9839BB781E0C7
:101220008BBFA081B1819BBFBA83AB832C82E8EED8
:10123000F3E0E0932369F09324690091FE15E091B7
:101240000468E093256921E08FC180E5F2D3909195
:10125000366980E0933049F08A81943031F031FD75
:101260006DC18D81983009F06DC120922369209263
:10127000246958D123E081C2F0D184E4DAD38E818D
:1012800080930A688F8180930B68888580930868B3
:101290008985809309688A8545D127E072C2E2D1A9
:1012A00080E7C7D327E077C2DDD181E4C2D3888548
:1012B00080930C68898580930D688A8582FD04D2AD
:1012C00083708093116828E068D280911168821140
:1012D000EED14AC190913669953011F0983011F4F1
:1012E000EA8116C0973011F09A3019F4C0D1EC8120
:1012F0000FC0993011F09C3019F4AFD1EE8108C0C5
:101300009B3011F09E3019F4ADD1E88501C01AC1AF
:10131000EA3070F4F0E0E257F64F0994E1C0E1C022
:10132000E2C0E2C0E1C0E0C0E3C0E4C0E9C0EEC09A
:101330001BC19DD182E47DD38C818093A46B3885C1
:101340004985823011F430FD0FC128E1E19A30FD6A
:1013500027D230FF28D2C7E0E4E8FBE6C8D2C0912C
:10136000A46BE5D1C4D2DBD08E819F81D9D1EDEEC3
:10137000DE2EE8EBCE2EE3E8BE2EE0E2AE2EEFEF5F
:101380009E2E8E2E7E2E6E2EB8D1EEC070D183E4AE
:1013900050D30C8009140D8008040E8007040F80C0
:1013A000060428E211F428E4A8D1D5C160D182E571
:1013B00040D328E7ADD1D6C15AD184E53AD328E548
:1013C000D1C155D185E435D328E03E7F4427C3C140
:1013D0004ED186E42ED3ABD190913669963019F078
:1013E0008C8130FD8CD230FD8ED2BEC030FDA4C0C9
:1013F00090913669933009F405C0953011F437D1D6
:1014000001C0A0C082E715D392D15BD28093486916
:1014100011D057D2809349690DD053D280934A6935
:1014200009D04FD280934B6905D0929590959093B7
:101430004C69DAC1991F90FD0895089487957AD177
:101440008695E9F7089530FF77C09091366993301B
:1014500009F422C0953011F40AD11EC09B3011F45A
:10146000229606C09D3019F402D1249601C06AC0AC
:1014700087E7DFD278E06991089467955BD166953C
:10148000E9F77A95C1F7A8E0B0E02897E4E8FBE631
:1014900030D2A8E0B0E01BC0C1D081F478F0A0E069
:1014A000B2E760E8BBD011F4E8F748F08FB742D15B
:1014B0008FBF6795B8F76D93A13898F355C0A050CA
:1014C000B247C0E0D2E7E4E8FBE613D200C0C4E8CC
:1014D000DBE62DD130FD11D230FD1BD245C044C01A
:1014E00055C153D114C252C150D1E1D002E03CC029
:1014F0004FD13AC09E3009F037C04AD116D234C01D
:101500009E3009F031C044D10ED22EC03ED1C1E090
:101510003BD2CF3219F4D13D09F473D5F8C1C6E2FC
:10152000D9E6089590910A0B982392111DC0089551
:1015300084E40CC082E50AC08DE408C083E406C0E0
:1015400085E404C08CE402C084E500C072D20CC003
:10155000C0912369D0912469219730F0C093236909
:10156000D093246909F4C1CFEFE1F9E6EDBFFEBFE6
:1015700060D25FD2B0D02CBA6AE050D01130A1F75F
:101580006A95D9F74BD081F7E8F3913808F4309495
:10159000C6DF7727EE2761E041D0B1F6661FE0F79E
:1015A00069937627C43370F639D071F620F0E627B8
:1015B000FFE8E081F0CF7211C3CFE09337693D7F40
:1015C000E2113260C652C0933669A9DFE881ED3F6F
:1015D00069F000FD8ACFF981EF2BEA81EF2B29F426
:1015E000E0913669E33009F480CFB2CF6981603F82
:1015F00008F4BACF6F70E0E3F8E9660F660FE60F04
:10160000F21D0190022209F497CF019000FE02C062
:1016100031FD94CF01901080F0010994A895112715
:101620000AB0032402FEFCCF9091200A2092200AE7
:101630002092210A0AB0032402FCFCCF8091200AE8
:101640002092200A2092210A8D31111F813810FD2D
:101650008F30111F012E06940895E0E0F8E684E033
:101660001DD00CC0E4E0F8E686E018D007C00FD02B
:1016700029F00AD019F005D009F00CD0821174CFEE
:101680000895EAE0F8E609C0E8E0F8E606C0ECE014
:10169000F8E603C0EEE0F8E600C082E0DE01129654
:1016A00001901D90011411F48A95D1F70895C1E0BD
:1016B0006BD1CF3211F4D13D09F00895BAD1E09148
:1016C00005A1E0FD01D09CC4E8EDE0933400E5E81D
:1016D000E09301100895E091060BE0FF0895E09378
:1016E000060BE0912269E395E0932269E6FF01C0D1
:1016F00002C07CD18FC17ED193C117D00E010FDF04
:101700006A8A7B8A8C8A9D8A0F8A188E298E089510
:1017100006DF6A887B888C889D888F89988D00C0B9
:1017200006D0CBD0C80FD91FC2C001D0F8C0E4E6A4
:10173000FBE6089530F0969487947794679430F0A0
:1017400009C0969487947794679420F09D248C2404
:101750007B246A2408953ED0988289827A826B82A3
:101760002C8243C0E2DFDE018091A46B33D08883FA
:101770002982BA83AB832C8238C0E0E0F8E692E09D
:101780002FC0E4E0F8E690E02BC0E19A1DD02DC018
:10179000E19A1DD02AC015D028C0E19A0FD025C0EB
:1017A000C0E7D8E922C0C091A46BB7D0DE0112D047
:1017B0000882B983AA832B822C8217C0C5E5D9E69B
:1017C0000895C0E5D9E60895CAE5D9E60895CFE5BC
:1017D000D9E60895C8E4D9E60895A0E4B9E60895E5
:1017E000F9DF84E0B8D09883F5DFF7DFA4D000C03C
:1017F00097E712D09DEA10D0F0DF86E09091440880
:1018000095FFFCCF9D91909342088A95B9F78AE2A3
:1018100010D1E19BA9CE08950090200A0916E0F3AB
:101820002092200A2092210A529BB09983CE0895DB
:101830000100250902013C0904014F090401540972
:1018400000006F0A00006F0A00006F0AFF016A09BA
:10185000080199097001C6092001D6094001DC0977
:101860001001E1091001E8091000F6091000230A2F
:1018700002003214FFFF0C9410000C9411000C9421
:1018800012000C9413000C9414000C9415000C948A
:1018900016000C9417000C9418000C9419000C946A
:1018A0001A000C941B000C941C000C941D000C944A
:1018B0001E000C941F000C9420000C9421000C942A
:1018C00022000C9423000C9424000C9425000C940A
:1018D00026000C9427000C9428000C9429000C94EA
:1018E0002A000C942B000C942C000C942D000C94CA
:1018F0002E000C942F000C9430000C9431000C94AA
:1019000032000C9433000C9434000C9435000C9489
:1019100036000C9437000C9438000C9439000C9469
:101920003A000C943B000C943C000C943D000C9449
:101930003E000C943F000C9440000C9441000C9429
:1019400042000C9443000C9444000C9445000C9409
:1019500046000C944700019009928A95E1F708959A
:1019600029928A95E9F70895E4E8FBE60E94730C52
:10197000C4E6D9E60E94750CE4E6FBE60E94730C0F
:10198000C4E6D9E60C94750CE4E8FBE60E94770CFB
:101990000C94670CC0E0D8E6A6E1B0E00ED0C0E041
:1019A000D8E6AAE1B0E014C0C0E0D8E680E0D8DF15
:1019B00000C0EFEFE0931B68089569DFF001A09588
:1019C000B095C095D095A083B183C283D383089589
:1019D0005EDFF00180830895E2E0F2E000C0EF23D3
:1019E000F095009020690F22E02906C0E0E004C0D5
:1019F000EFEF02C0E1E000C0E093206900C0E09199
:101A000020690C94450CEF23F095009021690F227A
:101A1000E02908C0E0E006C0E5E504C0EFEF02C041
:101A2000E3E400C0E093216900C0E09121690C94D7
:101A3000430C0895FFFFFFFFFFFFFFFFFFFFFFFFC6
:00000001FF
; 
; *** EOF 
